:020000040800F2
:1000000000100020012200089D200008A720000801
:1000100000000000000000000000000000000000E0
:10002000000000000000000000000000AD200008FB
:100030000000000000000000B7200008C1200008F8
:10004000512200080000000051220008512200083F
:1000500051220008D3200008512200085122000834
:10006000000000005122000851220008512200081F
:10007000512200085122000851220008000000000F
:10008000512200080000000000000000512200087A
:1000900000000000512200085122000851220008EF
:1000A000000000005122000800000000512200085A
:1000B0000000000000000000000000000000000040
:1000C00010B5064C2378002B07D1054B002B02D02E
:1000D000044800E000BF0123237010BDB0000020E1
:1000E00000000000AC220008044B10B5002B03D028
:1000F0000349044800E000BF10BDC04600000000F6
:10010000B4000020AC2200080023C25C0133002AA6
:10011000FBD1581E70470000002243088B4274D365
:1001200003098B425FD3030A8B4244D3030B8B42F8
:1001300028D3030C8B420DD3FF22090212BA030C01
:100140008B4202D31212090265D0030B8B4219D3E2
:1001500000E0090AC30B8B4201D3CB03C01A524102
:10016000830B8B4201D38B03C01A5241430B8B424A
:1001700001D34B03C01A5241030B8B4201D30B0333
:10018000C01A5241C30A8B4201D3CB02C01A52415A
:10019000830A8B4201D38B02C01A5241430A8B421D
:1001A00001D34B02C01A5241030A8B4201D30B0206
:1001B000C01A5241CDD2C3098B4201D3CB01C01A20
:1001C000524183098B4201D38B01C01A524143092A
:1001D0008B4201D34B01C01A524103098B4201D318
:1001E0000B01C01A5241C3088B4201D3CB00C01A85
:1001F000524183088B4201D38B00C01A52414308FD
:100200008B4201D34B00C01A5241411A00D2014621
:10021000524110467047FFE701B5002000F006F894
:1002200002BDC0460029F7D076E770477047C04648
:1002300080B500AF074B074A126810210A431A60C5
:10024000002000F009F801F0F1FE00231800BD467F
:1002500080BDC0460020024080B582B000AF78600B
:1002600000F05AFF0200FA2399001000FFF754FF34
:100270000300180000F00EF9796801235B420022A8
:10028000180000F0E1F800231800BD4602B080BD60
:1002900080B500AF034B1B685A1C024B1A60C04666
:1002A000BD4680BDD400002080B500AF024B1B6866
:1002B0001800BD4680BDC046D400002080B584B083
:1002C00000AF7860FFF7F0FF0300BB607B68FB6066
:1002D000FB68013302D0FB680133FB60C046FFF7C7
:1002E000E3FF0200BB68D21AFB689A42F7D3C0460C
:1002F000BD4604B080BD000080B582B000AF0200F2
:10030000FB1D1A70064BFA1D127811001F220A40BD
:10031000012191400A001A60C046BD4602B080BD6E
:1003200000E100E0B0B582B000AF02003960FB1D13
:100330001A70FB1D1B787F2B32D92F4CFB1D1B78AD
:100340001A000F231340083B99082B4AFB1D1B780A
:1003500018000F230340083B9B0806339B00D3186B
:1003600004331B68FA1D1278100003220240D200E9
:10037000FF2090400200D2431A403B689B01FF20BF
:100380001840FB1D1B781D0003232B40DB00984009
:1003900003001A438B1D9B00E31804331A6027E007
:1003A000164CFB1D1B785BB29B081449FA1D127892
:1003B00052B29208C03292005258F91D09780800D2
:1003C00003210140C900FF2088400100C9431140BA
:1003D0003A689201FF201040FA1D1278150003229E
:1003E0002A40D200904002000A43C0339B001A51B9
:1003F000C046BD4602B0B0BD00ED00E000E100E047
:1004000080B582B000AF78607B68013B0C4A9342B4
:1004100001D9012310E00B4B7A68013A5A6001239D
:100420005B4203211800FFF77DFF064B00229A6014
:10043000044B07221A6000231800BD4602B080BD9D
:10044000FFFFFF0010E000E080B584B000AFB960AE
:100450007A600F23FB18021C1A70BA680F23FB186E
:100460001B785BB211001800FFF75CFFC046BD4669
:1004700004B080BD80B582B000AF0200FB1D1A70D1
:10048000FB1D1B785BB21800FFF736FFC046BD4668
:1004900002B080BD80B582B000AF78607B68180084
:1004A000FFF7AEFF03001800BD4602B080BD00009C
:1004B00080B582B000AF78607B68042B06D1084B12
:1004C000074A126804210A431A6005E0044B044AF3
:1004D000126804218A431A60C046BD4602B080BD3E
:1004E00010E000E080B500AF00F003F8C046BD4664
:1004F00080BD80B500AFC046BD4680BD80B586B02A
:1005000000AF7860396000237B610023FB6000232B
:100510003B614FE13B681B6801217A6991400A0009
:100520001340FB60FB68002B00D140E13B685B6837
:10053000022B03D03B685B68122B23D17B69DA085E
:100540007B6808329200D3583B617B6907221340D5
:100550009B000F229A401300DA433B6913403B6132
:100560003B681A697B6907210B409B009A40130086
:100570003A6913433B617B69DA087B680832920071
:100580003969D1507B681B683B617B695B00032242
:100590009A401300DA433B6913403B613B685B6858
:1005A00003221A407B695B009A4013003A691343A7
:1005B0003B617B683A691A603B685B68012B0BD032
:1005C0003B685B68022B07D03B685B68112B03D04C
:1005D0003B685B68122B30D17B689B683B617B6911
:1005E0005B0003229A401300DA433B6913403B61EE
:1005F0003B68DA687B695B009A4013003A691343F1
:100600003B617B683A699A607B685B683B61012269
:100610007B699A401300DA433B6913403B613B68B6
:100620005B681B0901221A407B699A4013003A69F2
:1006300013433B617B683A695A607B68DB683B61C6
:100640007B695B0003229A401300DA433B69134045
:100650003B613B689A687B695B009A4013003A698A
:1006600013433B617B683A69DA603B685A688023D0
:100670005B05134000D19AE0544B544A9269012122
:100680000A439A61514B9B6901221340BB60BB68CE
:100690004F4A7B699B0802339B009B583B617B69F7
:1006A000032213409B000F229A401300DA433B6958
:1006B00013403B617A689023DB059A4213D07B6834
:1006C000444A93420DD07B68434A934207D07B68EB
:1006D000424A934201D1032306E0052304E00223AA
:1006E00002E0012300E000237A6903210A4092001E
:1006F00093403A6913433B6135497B699B08023358
:100700009B003A695A50364B1B683B61FB68DA43E1
:100710003B6913403B613B685A6880235B0213408E
:1007200003D03A69FB6813433B612D4B3A691A6069
:100730002B4B5B683B61FB68DA433B6913403B61D1
:100740003B685A6880239B02134003D03A69FB68D8
:1007500013433B61224B3A695A60214B9B683B61D2
:10076000FB68DA433B6913403B613B685A6880236E
:100770005B03134003D03A69FB6813433B61184B9A
:100780003A699A60164BDB683B61FB68DA433B6968
:1007900013403B613B685A6880239B03134003D09E
:1007A0003A69FB6813433B610D4B3A69DA607B6938
:1007B00001337B613B681A687B69DA40131E00D005
:1007C000A8E6C046BD4606B080BDC0460010024047
:1007D000000001400004004800080048000C0048E8
:1007E0000004014080B584B000AF78600A00BB1CF3
:1007F0001A807B681B69BA1C1288134004D00F232F
:10080000FB1801221A7003E00F23FB1800221A7054
:100810000F23FB181B781800BD4604B080BD80B5BF
:1008200082B000AF786008001100BB1C021C1A8067
:100830007B1C0A1C1A707B1C1B78002B04D0BB1C71
:100840001A887B689A6103E0BB1C1A887B689A62ED
:10085000C046BD4602B080BD80B582B000AF020088
:10086000BB1D1A80094B5B69BA1D1288134008D062
:10087000064BBA1D12885A61BB1D1B88180000F078
:1008800007F8C046BD4602B080BDC0460004014026
:1008900080B582B000AF0200BB1D1A80C046BD46C5
:1008A00002B080BD80B586B000AF786000233B61A8
:1008B0007B681B680122134000D18DE0C34B5B684D
:1008C0000C221340042B0ED0C04B5B680C2213404B
:1008D000082B16D1BD4B5A6880235B021A40802337
:1008E0005B029A420DD1B94B1A6880239B021340D8
:1008F00000D170E07B685B68002B00D06BE00123C7
:10090000B5E27B685B68012B07D1B04BAF4A126838
:10091000802149020A431A602FE07B685B68002B44
:100920000CD1AA4BA94A1268A9490A401A60A74BE0
:10093000A64A1268A7490A401A601EE07B685B68F5
:10094000052B0ED1A14BA14A12688021C9020A438E
:100950001A609E4B9D4A1268802149020A431A6020
:100960000BE09A4B994A126899490A401A60974BD2
:10097000964A126897490A401A607B685B68002BA8
:1009800014D0FFF791FC03003B6108E0FFF78CFCFB
:1009900002003B69D31A642B01D9032367E28B4B16
:1009A0001A6880239B021340F0D015E0FFF77CFC0F
:1009B00003003B6108E0FFF777FC02003B69D31AB4
:1009C000642B01D9032352E2804B1A6880239B02D7
:1009D0001340F0D100E0C0467B681B680222134040
:1009E00000D169E0794B5B680C2213400BD0774B48
:1009F0005B680C221340082B1CD1744B5A6880236F
:100A00005B02134016D1714B1B680222134005D0C4
:100A10007B68DB68012B01D0012328E26B4A6B4B1A
:100A20001B68F8218B4319007B681B69DB000B43B3
:100A3000136041E07B68DB68002B24D0634B634A82
:100A4000126801210A431A60FFF72EFC03003B6184
:100A500008E0FFF729FC02003B69D31A022B01D9F9
:100A6000032304E2594B1B6802221340F1D0574A7A
:100A7000564B1B68F8218B4319007B681B69DB0010
:100A80000B43136018E0514B504A126801218A430E
:100A90001A60FFF709FC03003B6108E0FFF704FC64
:100AA00002003B69D31A022B01D90323DFE1474B34
:100AB0001B6802221340F1D17B681B680822134097
:100AC00036D07B68DB69002B19D0404B3F4A526A15
:100AD00001210A435A62FFF7E7FB03003B6108E08C
:100AE000FFF7E2FB02003B69D31A022B01D9032373
:100AF000BDE1364B5B6A02221340F1D018E0334B64
:100B0000324A526A01218A435A62FFF7CDFB030041
:100B10003B6108E0FFF7C8FB02003B69D31A022BD8
:100B200001D90323A3E1294B5B6A02221340F1D1CF
:100B30007B681B680422134000D1B5E01723FB1823
:100B400000221A70214BDA6980235B05134011D112
:100B50001E4B1E4AD269802149050A43DA611B4BAC
:100B6000DA6980235B051340FB60FB681723FB18E1
:100B700001221A70184B1A6880235B0013401AD1A7
:100B8000154B154A1268802149000A431A60FFF785
:100B90008BFB03003B6108E0FFF786FB02003B692B
:100BA000D31A642B01D9032361E10B4B1A6880230C
:100BB0005B001340F0D07B689B68012B0ED1034B88
:100BC000024A126A01210A431A6235E0001002400B
:100BD000FFFFFEFFFFFFFBFF007000407B689B688C
:100BE000002B0CD1A44BA44A126A01218A431A6239
:100BF000A14BA14A126A04218A431A621CE07B6855
:100C00009B68052B0CD19C4B9B4A126A04210A431A
:100C10001A62994B984A126A01210A431A620BE040
:100C2000954B954A126A01218A431A62924B924A65
:100C3000126A04218A431A627B689B68002B14D0D5
:100C4000FFF732FB03003B6109E0FFF72DFB0200D9
:100C50003B69D31A894A934201D9032307E1864BA2
:100C60001B6A02221340F0D013E0FFF71DFB0300C4
:100C70003B6109E0FFF718FB02003B69D31A7F4A8A
:100C8000934201D90323F2E07B4B1B6A02221340FB
:100C9000F0D11723FB181B78012B05D1764B764A30
:100CA000D26977490A40DA617B681B6810221340D9
:100CB00063D07B685B69012B2AD16F4B6E4A526B04
:100CC00004210A435A636C4B6B4A526B01210A435D
:100CD0005A63FFF7E9FA03003B6108E0FFF7E4FA23
:100CE00002003B69D31A022B01D90323BFE0624BF8
:100CF0005B6B02221340F1D05F4A5F4B5B6BF821C4
:100D00008B4319007B689B69DB000B43536334E022
:100D10007B685B69053311D1574B574A526B0421ED
:100D20008A435A63544A544B5B6BF8218B43190036
:100D30007B689B69DB000B4353631EE04E4B4E4ABE
:100D4000526B04210A435A634B4B4B4A526B0121AD
:100D50008A435A63FFF7A8FA03003B6108E0FFF7F4
:100D6000A3FA02003B69D31A022B01D903237EE0C8
:100D7000414B5B6B02221340F1D17B681B6A002B55
:100D800000D173E03C4B5B680C221340082B00D170
:100D90006AE07B681B6A022B4BD1374B364A1268DC
:100DA00038490A401A60FFF77FFA03003B6108E008
:100DB000FFF77AFA02003B69D31A022B01D9032309
:100DC00055E02D4B1A6880239B041340F0D12A4A2A
:100DD000294BDB6A0F218B4319007B68DB6A0B43CD
:100DE000D362254A244B5B68274919407B68986A7F
:100DF0007B685B6A03430B4353601F4B1E4A1268B8
:100E0000802149040A431A60FFF74EFA03003B6150
:100E100008E0FFF749FA02003B69D31A022B01D917
:100E2000032324E0144B1A6880239B041340F0D062
:100E30001CE0114B104A126812490A401A60FFF771
:100E400033FA03003B6108E0FFF72EFA02003B692A
:100E5000D31A022B01D9032309E0074B1A68802318
:100E60009B041340F0D101E0012300E000231800AF
:100E7000BD4606B080BDC046001002408813000089
:100E8000FFFFFFEFFFFFFFFEFFFFC2FF80B584B053
:100E900000AF786039600023FB60694B1B6801225A
:100EA0001A403B689A4211D2654B654A126801218B
:100EB0008A4311003A680A431A60614B1B68012299
:100EC0001A403B689A4201D00123B5E07B681B6859
:100ED0000222134009D05B4A5A4B5B68F0218B43D6
:100EE00019007B689B680B4353607B681B68012279
:100EF000134000D167E07B685B68012B07D1514B41
:100F00001A6880239B02134014D1012394E07B686C
:100F10005B68022B07D14B4B1A6880239B0413405C
:100F200008D1012388E0474B1B680222134001D1FE
:100F3000012381E0434A434B5B6803218B43190043
:100F40007B685B680B435360FFF7AEF90300FB60FF
:100F50007B685B68012B11D109E0FFF7A5F902005E
:100F6000FB68D31A384A934201D9032364E0354B16
:100F70005B680C221340042BEFD124E07B685B6894
:100F8000022B1BD109E0FFF78FF90200FB68D31A8F
:100F90002D4A934201D903234EE02A4B5B680C2271
:100FA0001340082BEFD10EE0FFF77EF90200FB683B
:100FB000D31A254A934201D903233DE0214B5B68B4
:100FC0000C221340F0D11E4B1B6801221A403B68D3
:100FD0009A4211D91A4B1A4A126801218A43110008
:100FE0003A680A431A60164B1B6801221A403B6894
:100FF0009A4201D001231FE07B681B680422134042
:1010000008D0104A0F4B5B68104919407B68DB68B9
:101010000B43536000F020F801000A4B5B681B098A
:101020000F2213400A4AD35C0A00DA40094B1A60C7
:101030000020FFF711F900231800BD4604B080BD61
:10104000002002400010024088130000FFF8FFFF5C
:101050000C250008AC00002090B58FB000AF142321
:10106000FB18284A13CA13C312681A603B1D264A8C
:1010700013CA13C312681A600023FB620023BB6209
:1010800000237B6300237B6200233B631F4B5B6871
:10109000FB62FB6A0C221340042B02D0082B03D006
:1010A00027E01B4B3B6327E0FB6A9B0C0F2213409E
:1010B0001422BA18D35C7B62144BDB6A0F221340F4
:1010C0003A1DD35CBB62FA6A80235B02134009D0ED
:1010D000B96A0F48FFF720F803001A007B6A5343F0
:1010E0007B6303E07B6A0B4A53437B637B6B3B630D
:1010F00002E0074B3B63C0463B6B1800BD460FB098
:1011000090BDC046C4220008D4220008001002404E
:1011100000127A0000093D0080B500AF024B1B6849
:101120001800BD4680BDC046AC00002080B582B02E
:1011300000AF78607B68002B01D101231EE07B6843
:101140003D229B5CDBB2002B07D17B683C22002157
:1011500099547B68180001F033F87B683D22022126
:1011600099547B681A687B6804331900100000F0FA
:1011700009F87B683D220121995400231800BD46DF
:1011800002B080BD80B584B000AF786039600023C4
:10119000FB607B681B68FB607B682B4A934203D033
:1011A0007B682A4A934208D1FB6870229343FB6014
:1011B0003B685B68FA681343FB607B68224A934292
:1011C0000FD07B68214A93420BD07B68204A934220
:1011D00007D07B681F4A934203D07B681E4A934224
:1011E00008D1FB681D4A1340FB603B68DB68FA6866
:1011F0001343FB60FB68802293431A003B685B69E2
:101200001343FB607B68FA681A603B689A687B68E6
:10121000DA623B681A687B689A627B680A4A934282
:1012200007D07B680B4A934203D07B680A4A9342FB
:1012300003D13B681A697B681A637B6801225A6193
:10124000C046BD4604B080BD002C014000040040F3
:10125000002000400044014000480140FFFCFFFF27
:1012600080B584B000AFF860B9603B60BB1D1A80E8
:10127000FB68BA681A60FB68BA1D12889A80FB681E
:101280003A689A60FB681822BA1812889A81C04698
:10129000BD4604B080BD80B582B000AF78603960D3
:1012A0007B6818687B689B8801221900FFF7B7FAF2
:1012B0007B6898687B689B8900221900FFF7AFFA6A
:1012C0003B681800FEF7FAFF7B6818687B689B880C
:1012D00000221900FFF7A3FA7B6898687B689B8956
:1012E00000221900FFF79BFAC046BD4602B080BD40
:1012F00080B582B000AF786039607B6818687B6821
:101300009B8800221900FFF78AFA7B6898687B683F
:101310009B8901221900FFF782FA3B681800FEF74B
:10132000CDFF7B6818687B689B8800221900FFF757
:1013300076FA7B6898687B689B8900221900FFF722
:101340006EFAC046BD4602B080BD000080B582B0D6
:1013500000AF78600A00FB1C1A70FB1C1B78082B7E
:101360003DD89A00204BD3181B689F461F4A7B68C4
:1013700011001800FFF78FFF31E01C4A7B68110055
:101380001800FFF7B5FF2AE0184A7B681100180023
:10139000FFF781FF23E0154A7B6811001800FFF773
:1013A000A7FF1CE0114A7B6811001800FFF773FFCC
:1013B00015E00E4A7B6811001800FFF799FF0EE058
:1013C0000A4A7B6811001800FFF765FF07E0FA235F
:1013D0001A017B6811001800FFF78AFFFFE7C0467B
:1013E000BD4602B080BDC04604230008DC050000F5
:1013F00090B587B000AF78607B68186B7B682F2250
:101400009B5C9BB21622BC181900FFF7EBF9030096
:101410002370FEF749FF03003B61334B1B683A69B9
:10142000D31AFA2B05D9314B00221A70304B002207
:101430001A702D4B3A691A602C4B1A780F23FB183F
:10144000013A1A700F23FB181B78072B10D81623AC
:10145000FB181A780F23FB181B789A4013005AB216
:10146000234B1B785BB213435BB2DAB2204B1A708A
:101470001E4B1B780133DAB21C4B1A701B4B1B78C6
:101480000B2B2CD17B682D229B5CDAB21723FB1827
:1014900001321A701723FB181B782C2B03D9172342
:1014A000FB1800221A707B682E229B5CDBB217228D
:1014B000BA1812789A420CD01723FB181B780C4AE2
:1014C00011787A68D1547B681722BA182D211278C6
:1014D0005A54064B00221A70054B00221A70C0465F
:1014E000BD4607B090BDC046CC000020D000002013
:1014F000D100002080B584B000AF78600F23FB18C6
:101500007A682E21525C1A707B682D229B5CDBB2BC
:101510000F22BA1812789A4201D1002320E00F233B
:10152000FB181A780F23FB1801321A700F23FB18CF
:101530001B782C2B03D90F23FB1800221A700F23C2
:10154000FB181A780E23FB1879688A5C1A707B687E
:101550000F22BA182E2112785A540E23FB181B782A
:101560001800BD4604B080BD90B585B000AF78606E
:101570000E23FC187B681800FFF7BCFF03002370E4
:101580000E23FB181B78002B01D1002319E10E2339
:10159000FB181B78F02B07D18C4B1B7801221343CF
:1015A000DAB28A4B1A70E3E70E23FB181B78E02BA4
:1015B00007D1864B1B7802221343DAB2834B1A7091
:1015C000D6E7824B1B781A000123134033D00E2339
:1015D000FB181B78122B07D17C4B1B7804229343FA
:1015E000DAB27A4B1A701EE00E23FB181B78592BC7
:1015F00007D1764B1B7808229343DAB2734B1A70EB
:1016000011E00E23FB181B78112B0CD16F4B1B78AC
:101610001A000223134006D06C4B1B781022934310
:10162000DAB26A4B1A70694B1B7803229343DAB221
:10163000664B1A70C4E00E23FB181B78122B07D1DF
:10164000624B1B7804221343DAB2604B1A70B7E086
:101650000E23FB181B78592B07D15C4B1B780822F3
:101660001343DAB2594B1A70AAE00E23FB181B7809
:10167000112B0CD1554B1B781A000223134006D0B6
:10168000524B1B7810221343DAB2504B1A700F23BF
:10169000FB1800221A704D4B1B781A0002231340CE
:1016A00047D00E23FB181B784A3B332B00D975E03B
:1016B0009A00474BD3181B689F460F23FB18002244
:1016C0001A706CE00F23FB1800221A7067E00F23DA
:1016D000FB1819221A7062E00F23FB187F221A7080
:1016E0005DE00F23FB1800221A7058E00F23FB184F
:1016F0001A221A7053E00F23FB180B221A704EE0C7
:101700000F23FB1808221A7049E00F23FB180A2246
:101710001A7044E00F23FB1815221A703FE00F23C4
:10172000FB182F221A703AE00F23FB180D221A70B3
:1017300035E0264B1B781A001023134017D07B6826
:101740001B6C88229B58002B11D00E23FB181B7892
:10175000872B24D87B681B6C8C331A000E23FB1854
:101760001B78D2180F23FB1812781A7017E0174B4A
:101770001B781A000C23134011D10E23FB181B7881
:10178000872B0CD87B681B6C1A000E23FB181B7868
:10179000D2180F23FB1812781A7000E0C0460B4BCA
:1017A0001B7803229343DAB2084B1A700F23FB18FD
:1017B0001B78002B00D1DBE60F23FB181B7800E021
:1017C000D6E61800BD4605B090BDC046D200002048
:1017D0003C24000880B582B000AF78607B683C2272
:1017E0009B5C002B04D17B683D229B5C002B01D0CD
:1017F000012310E07B681800FFF7B6FE0300190014
:101800007B683C2299547B683C229B5C002B01D076
:10181000012300E000231800BD4602B080BD90B552
:1018200085B000AF78600F23FB187A683D21525CC9
:101830001A700F23FB181B78002B04D07B683D2205
:101840000021995439E00F23FB187A683C21525C3F
:101850001A700F23FB181B78002B04D07B683C22E6
:101860000021995407E00F23FC187B681800FFF74C
:101870007BFE030023700F23FB181B785BB2002B49
:101880001BDA0F23FB181B785BB23F2213405BB2BD
:101890008022524213435BB2D9B27B683D229954F5
:1018A0000F23FB181B789B09DBB25BB2402252422C
:1018B00013435AB20F23FB181A700F23FB181B781F
:1018C000002B01D1FF2302E00F23FB181B78180027
:1018D000BD4605B090BD000080B584B000AFF86093
:1018E000B9603B60FB1D1A70FB68BA681A63FB683D
:1018F000FA1D2F2112785A54FB683A689A63FB68E4
:101900001822BA18342112785A54FB680A4A1A6409
:10191000FB682D2200219954FB682E220021995446
:10192000FB683C2200219954FB683D220021995418
:10193000C046BD4604B080BD2823000890B585B0E0
:1019400000AF786008001100FB1C021C1A70BB1C61
:101950000A1C1A70BB1C1B782F2B03D9BB1C1B78CD
:10196000392B42D9BB1C1B78402B08D9BB1C1B78D8
:101970005A2B04D8BB1CBA1C127820321A700023D0
:10198000FB6027E0BB1C1B78602B17D9BB1C1B78A6
:101990007A2B13D8FB687A68D118BB1C1B78613B83
:1019A0001A00FB1C1C78134813005B009B181B19C2
:1019B0005B00C218FB68D3181B780B70BB1C1B782C
:1019C000202B04D1FB687A68D31800221A70FB68B8
:1019D0000133FB60FB68012BD4DD7B6802330022FE
:1019E0001A707B68033300221A70C046BD4605B0EA
:1019F00090BDC0460000002080B584B000AF786084
:101A000008001100BB1C021C1A807B1C0A1C1A70E7
:101A10007B681800FEF778FB02000E23FB181A8083
:101A20000E23FB181A88BB1C00215B5E013B9A4207
:101A30000FD00E23FB181B887A68D3187A1C1278F3
:101A40001A700E23FB181B8801337A68D318002202
:101A50001A70C046BD4604B080BD80B582B000AFEC
:101A600078607B6800221A70C046BD4602B080BD17
:101A700080B584B000AF78607B681800FEF744FB47
:101A800002000A23FB181A800E23FB1800221A807A
:101A90003FE00C23FB1800221A8026E00C23FB18E1
:101AA0001B887A68D2180923FB1812781A700C2345
:101AB000FB181B887A68D3180C22BA1812880132D6
:101AC00079688A1812781A700C23FB181B88013366
:101AD0007A68D3180922BA1812781A700C23FB18E6
:101AE0001A880C23FB1801321A800C23FB181A8861
:101AF0000A23FB181B88591E0E23FB181B88CB1AC0
:101B00009A42CBDB0E23FB181A880E23FB180132F6
:101B10001A800E23FB181A880A23FB181B88013B26
:101B20009A42B6DBC046BD4604B080BD80B588B0E1
:101B300000AF614B604A52698021C9030A435A6170
:101B40005D4B5A698023DB031340BB60BB685A4B73
:101B5000594A5269802189020A435A61564B5A698F
:101B600080239B0213407B607B68534B524A52692F
:101B70008021C9020A435A614F4B5A698023DB0214
:101B800013403B603B68DE23D9009023DB05002235
:101B90001800FEF744FE494B002202211800FEF710
:101BA0003EFE0C23FB1803221A600C23FB180022B4
:101BB0005A600C23FB1800229A600C23FB18404A41
:101BC00019001000FEF79AFC0C23FB1801221A6082
:101BD0000C23FB183B4A5A600C23FB1801229A6025
:101BE0000C23FA189023DB0511001800FEF786FC81
:101BF0000C23FB1802221A600C23FB1800225A60E7
:101C00000C23FB1801229A600C23FA189023DB05A1
:101C100011001800FEF772FC0C23FB180C221A604E
:101C20000C23FB1800225A600C23FB1800229A6038
:101C30000C23FA189023DB0511001800FEF75EFC58
:101C40000C23FB18DE22D2001A600C23FB180122A1
:101C50005A600C23FB1800229A600C23FB18002208
:101C6000DA600C23FA189023DB0511001800FEF748
:101C700045FC0C23FB1802221A600C23FB180122DE
:101C80005A600C23FB1800229A600C23FB180022D8
:101C9000DA600C23FB18094A19001000FEF72EFC2D
:101CA000002200210520FEF7CFFB0520FEF7E2FB16
:101CB000C046BD4608B080BD001002400004004888
:101CC000001400480000111080B500AF034B18004D
:101CD000FFF78EFBC046BD4680BDC046D800002041
:101CE00090B589B002AFFEF7A3FA00F041F9FFF713
:101CF0001DFF00F03DFA9023DA059023D9059448A2
:101D00004023009313001022FFF7AAFA914A902370
:101D1000D90591480223009313008022FFF7A0FA0F
:101D20009023DC0580239A009023D9058B488023DB
:101D3000DB0000932300FFF793FA9023DA0590234A
:101D4000D90587480123009313000222FFF7C4FD41
:101D5000844B04220021180000F0A0FA804B1800E8
:101D6000FFF738FD031EF9D09023DB050122202167
:101D70001800FEF754FD3220FEF7A0FA9023DB0591
:101D8000002220211800FEF74AFDFC1C744B1800AD
:101D9000FFF745FD03002370FB1C1B780D2B10D1B2
:101DA000714B01221A709023DB05012220211800BB
:101DB000FEF735FDC0466C4B1B78002B00D1C1E00F
:101DC00007E0FB1C1A78694B05211800FFF714FE89
:101DD000C4E7664B1800FFF74BFE644B1800FEF794
:101DE00093F902003B001A8000237B6192E07B693B
:101DF000012B42D13B001B88013B3B6139E07B69F1
:101E0000D9B25A4A3B69D3181A78564B1800FFF7D3
:101E100095FD0123FB601EE0524AFB68D3181B7836
:101E2000312B0DD196235A004C4B11001800FFF7AF
:101E300032FA96235A00494B11001800FFF758FA5E
:101E4000FB68002B04D0424B06211800FFF77EFAF6
:101E5000FB68013BFB60FB68002BDDDA3B69002B74
:101E600004D03B4B01211800FFF770FA3B69013B9E
:101E70003B613B69002BC2DA44E00023BB603CE0DD
:101E80007B69D9B2394ABB68D3181A78354B180028
:101E9000FFF754FD00237B601EE0324A7B68D318B5
:101EA0001B78312B0DD196235A002C4B11001800B2
:101EB000FFF7F1F996235A00284B11001800FFF79D
:101EC00017FA7B68012B04D0214B05211800FFF77E
:101ED0003DFA7B6801337B607B68012BDDDD3B00D5
:101EE0001B885A1EBB689A4204D0194B0021180067
:101EF000FFF72CFABB680133BB603B001A88BB6854
:101F00009A42BDDC144B07211800FFF71FFA7B69CA
:101F100001337B617B69022B00DC68E70E4B0421F7
:101F20001800FFF713FA0A4B00211800FFF70EFA0A
:101F30000D4B00221A709023DB050022202118008F
:101F4000FEF76DFC094B1800FFF787FD06E7C0465A
:101F50003401002000040048480100202401002032
:101F6000D800002044010020A80000201C0100200F
:101F700080B590B000AF1023FB1802221A60102326
:101F8000FB180122DA601023FB1810221A611023BB
:101F9000FB1800221A621023FB181800FEF782FCBF
:101FA000031E07D02023FF331A001C4B110018001A
:101FB00000F036F83B0007221A603B0000225A600E
:101FC0003B0000229A603B000022DA603B000021C7
:101FD0001800FEF75BFF031E06D096235A000F4B36
:101FE0001100180000F01CF8FFF796F80200FA2321
:101FF00099001000FEF790F803001800FEF74AFA67
:102000000420FEF755FA01235B420022002118004C
:10201000FEF71AFAC046BD4610B080BDE4220008A3
:1020200080B582B000AF78603960FEE780B582B0DD
:1020300000AF194B184A926901210A439A61164B65
:102040009B69012213407B607B68134B124AD26963
:10205000802149050A43DA610F4BDA6980235B0569
:1020600013403B603B6805235B42002200211800BF
:10207000FEF7EAF902235B42002200211800FEF776
:10208000E3F901235B42002200211800FEF7DCF98E
:10209000C046BD4602B080BD0010024080B500AF12
:1020A000C046BD4680BD80B500AFFEE780B500AF3D
:1020B000C046BD4680BD80B500AFC046BD4680BDB0
:1020C00080B500AFFEF7E4F8FEF70CFAC046BD4657
:1020D00080BD80B500AFFFF7F7FD0120FEF7BCFB28
:1020E000C046BD4680BD000080B500AF1A4B1A4AFD
:1020F000126801210A431A60174B174A52681749A0
:102100000A405A60144B144A126815490A401A6072
:10211000114B114A126813490A401A600E4B0E4ABD
:10212000526811490A405A600B4B0B4AD26A0F2180
:102130008A43DA62084B084A126B0C490A401A6358
:10214000054B054A526B01218A435A63024B002218
:102150009A60C046BD4680BD001002400CB8FF0822
:10216000FFFFF6FEFFFFFBFFFFFFC0FFECFEFFFFE0
:1021700080B500AF0F4B104A1A600E4B04225A6014
:102180000C4B00229A600B4BFF22DA60094B0022B5
:102190001A61084B00229A61064B1800FEF7C6FF31
:1021A000031E04D0054B3D211800FFF739FFC04640
:1021B000BD4680BD5801002000200040F4220008E8
:1021C00080B584B000AF78607B681B680A4A934290
:1021D0000DD10A4B094AD269802149000A43DA61CC
:1021E000064BDA6980235B001340FB60FB68C04646
:1021F000BD4604B080BDC046002000400010024033
:102200000D4885460D480E490E4A002302E0D45879
:10221000C4500433C4188C42F9D30B4A0B4C00232E
:1022200001E013600432A242FBD3FFF75DFF00F030
:1022300011F8FFF755FDFEE7001000200000002018
:10224000B000002024250008B000002098010020E4
:10225000FEE7000070B500260C4D0D4C641BA41069
:10226000A64209D1002600F021F80A4D0A4C641B51
:10227000A410A64205D170BDB300EB5898470136B3
:10228000EEE7B300EB5898470136F2E71C2500084B
:102290001C2500081C2500082025000803008218C2
:1022A000934200D1704719700133F9E7F8B5C04681
:1022B000F8BC08BC9E467047F8B5C046F8BC08BCE0
:0422C0009E4670477F
:1022C40002030405060708090A0B0C0D0E0F101073
:1022D4000102030405060708090A0B0C0D0E0F1072
:1022E4002E2E2F5372632F6D61696E2E63000000D2
:1022F4002E2E2F5372632F74696D2E63000000001D
:102304006C1300087A130008DE1300089613000803
:1023140088130008A4130008B2130008C0130008AF
:10232400CE130008000000000000000000000000C0
:1023340000096000000000000071310000007A73A1
:102344006177320000637864653433000020766678
:1023540074723500006E62686779360000006D6A39
:1023640075373800002C6B696F303900002E2F6CE4
:102374003B702D00000027005B3D000000000D5D58
:10238400005C00000000000000007F000031003409
:1023940037000000302E323536381B00002B332D29
:1023A4002A390000000000000000000000000000C6
:1023B4000000000000000000000000000000000019
:1023C4000000000000000000000000000000000009
:1023D40000000000000000000000000000000000F9
:1023E40000000000000000000000000000000000E9
:1023F40000000000000000000000000000000000D9
:1024040000000000000000000000000000000000C8
:1024140000000000000000000000000000000000B8
:1024240000000000000000000000000000000000A8
:1024340000000000000000001E1700089C170008A0
:102444009C1700089C1700089C1700089C1700089C
:102454009C1700089C1700089C1700089C1700088C
:102464009C1700089C1700089C1700089C1700087C
:102474009C1700089C170008281700089C170008E0
:102484009C1700089C1700089C1700089C1700085C
:102494009C1700089C1700089C1700089C1700084C
:1024A4009C1700089C1700089C1700089C1700083C
:1024B4009C170008E21600089C1700080017000883
:1024C400C41600089C1700089C1700089C170008F5
:1024D400BA160008D81600080A1700089C17000846
:1024E40014170008F61600089C1700089C1700082B
:1024F4009C1700089C170008EC1600089C1700089D
:102504009C170008CE160008000000000000000020
:08251400010203040607080997
:04251C00E9000008CA
:04252000C1000008EE
:1025240030313030303030313031303031313030A2
:102534003030313131303030303131303030313190
:10254400303130303131313130303031313130307F
:102554003130303130303130313130303031303071
:10256400303130313031303131313030303131315E
:10257400313030313031313030313131303130314E
:10258400313131313031303131313031313030313C
:10259400303131303131303130313030313130312E
:1025A400303131313130313131303131303031311C
:1025B400313131303131303131303131303030300E
:1025C40030300000000000000100000000127A001A
:0400000508002201CC
:00000001FF
