:020000040800F2
:1000000000100020990E0008150E0008170E0008B9
:1000100000000000000000000000000000000000E0
:10002000000000000000000000000000190E0008A1
:1000300000000000000000001B0E00081D0E00085C
:10004000E90E000800000000E90E0008E90E0008B3
:10005000E90E0008290E0008E90E0008E90E000864
:1000600000000000E90E0008E90E0008E90E000893
:10007000E90E0008E90E0008E90E00080000000083
:10008000E90E00080000000000000000E90E000872
:1000900000000000E90E0008E90E0008E90E000863
:1000A00000000000E90E000800000000E90E000852
:1000B0000000000000000000000000000000000040
:1000C00010B5064C2378002B07D1054B002B02D02E
:1000D000044800E000BF0123237010BD040000208D
:1000E000000000004C0F0008044B10B5002B03D09B
:1000F0000349044800E000BF10BDC04600000000F6
:10010000080000204C0F0008002243088B4274D3E3
:1001100003098B425FD3030A8B4244D3030B8B4208
:1001200028D3030C8B420DD3FF22090212BA030C11
:100130008B4202D31212090265D0030B8B4219D3F2
:1001400000E0090AC30B8B4201D3CB03C01A524112
:10015000830B8B4201D38B03C01A5241430B8B425A
:1001600001D34B03C01A5241030B8B4201D30B0343
:10017000C01A5241C30A8B4201D3CB02C01A52416A
:10018000830A8B4201D38B02C01A5241430A8B422D
:1001900001D34B02C01A5241030A8B4201D30B0216
:1001A000C01A5241CDD2C3098B4201D3CB01C01A30
:1001B000524183098B4201D38B01C01A524143093A
:1001C0008B4201D34B01C01A524103098B4201D328
:1001D0000B01C01A5241C3088B4201D3CB00C01A95
:1001E000524183088B4201D38B00C01A524143080D
:1001F0008B4201D34B00C01A5241411A00D2014632
:10020000524110467047FFE701B5002000F006F8A4
:1002100002BDC0460029F7D076E770477047C04658
:1002200010B5040000F016FCFA218900FFF76CFFFE
:1002300000F060F8012000222100404200F020F888
:10024000002010BD1021064A10B5136800200B4392
:100250001360FFF7E5FF00F0B5FD002010BDC046BC
:1002600000200240024A1368013313607047C04601
:1002700028000020014B18687047C0462800002065
:1002800070B58901002814DA0F23C0B20340083B7F
:10029000114A9B0803249B009B18FF222040A0408A
:1002A00014000A4084408240DD69A5432A43DA6194
:1002B00011E08208094B03259200D218FF23284041
:1002C000A8401D00C02485400B408340A40016595F
:1002D000AE433343135170BD00ED00E000E100E098
:1002E0001F2318401E3B8340014A13607047C046DD
:1002F00000E100E0094A431E012093420DD8C020CE
:10030000074A084953600B6A00061B021B0A034395
:100310000B6200200723906013607047FFFFFF000F
:1003200010E000E000ED00E0054B1A68042802D15F
:100330001043186002E004218A431A607047C046E7
:1003400010E000E0704710B5FFF7FCFF10BD0000A3
:10035000F0B50B6887B0029300230191029ADA404E
:1003600000D195E001229A4003920399029A0A4033
:10037000009200D18AE0019A1021526816008E4343
:10038000022E0ED107251D40AD000139A940DC0821
:10039000A4000419276A8F4301990969A9400F43F2
:1003A000276203245F00BC400321E4431140B940AD
:1003B0000568013E25400D430560012E0FD80199C7
:1003C0008568CE682540BE40354385604568039901
:1003D00016098D4301210E409E4035434560C56896
:1003E00001992C408D688021BD4049052C43C46093
:1003F0000A424BD00121274C0327A5691F400D431A
:10040000A561A4699D080C400594059C0F24224910
:10041000AD00BF006D18BC409021AE68C905A64371
:10042000002488420CD01D490134884208D01C4960
:100430000134884204D01B490334884200D1023C75
:10044000BC40009934430E00AC60174CCD43276884
:100450003E43D10301D43E002E4026606768009ED3
:100460003E43910301D43E002E406660A768009E83
:100470003E43D10201D43E002E40A660E668009FB4
:100480003743920201D42E403700E760013365E71D
:1004900007B0F0BD00100240000001400004004819
:1004A00000080048000C00480004014000690840B2
:1004B000411E8841C0B27047002A01D0816100E02E
:1004C000816270474369594041617047704700003D
:1004D000044B10B55A69104202D05861FFF7F6FF7D
:1004E00010BDC04600040140F0B5036885B00500AA
:1004F000DB0703D42B689B0754D49AE00C23B74C3A
:1005000062681A40042A06D062681340082B0AD198
:100510006368DB0307D523689B03EBD56B68002B6F
:10052000E8D10120C3E16B68012B16D0002B0DD15F
:100530002268AB4B8026134023602268A94BB60289
:1005400013402360FFF796FE070027E0052B09D133
:1005500080222368D2021343236080222368520240
:10056000134306E022689E4B1340236022689D4B94
:1005700013402360FFF77EFE80260700B602236843
:100580003342B7D1FFF776FEC01B6428F7D90320AA
:100590008DE1FFF76FFEC01B6428F8D82368334253
:1005A000F7D1A7E70C238D4C62681A4206D0626827
:1005B0001340082B10D16368DB030DD423689B071D
:1005C00002D5EB68012BACD1F82123682A698B4353
:1005D000D200134323602CE0EB680122002B18D0DB
:1005E0002368022613432360FFF744FE07002368B5
:1005F0007A49334205D1FFF73DFEC01B0228F6D9E8
:10060000C5E7F8200B682A698343D20013430B60C7
:100610000FE02368022693432360FFF72BFE0700B9
:100620002368334205D0FFF725FEC01B0228F7D907
:10063000ADE72B681B0703D42B685B0725D483E049
:10064000EB690122654C002B0FD0636A022613432D
:100650006362FFF70FFE0700636A3342ECD1FFF7D6
:1006600009FEC01B0228F7D991E7636A022693436B
:100670006362FFF7FFFD0700636A3342DCD0FFF7D8
:10068000F9FDC01B0228F7D981E780230021534CD4
:100690005B05E26900911A4208D1E2691A43E261FE
:1006A000E26913400393039B0123009380274E4E7E
:1006B0007F0033683B4205D0AB68012B12D1226A20
:1006C00013432EE033683B433360FFF7D3FD0190C3
:1006D00033683B42F0D1FFF7CDFD019BC01A64287F
:1006E000F6D954E70122002B0BD1236A022793434A
:1006F0002362236A033293432362FFF7BBFD0600A4
:1007000018E0052B07D10421236A0B432362236AD7
:100710001A432262BCE0236A934304222362236AC1
:1007200093432362B4E0FFF7A5FD304B801B984252
:1007300000D92CE7236A3B42F5D1009B012B03D162
:10074000E2692B4B1340E3612B68DB0641D56A69F4
:10075000224C0423012A1BD1616B02260B436363E5
:10076000636B1A436263FFF785FD0700636B1B49E8
:10077000334205D1FFF77EFDC01B0228F6D906E7FC
:10078000F8204B6BAA698343D20013434B6320E0EC
:1007900005320AD1F821626B9A436263636BAA69DE
:1007A0008B43D2001343636313E0626B022613434F
:1007B00001226363636B93436363FFF75BFD070091
:1007C000636B334205D0FFF755FDC01B0228F7D9F4
:1007D000DDE62A6A002A0DD1002068E00010024000
:1007E000FFFFFEFFFFFFFBFF0070004088130000CB
:1007F000FFFFFFEF0C232F4C012061680B40082BFB
:1008000055D02D4B022A32D1226880261340236016
:10081000FFF730FD0700B6042268264B324205D0B0
:10082000FFF728FDC01B0228F6D9B0E60F21DA6ACF
:100830008A43E96A0A43DA62696AA86A5A6808431D
:100840001E4980250A40802102435A601A684904E3
:100850000A431A60FFF70EFD0600AD0423682B4221
:10086000BAD1FFF707FD801B0228F7D98FE622686F
:10087000802513402360FFF7FDFC0600AD042368CC
:100880002B42A9D0FFF7F6FC801B0228F7D97EE6A1
:10089000FFF7F0FC02270600236A3B4200D04CE73A
:1008A000FFF7E8FC064B801B9842F5D96FE605B0D0
:1008B000F0BDC04600100240FFFFFFFEFFFFC2FF79
:1008C0008813000030B5144C89B01022210068460E
:1008D00000F032FB210004AD10221031280000F09E
:1008E0002BFB0C230D4842681340082B10D16C469B
:1008F0000733910C1940645CC16A0B40E95CD30377
:1009000003D50748FFF700FC00E00648604300E01D
:10091000034809B030BDC046640F00080010024013
:1009200000127A0000093D000123F7B5434D06008F
:100930002A680F001A408A420AD33268930711D5F9
:10094000F0203F494B688343B06803434B6009E0A4
:100950002A689A430A432A602A6813409942ECD0D5
:10096000012069E0D30706D401232968334A1940DE
:100970008F4243D348E0324C73682268012B02D186
:10098000920307D4ECE7022B02D1920102D4E7E7ED
:100990009207E5D5032162688A4313436360FFF73A
:1009A00069FC73680190012B0DD10C226368134020
:1009B000042BD9D0FFF75EFC019BC01A214B984253
:1009C000F3D9032038E0022B13D10C2263681340C3
:1009D000082BC9D0FFF74EFC019BC01A194B984257
:1009E000F3D9EEE7FFF746FC019BC01A154B98427E
:1009F000E7D80C2263681342F4D1B5E71168994334
:100A0000116012681A42ABD133680D4C5B0705D5F3
:100A100062680D4B1340F26813436360FFF752FFA7
:100A200063680A4A1B061B0FD35CD840084B18604A
:100A30000020FFF7F5FB0020FEBDC046002002406D
:100A40000010024088130000FFF8FFFF5411000857
:100A500000000020014B18687047C04600000020CD
:100A6000F7B50027022510263D4C237801942E224D
:100A7000944684446246117802002D321278C9B23D
:100A800091420AD00131C9B22C2900D90021644613
:100A9000425C2170D2B2002A05D1002F01D0019A08
:100AA000137000205AE0F02A01D1EF3A1BE0E02A4F
:100AB00002D12B430127DAE701210B4210D0122A81
:100AC00001D10E3A02E0592A02D1513A934304E08F
:100AD000112A02D12B4200D0B34303229343E9E70A
:100AE000122A02D10E3A1343E4E7592A01D1513AAE
:100AF000F9E7112A02D12B4200D0334319002940D3
:100B000006D04A3AD2B20021332A20D815491DE036
:100B100033420DD0FC24A446076CBC44644664698F
:100B2000002C05D0872A12D8BA18FF32517D0EE06A
:100B30000C21194007D00021872A08D8016C8A1897
:100B40008832117803E0872A01D8016C895C03227E
:100B500093430029AED00800019A1370FEBDC04631
:100B60002600002020110008030070B52F331978EB
:100B70000400006BFFF79AFC0500FFF77BFB1D4BA1
:100B80001A68811A1C4AFA2903D900211B4E1170D8
:100B9000317018601378591EC9B2072904D88D40E6
:100BA000164801780D4305700133DBB213700B2B2F
:100BB00013D120002D3003780133DBB22C2B00D968
:100BC000002321002E310D780C49AB4202D00D7864
:100BD000E5540370002313700B7090200122102144
:100BE000C005FFF769FC902000221021C005FFF727
:100BF00063FC70BD200000202500002024000020A0
:100C000010B5838F04000120002B07D12000FFF7CF
:100C100027FF3C342070431E9841C0B210BD10B570
:100C200004003D342378002B02D0002222701DE006
:100C300001003C310A78002A01D00B7002E0FFF776
:100C40000FFF020051B200290BDA3F230B40802135
:100C500049420B432370402390095B420343DBB2BC
:100C600004E0FF20002A02D0100000E0180010BDB0
:100C700010B5016301002F310A708363030002ACD9
:100C8000247834331C70054B0200036400232D329A
:100C90003D301370D3735370037010BD840F000880
:100CA00010B50248FFF760FF10BDC0462C000020C1
:100CB000022310B590B00493013B07930F330893C0
:100CC000002304A80C93FFF70FFC011E00D0FEE7E1
:100CD000072301900290039068460093FFF724FEDB
:100CE000041E00D0FEE7FFF7B5FEFA218900FFF7EA
:100CF0000BFAFFF7FFFA0420FFF716FB0120220092
:100D000021004042FFF7BCFA10B010BD70B588B0AA
:100D1000FFF798FAFFF7CCFF80239020264A9B022A
:100D20005169C00519435161526910211340029362
:100D30000022029BFFF7C0FB902001251F4B03A957
:100D4000C005049303950595FFF702FB902000244E
:100D5000022603A9C005049403960595FFF7F8FA47
:100D60009020102303A9C0050393059406940495CD
:100D7000FFF7EEFA220021000520FFF781FA052097
:100D8000FFF7AEFA90230E4CDB05009532001900F8
:100D90002000FFF76DFF2000FFF732FF0028FAD098
:100DA0002000FFF73CFF6028F5D990201021C005F6
:100DB000FFF788FBEFE7C04600100240000011106B
:100DC0002C00002007B50122114B052099694042F3
:100DD0001143996199690A400092009A8022D96969
:100DE00052051143D961DB691A40019200221100BA
:100DF000019BFFF745FA0022022011004042FFF755
:100E00003FFA0022012011004042FFF739FA07BDE6
:100E1000001002407047FEE77047704710B5FFF7BB
:100E200021FAFFF790FA10BD10B5FFF739FF012046
:100E3000FFF74EFB10BD00000121114B1A680A4359
:100E40001A6058680F4A02405A6018680E4A0240F9
:100E50001A6018680D4A02401A6058680C4A02402D
:100E60000F205A60DA6A8243DA62186B094A02403C
:100E70001A635A6B8A435A6300229A607047C046CD
:100E8000001002400CB8FF08FFFFF6FEFFFFFBFF5B
:100E9000FFFFC0FFECFEFFFF0D4885460D480E49E1
:100EA0000E4A002302E0D458C4500433C4188C42C4
:100EB000F9D30B4A0B4C002301E013600432A24229
:100EC000FBD3FFF7B9FF00F011F8FFF71FFFFEE7B4
:100ED0000010002000000020040000206C11000819
:100EE0000400002070000020FEE700000E4B70B5EB
:100EF00000251E000D4CE41AA410A54204D0AB003E
:100F0000F35898470135F8E700F020F8084B002522
:100F10001E00084CE41AA410A54204D0AB00F358FC
:100F200098470135F8E770BD6411000864110008A6
:100F30006411000868110008002310B59A4203D01C
:100F4000CC5CC4540133F9E710BD0000F8B5C046CD
:100F5000F8BC08BC9E467047F8B5C046F8BC08BC53
:040F60009E467047F2
:100F640002030405060708090A0B0C0D0E0F1010E6
:100F74000102030405060708090A0B0C0D0E0F10E5
:100F840000000000000000000000000000096000F4
:100F9400000000000071310000007A7361773200B4
:100FA400006378646534330000207666747235001B
:100FB400006E62686779360000006D6A7537380024
:100FC400002C6B696F303900002E2F6C3B702D00A4
:100FD400000027005B3D000000000D5D005C000088
:100FE4000000000000007F000031003437000000E2
:100FF400302E323536381B00002B332D2A390000B1
:1010040000000000000000000000000000000000DC
:101014000000000000097E000000000000512100D3
:1010240000005A53415740000043584445242300CC
:101034000020564654522500004E424847595E004F
:1010440000004D4A55262A00003C4B494F292800F0
:10105400003E3F4C3A505F00000022007B2B000012
:1010640000000D7D007C00000000000000007F00F7
:101074000031003437000000302E323536381B0082
:10108400002B332D2A39000000000000000000006E
:10109400000000000000000000000000000000004C
:1010A400000000000000000000000000000000003C
:1010B400000000000000000000000000000000002C
:1010C400000000000000000000000000000000001C
:1010D400000000000000000000000000000000000C
:1010E40000000000000000000000000000000000FC
:1010F40000000000000000000000000000000000EC
:1011040000000000000000000000000000000000DB
:101114000000000000000000000000002F0000009C
:101124000000000000000000000000000D000000AE
:1011340000000000000000000000000000080000A3
:101144000000007F0A00150B000000001A000019BF
:101154000000000000000000010203040607080963
:04116400E900000896
:04116800C1000008BA
:04116C0000127A00F3
:0400000508000E9948
:00000001FF
