:020000040800F2
:10000000000001205D190008C5180008C718000885
:10001000C9180008CB180008CD180008000000001F
:10002000000000000000000000000000CF180008E1
:10003000D118000800000000D3180008D5180008E7
:10004000AD190008AD190008AD190008AD19000878
:10005000AD190008AD190008E3180008AD19000833
:10006000AD190008AD190008AD190008AD19000858
:10007000AD190008AD190008AD190008AD19000848
:10008000AD190008AD190008AD190008AD19000838
:10009000AD190008AD190008AD190008AD19000828
:1000A000AD190008AD190008AD190008AD19000818
:1000B000AD190008AD190008AD190008AD19000808
:1000C000AD190008AD190008AD190008AD190008F8
:1000D000AD190008AD190008AD190008AD190008E8
:1000E000AD190008AD190008AD190008AD190008D8
:1000F000AD190008AD190008AD190008AD190008C8
:10010000AD1900080000000000000000AD19000853
:10011000AD190008AD190008AD190008AD190008A7
:10012000AD190008AD190008AD190008AD19000897
:10013000AD190008AD190008000000000000000023
:10014000AD190008AD190008AD1900080000000045
:10015000000000000000000000000000000000009F
:10016000AD190008AD190008AD190008AD19000857
:10017000AD190008AD190008AD190008AD19000847
:10018000AD190008AD1900080000000000000000D3
:04019000AD1900089D
:1001A00010B5054C237833B9044B13B10448AFF3B1
:1001B00000800123237010BD7400002000000000A7
:1001C0005C22000808B5034B1BB103490348AFF399
:1001D000008008BD00000000780000205C220008BC
:1001E000034613F8012B002AFBD1181A0138704777
:1001F00001F0FF01102A2BDB10F0070F08D010F8D8
:10020000013B013A8B422DD010F0070F42B3F6D1DB
:10021000F0B441EA012141EA014122F007047FF0F4
:1002200000070023F0E80256083C85EA010586EA4B
:10023000010685FA47F5A3FA87F586FA47F6A5FA87
:1002400087F68EB9EED1F0BC01F0FF0102F0070293
:1002500032B110F8013B013A83EA010313B1F8D13E
:100260000020704701387047002D06BF354603381F
:10027000073815F0010F07D1013015F4807F02BF58
:10028000013015F4C03F0130F0BC0138704700BFA9
:1002900038B50E4A0E4B054618784FF47A73B3FB07
:1002A000F0F31068B0FBF3F000F0A0F8044658B982
:1002B0000F2D09D8024629464FF0FF3000F056F8BE
:1002C000044B20461D6038BD012038BD0C000020C5
:1002D0000000002004000020074A08B5136843F01E
:1002E00010031360032000F02FF80020FFF7D0FF69
:1002F00001F07EFA002008BD00200240034A044BB2
:1003000011681B780B441360704700BFA8000020E1
:1003100000000020014B1868704700BFA8000020B3
:1003200038B50446FFF7F6FF631C1CBF054B1B786E
:10033000054618BFE418FFF7EDFF401B8442FAD8CA
:1003400038BD00BF00000020074AD36823F4E063F3
:100350001B041B0C43F0BF63000243F4003300F4A2
:10036000E0600343D360704700ED00E0174B30B509
:10037000DC68C4F30224C4F10703251D042B28BF45
:100380000423062D4FF0010505FA03F303F1FF33B3
:100390008CBF033C00241940A14005FA04F4013C41
:1003A0002240002842EA01024FEA0212AFBF00F1E8
:1003B000604000F00F00064BD2B2A5BF00F56140CF
:1003C000D2B21A5480F8002330BD00BF00ED00E027
:1003D00014ED00E04209012300F01F0003FA00F0D1
:1003E000014B43F82200704700E100E00138B0F112
:1003F000807F0AD2064B074A5860F02182F823100A
:100400000020072298601A6070470120704700BFE3
:1004100010E000E000ED00E0044B1A6804280CBF77
:1004200042F0040222F004021A60704710E000E07B
:10043000704708B5FFF7FCFF08BD00002DE9F74F36
:10044000D1F80080DFF89091614A002338FA03F474
:1004500002D103B0BDE8F08F4FF0010E0EFA03FE9B
:1004600018EA0E0600F0A6804C6824F01007022F50
:1004700016D14FEAD30A00EB8A0A03F0070BDAF829
:1004800020504FEA8B0B4FF00F0C0CFA0BFC25EAB7
:100490000C0C0D6905FA0BF545EA0C05CAF820505D
:1004A0004FEA430A0325D0F800B005FA0AF5ED43F8
:1004B00004F0030C0BEA050B0CFA0AFC013F4CEAB2
:1004C0000B0C012FC0F800C011D8876807EA050B94
:1004D000CF6807FA0AFC4CEA0B078760476827EAEF
:1004E0000E0EC4F300179F4047EA0E074760C76827
:1004F0003D408F6807FA0AF73D43C560E50059D5CE
:10050000D9F8185045F00105C9F81850D9F8185015
:1005100023F0030707F1804705F0010507F5803751
:10052000019503F0030C019DBD684FEA8C0C4FF060
:100530000F0E0EFA0CFEB0F1904F25EA0E0E3BD0D6
:10054000244DA8423AD005F58065A84238D005F57B
:100550008065A84236D005F58065A84234D005F5FF
:100560008065A84232D005F58065A84214BF0725F2
:10057000062505FA0CF545EA0E05BD601568F7433A
:1005800014F4803F0CBF3D4035431560556814F4AA
:10059000003F0CBF3D4035435560956814F4801F03
:1005A0000CBF3D4035439560D568A40254BF3D4023
:1005B0003543D560013349E70025DAE70125D8E75F
:1005C0000225D6E70325D4E70425D2E70525D0E7A1
:1005D0000004014000040048001002400369194271
:1005E00014BF0120002070470AB181617047816209
:1005F0007047704708B5044B5969014202D05861F1
:10060000FFF7F7FF08BD00BF000401402DE9F347E5
:10061000054618B9012002B0BDE8F0870368DF077E
:1006200011D42B689E0700F188802B681C0700F10D
:10063000FC802B68580700F14581AA69002A40F028
:10064000DC810020E7E7BD4C636803F00C03042B5A
:100650000AD0636803F00C03082B19D1636803F414
:10066000C033B3F5803F13D14FF4003393FAA3F2B4
:10067000216893FAA3F3B3FA83F303F01F03012273
:1006800002FA03F30B42CCD06B68002BC9D1C1E74F
:100690006B68B3F5803F1ED1236843F48033236039
:1006A000FFF738FE4FF400368046012796FAA6F38E
:1006B000226896FAA6F3B3FA83F303F01F0307FA4E
:1006C00003F31342ADD1FFF725FEA0EB0800642829
:1006D000ECD903209FE70BBB236823F4803323600E
:1006E000236823F480232360FFF714FE4FF40036C1
:1006F0008046012796FAA6F3226896FAA6F3B3FA83
:1007000083F303F01F0307FA03F3134289D0FFF7C3
:1007100001FEA0EB08006428ECD9DAE7B3F5A02FBE
:10072000236803D143F480232360B5E723F48033A7
:100730002360236823F48023B1E7804C636813F0BF
:100740000C0F0AD0636803F00C03082B25D16368F3
:1007500003F4C033B3F5004F1FD1022393FAA3F281
:10076000216893FAA3F3B3FA83F303F01F03012282
:1007700002FA03F30B4203D0EB6893427FF44AAFD3
:100780002168F82393FAA3F3B3FA83F22B69934019
:1007900021F0F8021343236047E7EA6801260AB311
:1007A00096FAA6F3B3FA83F303F1845303F58413A3
:1007B0009B0002271E60FFF7ADFD804697FAA7F366
:1007C000226897FAA7F3B3FA83F303F01F0306FA3C
:1007D00003F31342D4D1FFF79DFDA0EB08000228DC
:1007E000ECD976E796FAA6F3B3FA83F303F18453D0
:1007F00003F584139B0002271A60FFF78BFD8046E8
:1008000097FAA7F3226897FAA7F3B3FA83F303F0F2
:100810001F0306FA03F313423FF407AFFFF77AFD15
:10082000A0EB08000228EBD953E76A69434E44491C
:1008300001241AB394FAA4F3B3FA83F30B449B0094
:1008400002271C60FFF766FD804697FAA7F397FA28
:10085000A7F397FAA7F3726A97FAA7F3B3FA83F3A9
:1008600003F01F0304FA03F313427FF4E2AEFFF731
:1008700051FDA0EB08000228E7D92AE794FAA4F377
:10088000B3FA83F30B449B0002271A60FFF742FD83
:10089000804697FAA7F397FAA7F397FAA7F3726A35
:1008A00097FAA7F3B3FA83F303F01F0304FA03F3F1
:1008B00013423FF4BEAEFFF72DFDA0EB0800022867
:1008C000E7D906E71D4CE369D90034D4E36943F066
:1008D0008053E361E36903F080530193019B012698
:1008E000184F3B68DA052FD5AB68012B3DD1236A41
:1008F00043F001032362FFF70DFD02278246B9464C
:100900004FF0010897FAA7F397FAA7F3002B6CD0E2
:10091000226A99FAA9F3B3FA83F303F01F0308FAE2
:1009200003F3134258D0002E3FF487AEE36923F05F
:100930008053E36181E60026D2E700BF0010024049
:1009400020819010007000403B6843F480733B604E
:10095000FFF7E0FC80463B68DB05C5D4FFF7DAFC17
:10096000A0EB08006428F6D9B3E63BBB236A23F06A
:1009700001032362236A23F004032362FFF7CAFC06
:1009800002278246B9464FF0010897FAA7F397FA73
:10099000A7F373B3226A99FAA9F3B3FA83F303F0C6
:1009A0001F0308FA03F31342BDD0FFF7B3FC41F273
:1009B0008833A0EB0A009842E7D98AE6052B236A20
:1009C00003D143F00403236291E723F00103236280
:1009D000236A23F004038DE7FFF79CFC41F2883380
:1009E000A0EB0A0098428DD973E697FAA7F3626AE2
:1009F0008FE797FAA7F3626ACDE7444C636803F088
:100A00000C03082B3FF406AE022A4FF0807358D136
:100A100093FAA3F3B3FA83F303F1845303F5841336
:100A20009B0000221A60FFF775FC4FF000778046AC
:100A3000012697FAA7F3226897FAA7F3B3FA83F38C
:100A400003F01F0306FA03F3134233D1E36A6A6A21
:100A500023F00F031343E36262682B6AE96922F40F
:100A600076120B43134363604FF0807393FAA3F342
:100A7000B3FA83F303F1845303F584139B004FF01F
:100A800000751E60FFF746FC0126074695FAA5F3A0
:100A9000226895FAA5F3B3FA83F303F01F0306FA6D
:100AA00003F313427FF4CDADFFF734FCC01B0228E3
:100AB000ECD90EE6FFF72EFCA0EB08000228B8D90F
:100AC00007E693FAA3F3B3FA83F303F1845303F530
:100AD00084139B0000221A60FFF71CFC4FF0007586
:100AE0000746012695FAA5F3226895FAA5F3B3FA0D
:100AF00083F303F01F0306FA03F313423FF4A1AD9F
:100B0000FFF708FCC01B0228ECD9E2E50010024008
:100B100011494B6803F00C02082A1AD14FF47012E5
:100B200092FAA2F20F20B2FA82F2C96A90FAA0F009
:100B3000B0FA80F001F00F0103F47013D340C1400C
:100B4000064A0748415C0748B0FBF1F1D05C4843D6
:100B500070470448704700BF00100240742200082C
:100B60008422000800127A002DE9F0410D46044667
:100B700010B90120BDE8F0814C4A136803F0070367
:100B80008B422ED32268910736D4D2073CD4474AF1
:100B9000136803F007039D4275D32268444D12F099
:100BA000040F7CD1130706D56B68226923F46053C8
:100BB00043EAC2036B60FFF7ABFF6B68F02292FA67
:100BC000A2F2B2FA82F203F0F003D340394AD35CC6
:100BD000D840394B18600020FFF75AFB0020BDE8D1
:100BE000F081136823F007030B431360136803F0CD
:100BF00007039942BDD1C5E72D49A0684B6823F092
:100C0000F00303434B60C0E76268294E012A27D1F5
:100C10004FF4003393FAA3F1316893FAA3F3B3FAD4
:100C200083F303F01F0302FA03F30B42A1D07368AE
:100C300023F003031A437260FFF76CFB41F288381C
:100C400007467368626803F00C03B3EB820F9ED013
:100C5000FFF760FBC01B4045F3D90320BDE8F081DE
:100C6000022A0CBF4FF00073022393FAA3F13068FD
:100C700093FAA3F3B3FA83F303F01F03012101FAFC
:100C800003F30342D2E7136823F007032B431360F7
:100C9000136803F007039D427FF46BAF7DE76B6839
:100CA000E16823F4E0630B436B607BE700200240C4
:100CB00000100240032300080C000020014B1868BC
:100CC000704700BF0C000020084B4FF4E0625B68E7
:100CD00092FAA2F2B2FA82F203F4E063D340044A39
:100CE000D35C044A1068D840704700BF001002402F
:100CF000132300080C000020084B4FF460525B687F
:100D000092FAA2F2B2FA82F203F46053D340044A98
:100D1000D35C044A1068D840704700BF00100240FE
:100D2000132300080C00002003682DE9F347DF03BC
:100D3000044623D59B4DEB69DE0000F1D780EB69BB
:100D400043F08053EB61EB6903F080530193019B07
:100D50000126954F3B68D80540F1CA802B6A13F4F1
:100D6000407340F0DA802B6A626823F440731343C7
:100D70002B621EB1EB6923F08053EB612068C3073F
:100D800006D5884AA168136B23F003030B43136352
:100D9000870706D5834AE168136B23F440330B437E
:100DA0001363460706D57F4A2169136B23F440235A
:100DB0000B431363850606D57A4AE169136B23F06A
:100DC00010030B431363810306D5764A616D5368A4
:100DD00023F480030B435360420606D5714A216A0F
:100DE000136B23F020030B431363430306D56D4AB3
:100DF000616A136B23F040030B431363070706D5A7
:100E0000684A6169136B23F440130B431363C606EE
:100E100006D5644AA169136B23F440030B431363A3
:100E2000850506D55F4A216B536823F400030B4305
:100E30005360010606D55B4AA16AD36A23F4F873AE
:100E40000B43D362C20506D5564AE16AD36A23F43E
:100E500078530B43D362C30406D5524A616B136BBC
:100E600023F480730B431363870406D54D4A216C2A
:100E7000136B23F400730B431363C60206D5494A70
:100E8000A16B136B23F080730B431363850206D5AC
:100E9000444AE16B136B23F000730B43136341026D
:100EA00006D5404A616C136B23F480630B431363D4
:100EB000020206D53B4AA16C136B23F400630B437B
:100EC0001363C30106D5374AE16C136B23F4005357
:100ED0000B43136310F000701CD0324A216D136B6A
:100EE00023F400430B431363002013E0002630E794
:100EF0003B6843F480733B60FFF70CFA80463B6825
:100F0000D9053FF52BAFFFF705FAA0EB08006428E1
:100F1000F5D9032002B0BDE8F087626802F44072A0
:100F200093423FF420AF296A4FF4803321F440709C
:100F300093FAA3F2DFF874E0B2FA82F272449200FC
:100F40000127176093FAA3F3B3FA83F373449B006A
:100F500000221A60CA0728627FF505AFFFF7DAF9A9
:100F60004FF002088246C14698FAA8F398FAA8F30F
:100F7000A3B12A6A99FAA9F3B3FA83F303F01F0322
:100F800007FA03F313427FF4EEAEFFF7C3F941F221
:100F90008833A0EB0A009842E6D9BAE798FAA8F39A
:100FA0006A6AE7E70010024000700040008190107C
:100FB00038B5044605682169A268C36928680A43F0
:100FC00061690A4377491A4301400A432A606A6803
:100FD000E168206A22F440520A436A60A968A26963
:100FE00021F4306102430A43AA606F4A954212D14C
:100FF00002F558426D49126B02F00302B3F5004F3F
:101000008A5C66D0082A19D8DFE802F0C2929E18DE
:10101000A9181818AC00664A954224D102F5E632A8
:10102000126B02F44032B2F5803F00F0A08007D886
:10103000002A00F0AA80B3F5004F76D0012038BD19
:10104000B2F5003F00F09980B2F5403FF3D1B3F51F
:10105000004F79D16068430803F5740303F510531A
:10106000B3FBF0F354E0534A95420ED102F5E4325B
:10107000126B02F44022B2F5802F78D0D8D9B2F5A5
:10108000002F7AD0B2F5402FE0E74B4A95420ED1BF
:1010900002F5E232126B02F44012B2F5801F66D004
:1010A000C6D9B2F5001F68D0B2F5401FCEE7434A5B
:1010B0009542C0D102F5E032126B02F44002B2F563
:1010C000800F54D0B4D9B2F5000F56D0B2F5400F0E
:1010D000BCE7082A29D801A353F822F0011100081F
:1010E00025110008551000082B1100087511000883
:1010F0002B1100082B1100082B110008811100088A
:10110000FFF7E2FD61684A0802EB4003B3FBF1F32D
:101110009BB2002023F00F022168C3F34203134364
:10112000CB6038BDFFF7E8FDECE701200023F1E7D5
:10113000FFF7E2FD636800EB5300B0FBF3F01A4BDE
:1011400080B2D860002038BD6268530803F5F4030C
:1011500003F59053B3FBF2F39BB2EB60F2E7FFF7BA
:10116000D7FC17E06268530803F50043F2E7B3F5D4
:10117000004FF4D1FFF7CCFCC4E7B3F5004FF1D139
:101180006068430803F580336AE7B3F5004FB7D0D2
:10119000FFF79AFD636800EB5300B0FBF3F080B2F9
:1011A000E860CFE7F369FFEF0038014094220008C0
:1011B0000044004000480040004C00400050004007
:1011C000436ADA0710B506D50168846A4A6822F4D2
:1011D000003222434A609C0706D50168C46A4A6807
:1011E00022F4803222434A60590706D50168046B15
:1011F0004A6822F4802222434A601A0706D5016811
:10120000446B4A6822F4004222434A60DC0606D559
:101210000168846B8A6822F4805222438A609906AE
:1012200006D50168C46B8A6822F4005222438A60A2
:101230005A060FD50168046C4A6822F480122243D2
:10124000B4F5801F4A6005D14A68446C22F4C0029C
:1012500022434A601B0606D50268816C536823F45A
:1012600000230B43536010BD2DE9F041069D044659
:101270000F46164698462168CA6937EA02030CBF32
:1012800001220022B24202D00020BDE8F0816B1C96
:10129000F2D09DB923681A6822F4D0721A609A6855
:1012A00022F001029A60202384F8693084F86A30C1
:1012B000002384F868300320BDE8F081FFF72AF8A6
:1012C000A0EB08008542D6D2E4E72DE9F3411F46A2
:1012D00090F86930202B04460D4690464CD10029E9
:1012E00048D0002A46D090F86830012B44D0012322
:1012F00080F868300023C366212380F86930FFF747
:1013000009F8A4F850800646A4F85280B4F8522098
:1013100092B262B90097334640212046FFF7A4FFFE
:1013200098B9202384F8693084F868000EE0B4F896
:1013300052300097013B9BB2A4F852300022334652
:1013400080212046FFF790FF18B1032002B0BDE8CE
:10135000F081A3682268B3F5805F07D123692BB9B8
:1013600035F8023BC3F308031385CFE72B781385C9
:101370000135CBE70120E9E70220E7E773B5044632
:101380000026C666FEF7C6FF23681B681A070546D7
:1013900017D423681B685B070AD56FF07E43009360
:1013A00000222B464FF480012046FFF75DFFA0B9D5
:1013B0002023002084F8693084F8680084F86A30BB
:1013C0000CE06FF07E430093324603464FF4001169
:1013D0002046FFF749FF0028DBD0032002B070BD94
:1013E00010B5044660B390F8693003F0FF021BB9F2
:1013F00080F8682000F042FA2268242384F86930DB
:10140000136823F0010313602046FFF7D1FD012884
:1014100016D0636A13B12046FFF7D2FE23685A68DC
:1014200022F490425A609A6822F02A029A601A685E
:1014300042F0010220461A60BDE81040FFF79EBF4F
:10144000012010BDF0B53C4D3C4E2B7804460021E8
:1014500094F82E2094F82D00D2B2824203D101B12B
:101460002B700020F0BD0132D2B22D2A28BF0022FD
:10147000A05C84F82E2000F0FF020028EFD0F02AB4
:1014800003D143F001030121E2E7E02A02D143F056
:101490000203F8E7D90712D5122A04D103F0FB039F
:1014A00003F0FC03EFE7592A02D103F0F703F7E753
:1014B000112AF5D19A0748BF03F0EF03F0E7122A8B
:1014C00002D143F00403DEE7592A02D143F00803B6
:1014D000D9E7112A03D19F0748BF43F0100313F047
:1014E00002010AD04A3AD2B2332A21D8B05C03F0C2
:1014F000FC030028C7D02B70F0BDD80609D5206C9E
:10150000D0F810712FB1872A14D8024492F8140130
:10151000EDE713F00C0106D0872A09D8216C0A44A4
:1015200092F88800E3E7872A04D8216C885CDEE71C
:101530000020DCE70846DAE798000020982200083F
:1015400070B5044690F82F10006BFFF747F805467A
:10155000FEF7E0FE1B4B1C491A681860821AB2F5B0
:10156000E17F1A4A84BF00261670137888BF0E7078
:10157000581EC0B207289CBF8540087803F10103BC
:1015800098BF0543DBB298BF0D700B2B137011D1C0
:1015900094F82D3094F82E000133DBB22D2B28BFA8
:1015A000002383421EBF0878E05484F82D300023C6
:1015B00013700B70127809780548BDE8704000F090
:1015C00043B800BF9400002091000020900000204C
:1015D000CC22000810B590F83D30044623B100221B
:1015E00080F83D20184610BD90F83C3083B10022B1
:1015F00080F83C205AB2002A0EDA02F03F0262F074
:101600007F02C3F3851384F83D2043F0C003E9E76C
:10161000FFF718FF0346EDE7002BE3D14FF0FF3053
:1016200010BD83639DF8003080F83430002380F8CB
:101630002D30016380F82F2080F82E3080F83C3068
:1016400080F83D30036470470FB413B50D4C04AA05
:10165000204652F8041B019200F0EEF94FF47A7321
:10166000214664220848FFF730FE2046FEF7B8FD09
:1016700000210246204600F0BFF902B0BDE810404C
:1016800004B07047F000002054010020014B18689E
:10169000FFF756BF0800002010B5A6B0012309933C
:1016A00010230A930224002306A806940C93FEF745
:1016B000ADFF014600B1FEE70F23029003900490B6
:1016C000059001A80193FFF74FFA00B1FEE71390D0
:1016D00010A81094FFF728FB044600B1FEE7FFF7BF
:1016E000EDFA4FF47A73B0FBF3F0FEF77FFE0420BF
:1016F000FEF792FE224621464FF0FF30FEF736FEFF
:1017000026B010BD70B588B0FEF7E6FDFFF7C4FF48
:10171000304B5A6942F400325A615B6903F400337A
:101720000022029360214FF090400125029BFEF7BA
:101730005BFF294B049303A94FF0904000240395CD
:1017400005950226FEF77AFE03A94FF09040039616
:1017500004940595FEF772FE602303A94FF09040B4
:101760000393049505940694FEF768FE22462146ED
:101770000620FEF7FBFD0620FEF72CFE1748184A50
:1017800084604FF4164380E80C000C23C4600461AD
:1017900043618461C46104624462FFF721FE00B1C9
:1017A000FEE7104C00954FF09043324619462068F2
:1017B0000D4DFFF736FF0D48FFF746FF2068FFF796
:1017C00009FFC1B22846FFF73FFF4FF47A70FEF7DA
:1017D000A7FDF3E700100240000021105401002093
:1017E0000044004008000020F2220008EA2200081D
:1017F000214B07B59A6942F001029A619A6902F099
:1018000001020092009ADA6942F08052DA61DB69E3
:1018100003F0805301930320019BFEF795FD002206
:1018200011466FF00B00FEF7A1FD002211466FF08C
:101830000A00FEF79BFD002211466FF00900FEF73B
:1018400095FD002211466FF00400FEF78FFD002287
:1018500011466FF00300FEF789FD002211466FF07C
:101860000100FEF783FD002211464FF0FF30FEF726
:101870007DFD03B05DF804FB001002407FB50268F7
:101880000F4B9A4219D103F5E63301A9DA6942F404
:101890000032DA61DB6903F400330093009B0C2310
:1018A00001930223029300230393032304934FF035
:1018B000904007230593FEF7C1FD07B05DF804FBD8
:1018C000004400407047FEE7FEE7FEE7FEE7704792
:1018D0007047704708B5FEF711FDBDE80840FEF7F8
:1018E000A8BD08B5FFF7D2FE0120BDE80840FEF70D
:1018F00081BE00001549D1F8883043F47003C1F867
:101900008830134B1A6842F001021A605868114A75
:1019100002405A601A6822F0847222F480321A60FF
:101920001A6822F480221A605A6822F4FE025A6071
:10193000DA6A22F00F02DA62186B074A02401A6371
:1019400000229A604FF000638B60704700ED00E06A
:10195000001002400CC07FF8CCFC00FFDFF834D050
:10196000002103E00C4B5B58435004310B480C4BF7
:1019700042189A42F6D30B4A02E0002342F8043B95
:10198000094B9A42F9D3FFF7B5FF00F011F8FFF7C2
:10199000B9FEFEE7000001205823000800000020E7
:1019A0007400002074000020C8010020FEE7000041
:1019B00070B50D4E0D4CA41BA4100025A54209D1F5
:1019C0000B4E0C4C00F04AFCA41BA4100025A542B1
:1019D00005D170BD56F8253098470135EEE756F829
:1019E000253098470135F2E75023000850230008BE
:1019F000502300085423000802440346934200D1B8
:101A0000704703F8011BF9E710B59AB04FF4027460
:101A1000009104916FF00041029105914FF6FF7122
:101A2000ADF80E106946ADF80C4000F06BF8009B65
:101A300000221A701AB010BD13460A460146024829
:101A40000068FFF7E1BF00BF100000202DE9F0475C
:101A50008E689E4282460C469146984635D88A89C1
:101A600012F4906F31D0256809696F1A65690223F5
:101A700005EB450595FBF3F508F101033B449D4259
:101A800038BF1D46530531D5294600F039FB0646BF
:101A900050B90C23CAF80030A38943F04003A38156
:101AA0004FF0FF30BDE8F0873A46216900F0B4FA04
:101AB000A38923F4906343F08003A38126616561C9
:101AC0003E44ED1B2660A5604646464528BF464677
:101AD00032464946206800F0AAFAA3689B1BA3601F
:101AE00023681E4426600020BDE8F0872A4600F0E7
:101AF00065FB06460028E1D12169504600F0B2FAA4
:101B0000C7E700002DE9F04F9DB0804603938B8915
:101B10001C060D4616460FD50B696BB9402100F027
:101B2000EFFA2860286128B90C23C8F800304FF07C
:101B3000FF30C5E040236B610023099320238DF81B
:101B4000293030238DF82A304FF0010B37463C46C0
:101B500014F8013B002B3CD1B7EB060A0BD05346DF
:101B6000324629464046FFF771FF013000F0A3805E
:101B7000099B534409933B78002B00F09C80002381
:101B80004FF0FF3204930793059206938DF853307C
:101B90001A93052221785048FEF72AFB671C049B04
:101BA000D8B9D90644BF20228DF853201A0744BF64
:101BB0002B228DF8532022782A2A16D0079A00214A
:101BC0000A20274601343B78303B092B51D9C9B153
:101BD00011E0252BC0D02746B9E73F4A801A0BFAFF
:101BE00000F0184304903C46D3E7039A111D126895
:101BF0000391002A01DB079204E0524243F0020302
:101C0000079204933B782E2B0ED17B782A2B07F179
:101C1000010132D1039B1A1D1B680392002BB8BF30
:101C20004FF0FF33023705932C4C397803222046BE
:101C3000FEF7DEFA38B14023001B03FA00F0049BE4
:101C4000034304930137397825488DF8281006227C
:101C50007E1CFEF7CDFA002835D0224BFBB9039B42
:101C6000073323F0070308330393099B4B4409937D
:101C70006CE700FB02320121A3E70023059318461D
:101C80000A240F4601313A78303A092A03D9002B49
:101C9000CAD00590C8E704FB00200123F1E703AB9D
:101CA00000932A46104B04A94046AFF30080B0F1E0
:101CB000FF3F8146D9D1AB895B063FF538AF099824
:101CC0001DB0BDE8F08F03AB00932A46064B04A974
:101CD000404600F081F8EAE71B23000821230008B2
:101CE00025230008000000004D1A00082DE9F047E8
:101CF00091461F468A680B69DDF820809342B8BF81
:101D00001346C9F8003091F8432006460C4612B13C
:101D10000133C9F800302368990642BFD9F8003072
:101D20000233C9F80030256815F0060507D104F123
:101D3000190AE368D9F800209B1A9D4229DB94F820
:101D400043302268003318BF012392062ED404F1D9
:101D5000430239463046C047013021D02368E56848
:101D6000D9F8002003F00603042B08BFAD1AA368BE
:101D700022690CBF25EAE57500259342C4BF9B1A72
:101D8000ED184FF000091A344D451BD10020BDE875
:101D9000F0870123524639463046C047013003D10F
:101DA0004FF0FF30BDE8F0870135C2E7E1185A1C5B
:101DB000302081F84300224494F8451082F8431003
:101DC0000233C4E70123224639463046C04701307A
:101DD000E6D009F10109D7E72DE9F04317460A7E5D
:101DE00085B06E2A984606460C460C9B01F1430EC0
:101DF00000F0BC801AD8632A2ED00AD8002A00F03E
:101E0000C880582A00F08A8004F1420584F84220F4
:101E10002AE0642A01D0692AF6D121681A6811F0F3
:101E2000800F23D0111D1960136827E0732A00F07A
:101E3000B48008D86F2A2AD0702AE5D10A6842F007
:101E400020020A6003E0752A21D0782ADCD17822AA
:101E500084F845206E4964E01A6801F14205111DBD
:101E60001960136884F842300123A3E011F0400F99
:101E700002F104011960D7D0B2F90030002B03DA67
:101E80002D225B4284F8432062490A2217E0206831
:101E9000196810F0800F03D0081D18600B6806E069
:101EA00010F0400F01F104001860F7D00B88594979
:101EB0006F2A14BF0A220822002084F843006568B4
:101EC000A560002DC0F29C80206820F004002060F6
:101ED000002B3FD1002D40F095807546082A0BD18C
:101EE0002368DA0708D5236962689A42DEBF302387
:101EF00005F8013C05F1FF35AEEB05032361CDF894
:101F000000803B4603AA21463046FFF7EFFE013032
:101F100055D14FF0FF3005B0BDE8F08381F8452082
:101F20003C492268186812F0800F00F104051D601A
:101F300001D0036802E05506FBD50388D00744BFF3
:101F400042F0200222601BB9226822F020022260A7
:101F50001022B1E77546B3FBF2F002FB1033CB5C05
:101F600005F8013D03460028F5D1B7E708681A686F
:101F7000496910F0800F04D0101D186013681960B3
:101F800007E010F0400F02F1040018601368F6D06B
:101F90001980002323617546B1E71A68111D196085
:101FA0001568626800212846FEF722F908B1401B37
:101FB000606063682361002384F843309FE72369EE
:101FC0002A4639463046C0470130A2D023689B07D5
:101FD00007D5002504F11909E368039A9B1A9D426D
:101FE00005DBE068039B9842B8BF184693E70123DE
:101FF0004A4639463046C04701308AD00135EBE7C2
:10200000002BA7D10B7884F8423004F1420565E734
:102010003D2300082C23000810B5431E0A449142BA
:1020200000D110BD11F8014B03F8014FF7E78842CA
:1020300010B501EB020303D8421E99420CD110BD2A
:102040009842F9D28118D21AD34200D110BD13F8A8
:10205000014D01F8014DF7E711F8014B02F8014F6E
:10206000EBE7000038B50546002945D051F8043C9F
:102070000C1F002BB8BFE41800F0D6F81F4A1368F5
:10208000104633B9636014602846BDE8384000F05C
:10209000CCB8A3420CD921686218934204BF1A68D5
:1020A0005B68636004BF521822600460ECE713466B
:1020B0005A680AB1A242FAD919685818A0420BD13D
:1020C00020680144581882421960DDD110685268B6
:1020D0005A6001441960D7E702D90C232B60D3E77B
:1020E000206821188A4204BF11685268626004BFE8
:1020F000091821605C60C7E738BD00BF9C00002064
:1021000070B5CD1C25F0030508350C2D38BF0C2506
:10211000002D064601DBA94203D90C2333600020C1
:1021200070BD00F081F8234A1468214691B9224C11
:1021300023681BB9304600F067F820602946304616
:1021400000F062F8431C26D10C233360304600F0C7
:102150006CF8E4E70B685B1B1AD40B2B0FD90B60F0
:10216000CD50CC18304600F060F804F10B00231D70
:1021700020F00700C31A1BD05A42E25070BD8C42B7
:102180000DBF63684B686360136018BF0C46E9E7D6
:102190000C464968CAE7C41C24F00304A04205D0D9
:1021A000211A304600F030F80130CDD02560D9E753
:1021B00070BD00BF9C000020A0000020F8B50746BD
:1021C00014460E4621B91146BDE8F840FFF798BF06
:1021D00022B9FFF747FF25462846F8BD00F026F84C
:1021E00084420FD921463846FFF78AFF054600286A
:1021F000F2D031462246FFF70FFF31463846FFF74F
:1022000031FFE9E73546E7E738B5064C00230546D8
:102210000846236000F014F8431C02D1236803B180
:102220002B6038BDC40100207047704751F8040C82
:102230000028A0F10400BCBF0B58C0187047000074
:10224000044B1968024609B9034919601868024429
:102250001A607047A4000020C8010020F8B500BF34
:10226000F8BC08BC9E467047F8B500BFF8BC08BC77
:042270009E467047CF
:1022740002030405060708090A0B0C0D0E0F1010C3
:102284000102030405060708090A0B0C0D0E0F10C2
:10229400010408022F0000000000000000000000FC
:1022A400000000000D00000000000000000000001D
:1022B40000000000000800000000007F0A00150B69
:1022C400000000001A000019696E636F6D696E6783
:1022D400203D2025642C20626974636F756E743D03
:1022E4002025640D0A0074657374650D0A00526537
:1022F40073756C7461646F203D2025640D0A0000C1
:1023040000000000000000010203040607080900A1
:1023140000000001020304232D302B2000686C4CC4
:102324000065666745464700303132333435363709
:10233400383941424344454600303132333435362E
:0C23440037383961626364656600000090
:04235000C5010008BB
:04235400A1010008DB
:102358000100000010000000AC00002000127A000C
:102368001400002000000000000000000000000031
:102378000000000000000000000000000000000055
:102388000000000000000000000000000000000045
:102398000000000000000000000000000000000035
:1023A8000000000000000000000000000000000025
:1023B8000000000000000000000000000000000015
:0423C8000000000011
:040000050800195D79
:00000001FF
