:020000040800F2
:1000000000000120310F0008990E00089B0E000827
:100010009D0E00089F0E0008A10E000800000000C1
:10002000000000000000000000000000A30E000817
:10003000A50E000800000000A70E0008A90E000889
:10004000810F0008810F0008810F0008810F000850
:10005000810F0008810F0008B70E0008810F00080B
:10006000810F0008810F0008810F0008810F000830
:10007000810F0008810F0008810F0008810F000820
:10008000810F0008810F0008810F0008810F000810
:10009000810F0008810F0008810F0008810F000800
:1000A000810F0008810F0008810F0008810F0008F0
:1000B000810F0008810F0008810F0008810F0008E0
:1000C000810F0008810F0008810F0008810F0008D0
:1000D000810F0008810F0008810F0008810F0008C0
:1000E000810F0008810F0008810F0008810F0008B0
:1000F000810F0008810F0008810F0008810F0008A0
:10010000810F00080000000000000000810F0008BF
:10011000810F0008810F0008810F0008810F00087F
:10012000810F0008810F0008810F0008810F00086F
:10013000810F0008810F000800000000000000008F
:10014000810F0008810F0008810F000800000000E7
:10015000000000000000000000000000000000009F
:10016000810F0008810F0008810F0008810F00082F
:10017000810F0008810F0008810F0008810F00081F
:10018000810F0008810F000800000000000000003F
:04019000810F0008D3
:1001940010B5054C237833B9044B13B10448AFF3BD
:1001A40000800123237010BD140000200000000013
:1001B400CC0F000808B5034B1BB103490348AFF348
:1001C400008008BD0000000018000020CC0F0008CB
:1001D40038B50E4A0E4B054618784FF47A73B3FBC4
:1001E400F0F31068B0FBF3F000F0A0F8044658B93F
:1001F4000F2D09D8024629464FF0FF3000F056F87B
:10020400044B20461D6038BD012038BD100000207D
:100214000000002004000020074A08B5136843F0DA
:1002240010031360032000F02FF80020FFF7D0FF25
:1002340000F0EAFD002008BD00200240034A044B00
:1002440011681B780B441360704700BF380000200E
:1002540000000020014B1868704700BF38000020E0
:1002640038B50446FFF7F6FF631C1CBF054B1B782B
:10027400054618BFE418FFF7EDFF401B8442FAD887
:1002840038BD00BF00000020074AD36823F4E063B0
:100294001B041B0C43F0BF63000243F4003300F45F
:1002A400E0600343D360704700ED00E0174B30B5C6
:1002B400DC68C4F30224C4F10703251D042B28BF02
:1002C4000423062D4FF0010505FA03F303F1FF3370
:1002D4008CBF033C00241940A14005FA04F4013CFE
:1002E4002240002842EA01024FEA0212AFBF00F1A5
:1002F400604000F00F00064BD2B2A5BF00F561408C
:10030400D2B21A5480F8002330BD00BF00ED00E0E3
:1003140014ED00E04209012300F01F0003FA00F08D
:10032400014B43F82200704700E100E00138B0F1CE
:10033400807F0AD2064B074A5860F02182F82310C6
:100344000020072298601A6070470120704700BFA0
:1003540010E000E000ED00E0044B1A6804280CBF34
:1003640042F0040222F004021A60704710E000E038
:10037400704708B5FFF7FCFF08BD00002DE9F74FF3
:10038400D1F80080DFF89091614A002338FA03F431
:1003940002D103B0BDE8F08F4FF0010E0EFA03FE58
:1003A40018EA0E0600F0A6804C6824F01007022F0D
:1003B40016D14FEAD30A00EB8A0A03F0070BDAF8E6
:1003C40020504FEA8B0B4FF00F0C0CFA0BFC25EA74
:1003D4000C0C0D6905FA0BF545EA0C05CAF820501A
:1003E4004FEA430A0325D0F800B005FA0AF5ED43B5
:1003F40004F0030C0BEA050B0CFA0AFC013F4CEA6F
:100404000B0C012FC0F800C011D8876807EA050B50
:10041400CF6807FA0AFC4CEA0B078760476827EAAB
:100424000E0EC4F300179F4047EA0E074760C768E3
:100434003D408F6807FA0AF73D43C560E50059D58A
:10044400D9F8185045F00105C9F81850D9F81850D2
:1004540023F0030707F1804705F0010507F580370E
:10046400019503F0030C019DBD684FEA8C0C4FF01D
:100474000F0E0EFA0CFEB0F1904F25EA0E0E3BD093
:10048400244DA8423AD005F58065A84238D005F538
:100494008065A84236D005F58065A84234D005F5BC
:1004A4008065A84232D005F58065A84214BF0725AF
:1004B400062505FA0CF545EA0E05BD601568F743F7
:1004C40014F4803F0CBF3D4035431560556814F467
:1004D400003F0CBF3D4035435560956814F4801FC0
:1004E4000CBF3D4035439560D568A40254BF3D40E0
:1004F4003543D560013349E70025DAE70125D8E71C
:100504000225D6E70325D4E70425D2E70525D0E75D
:10051400000401400004004800100240036919422D
:1005240014BF0120002070470AB1816170478162C5
:1005340070474369594041617047704708B5044B9F
:100544005969014202D05861FFF7F7FF08BD00BFA7
:10055400000401402DE9F347054618B9012002B013
:10056400BDE8F0870368DF0711D42B689E0700F10C
:1005740088802B681C0700F1FC802B68580700F169
:100584004581AA69002A40F0DC810020E7E7BD4CE0
:10059400636803F00C03042B0AD0636803F00C03B4
:1005A400082B19D1636803F4C033B3F5803F13D12A
:1005B4004FF4003393FAA3F2216893FAA3F3B3FA46
:1005C40083F303F01F03012202FA03F30B42CCD09E
:1005D4006B68002BC9D1C1E76B68B3F5803F1ED1AE
:1005E400236843F480332360FFF734FE4FF400366E
:1005F4008046012796FAA6F3226896FAA6F3B3FA80
:1006040083F303F01F0307FA03F31342ADD1FFF79B
:1006140021FEA0EB08006428ECD903209FE70BBB64
:10062400236823F480332360236823F48023236026
:10063400FFF710FE4FF400368046012796FAA6F322
:10064400226896FAA6F3B3FA83F303F01F0307FABA
:1006540003F3134289D0FFF7FDFDA0EB08006428E3
:10066400ECD9DAE7B3F5A02F236803D143F4802350
:100674002360B5E723F480332360236823F48023C5
:10068400B1E7804C636813F00C0F0AD0636803F081
:100694000C03082B25D1636803F4C033B3F5004F72
:1006A4001FD1022393FAA3F2216893FAA3F3B3FAB6
:1006B40083F303F01F03012202FA03F30B4203D076
:1006C400EB6893427FF44AAF2168F82393FAA3F3CB
:1006D400B3FA83F22B69934021F0F80213432360A9
:1006E40047E7EA6801260AB396FAA6F3B3FA83F356
:1006F40003F1845303F584139B0002271E60FFF764
:10070400A9FD804697FAA7F3226897FAA7F3B3FAEC
:1007140083F303F01F0306FA03F31342D4D1FFF764
:1007240099FDA0EB08000228ECD976E796FAA6F327
:10073400B3FA83F303F1845303F584139B00022774
:100744001A60FFF787FD804697FAA7F3226897FAA5
:10075400A7F3B3FA83F303F01F0306FA03F3134278
:100764003FF407AFFFF776FDA0EB08000228EBD9B2
:1007740053E76A69434E444901241AB394FAA4F333
:10078400B3FA83F30B449B0002271C60FFF762FD5E
:10079400804697FAA7F397FAA7F397FAA7F3726A32
:1007A40097FAA7F3B3FA83F303F01F0304FA03F3EE
:1007B40013427FF4E2AEFFF74DFDA0EB08000228E0
:1007C400E7D92AE794FAA4F3B3FA83F30B449B0022
:1007D40002271A60FFF73EFD804697FAA7F397FABF
:1007E400A7F397FAA7F3726A97FAA7F3B3FA83F316
:1007F40003F01F0304FA03F313423FF4BEAEFFF702
:1008040029FDA0EB08000228E7D906E71D4CE3699F
:10081400D90034D4E36943F08053E361E36903F01E
:1008240080530193019B0126184F3B68DA052FD5AD
:10083400AB68012B3DD1236A43F001032362FFF728
:1008440009FD02278246B9464FF0010897FAA7F33B
:1008540097FAA7F3002B6CD0226A99FAA9F3B3FA9A
:1008640083F303F01F0308FA03F3134258D0002E56
:100874003FF487AEE36923F08053E36181E6002609
:10088400D2E700BF001002402081901000700040A9
:100894003B6843F480733B60FFF7DCFC80463B68B5
:1008A400DB05C5D4FFF7D6FCA0EB08006428F6D915
:1008B400B3E63BBB236A23F001032362236A23F0DC
:1008C40004032362FFF7C6FC02278246B9464FF0B1
:1008D400010897FAA7F397FAA7F373B3226A99FA70
:1008E400A9F3B3FA83F303F01F0308FA03F31342E3
:1008F400BDD0FFF7AFFC41F28833A0EB0A00984269
:10090400E7D98AE6052B236A03D143F00403236263
:1009140091E723F001032362236A23F004038DE7A4
:10092400FFF798FC41F28833A0EB0A0098428DD976
:1009340073E697FAA7F3626A8FE797FAA7F3626AF6
:10094400CDE7444C636803F00C03082B3FF406AE78
:10095400022A4FF0807358D193FAA3F3B3FA83F3C6
:1009640003F1845303F584139B0000221A60FFF7FC
:1009740071FC4FF000778046012697FAA7F32268AE
:1009840097FAA7F3B3FA83F303F01F0306FA03F30A
:10099400134233D1E36A6A6A23F00F031343E36219
:1009A40062682B6AE96922F476120B43134363608D
:1009B4004FF0807393FAA3F3B3FA83F303F18453F0
:1009C40003F584139B004FF000751E60FFF742FC93
:1009D4000126074695FAA5F3226895FAA5F3B3FA1A
:1009E40083F303F01F0306FA03F313427FF4CDAD40
:1009F400FFF730FCC01B0228ECD90EE6FFF72AFCF7
:100A0400A0EB08000228B8D907E693FAA3F3B3FAD7
:100A140083F303F1845303F584139B0000221A60CB
:100A2400FFF718FC4FF000750746012695FAA5F369
:100A3400226895FAA5F3B3FA83F303F01F0306FAC9
:100A440003F313423FF4A1ADFFF704FCC01B0228DB
:100A5400ECD9E2E50010024011494B6803F00C02A6
:100A6400082A1AD14FF4701292FAA2F20F20B2FAA5
:100A740082F2C96A90FAA0F0B0FA80F001F00F0196
:100A840003F47013D340C140064A0748415C074849
:100A9400B0FBF1F1D05C484370470448704700BF95
:100AA40000100240E40F0008F40F000800127A005E
:100AB4002DE9F0410D46044610B90120BDE8F0814E
:100AC4004C4A136803F007038B422ED32268910724
:100AD40036D4D2073CD4474A136803F007039D4237
:100AE40075D32268444D12F0040F7CD1130706D548
:100AF4006B68226923F4605343EAC2036B60FFF717
:100B0400ABFF6B68F02292FAA2F2B2FA82F203F01F
:100B1400F003D340394AD35CD840394B18600020E5
:100B2400FFF756FB0020BDE8F081136823F00703AC
:100B34000B431360136803F007039942BDD1C5E763
:100B44002D49A0684B6823F0F00303434B60C0E7D2
:100B54006268294E012A27D14FF4003393FAA3F196
:100B6400316893FAA3F3B3FA83F303F01F0302FA91
:100B740003F30B42A1D0736823F003031A4372609A
:100B8400FFF768FB41F2883807467368626803F030
:100B94000C03B3EB820F9ED0FFF75CFBC01B4045F8
:100BA400F3D90320BDE8F081022A0CBF4FF0007393
:100BB400022393FAA3F1306893FAA3F3B3FA83F30D
:100BC40003F01F03012101FA03F30342D2E7136880
:100BD40023F007032B431360136803F007039D42BC
:100BE4007FF46BAF7DE76B68E16823F4E0630B434C
:100BF4006B607BE7002002400010024004100008F4
:100C040010000020014B1868704700BF100000203E
:100C140070B5234C23780546002B3AD1402285F841
:100C24002F20013395F82F10286B2370FFF776FCE3
:100C34000646FFF70FFB1B4B1A681860821AFA2A44
:100C440082BF002222701849237888BF0A705A1E76
:100C5400D2B2072A04D8144996400A7816430E7073
:100C64000133DBB20B2B237012D195F82D3095F89C
:100C74002E200133DBB22D2B28BF002393420A4AD6
:100C84001EBF1178E95485F82D30002323701370AA
:100C940070BD012B01D12022C1E7022BC1D1BDE7D8
:100CA40030000020340000203100002083639DF8D0
:100CB400003080F83430002380F82D30016380F850
:100CC4002F2080F82E3080F83C3080F83D300364CB
:100CD4007047000010B5054C2068FFF799FF2368A2
:100CE40093F82F20024B1A8010BD00BF080000208B
:100CF4000C00002010B590B0022306930123099341
:100D040010230A9306A800230C93FFF723FC014643
:100D140000B1FEE70F23029003900490059001A810
:100D24000193FFF7C5FE044600B1FEE7FFF76AFF33
:100D34004FF47A73B0FBF3F0FFF7F8FA0420FFF7EF
:100D44000BFB224621464FF0FF30FFF7AFFA10B0FD
:100D540010BD000000B589B0FFF75EFAFFF7CAFFC7
:100D6400254B5A6942F400325A615B6903F400333B
:100D74000022029360214FF090400124029BFFF770
:100D8400D3FB1E4B049303A94FF09040002503941A
:100D940005940226FFF7F2FA03A94FF09040059458
:100DA40003960495FFF7EAFA602303A94FF09040F5
:100DB4000393049405950695FFF7E0FA2A4629461D
:100DC4000620FFF773FA0620FFF7A4FAFFF742FAAA
:100DD4000B4800944FF09043324619460068094C82
:100DE400FFF764FF21884FF09040FFF7A2FB4FF418
:100DF400C870FFF735FAF5E7001002400000211033
:100E0400080000200C000020214B07B59A6942F02D
:100E140001029A619A6902F001020092009ADA6969
:100E240042F08052DA61DB6903F0805301930320BE
:100E3400019BFFF729FA002211466FF00B00FFF720
:100E440035FA002211466FF00A00FFF72FFA00224C
:100E540011466FF00900FFF729FA002211466FF0DE
:100E64000400FFF723FA002211466FF00300FFF796
:100E74001DFA002211466FF00100FFF717FA002255
:100E840011464FF0FF30FFF711FA03B05DF804FB91
:100E9400001002407047FEE7FEE7FEE7FEE77047FA
:100EA4007047704708B5FFF7C9F9BDE80840FFF778
:100EB40060BA08B5FFF70EFF0120BDE80840FFF750
:100EC4003DBB00001549D1F8883043F47003C1F8E4
:100ED4008830134B1A6842F001021A605868114AAC
:100EE40002405A601A6822F0847222F480321A6036
:100EF4001A6822F480221A605A6822F4FE025A60A8
:100F0400DA6A22F00F02DA62186B074A02401A63A7
:100F140000229A604FF000638B60704700ED00E0A0
:100F2400001002400CC07FF8CCFC00FFDFF834D086
:100F3400002103E00C4B5B58435004310B480C4B2D
:100F440042189A42F6D30B4A02E0002342F8043BCB
:100F5400094B9A42F9D3FFF7B5FF00F011F8FFF7F8
:100F6400F9FEFEE7000001201C100008000000202C
:100F7400140000201400002080000020FEE7000080
:100F840070B50D4E0D4CA41BA4100025A54209D12B
:100F94000B4E0C4C00F018F8A41BA4100025A5421D
:100FA40005D170BD56F8253098470135EEE756F85F
:100FB400253098470135F2E7141000081410000892
:100FC4001410000818100008F8B500BFF8BC08BCDD
:100FD4009E467047F8B500BFF8BC08BC9E467047F3
:100FE40002030405060708090A0B0C0D0E0F101066
:100FF4000102030405060708090A0B0C0D0E0F1065
:1010040000000000000000000102030406070809B4
:04101400B901000816
:041018009501000836
:10101C0001000000100000003C0000202000000037
:04102C0000127A0034
:0400000508000F31AF
:00000001FF
