:020000040800F2
:100000000010002075320008F52D0008FF2D0008B3
:1000100000000000000000000000000000000000E0
:10002000000000000000000000000000052E000895
:1000300000000000000000000F2E0008192E00082C
:10004000C532000800000000C5320008C5320008B3
:10005000C53200082B2E0008C5320008C532000842
:1000600000000000C5320008C5320008C532000893
:10007000C5320008C5320008C53200080000000083
:10008000C53200080000000000000000C532000872
:1000900000000000C5320008C5320008C532000863
:1000A00000000000C532000800000000C532000852
:1000B0000000000000000000000000000000000040
:1000C00010B5064C2378002B07D1054B002B02D02E
:1000D000044800E000BF0123237010BD040000208D
:1000E0000000000034330008044B10B5002B03D08F
:1000F0000349044800E000BF10BDC04600000000F6
:100100000800002034330008002243088B4274D3D7
:1001100003098B425FD3030A8B4244D3030B8B4208
:1001200028D3030C8B420DD3FF22090212BA030C11
:100130008B4202D31212090265D0030B8B4219D3F2
:1001400000E0090AC30B8B4201D3CB03C01A524112
:10015000830B8B4201D38B03C01A5241430B8B425A
:1001600001D34B03C01A5241030B8B4201D30B0343
:10017000C01A5241C30A8B4201D3CB02C01A52416A
:10018000830A8B4201D38B02C01A5241430A8B422D
:1001900001D34B02C01A5241030A8B4201D30B0216
:1001A000C01A5241CDD2C3098B4201D3CB01C01A30
:1001B000524183098B4201D38B01C01A524143093A
:1001C0008B4201D34B01C01A524103098B4201D328
:1001D0000B01C01A5241C3088B4201D3CB00C01A95
:1001E000524183088B4201D38B00C01A524143080D
:1001F0008B4201D34B00C01A5241411A00D2014632
:10020000524110467047FFE701B5002000F006F8A4
:1002100002BDC0460029F7D076E770477047C04658
:100220008446101C62468C46191C634600E0C0469A
:100230001FB500F0EFF8002801D40021C8421FBD0F
:1002400010B500F049F84042013010BD10B500F083
:10025000E1F8002801DB002010BD012010BDC046E0
:1002600010B500F0D7F8002801DD002010BD0120F6
:1002700010BDC04610B500F069F8002801DC002070
:1002800010BD012010BDC04610B500F05FF8002879
:1002900001DA002010BD012010BDC04670B500225B
:1002A0000C4B04000D00FFF7EFFF002804D12000E5
:1002B000290000F027FC70BD064B00222000290019
:1002C00000F00AF900F01EFC80231B069C466044E7
:1002D000F1E7C0460000E041F0B54F464646D6463D
:1002E0005C00C0B51F03DB0F9A46174B0E034D0091
:1002F00084468046360B6D0DC90F91463F0B640D49
:1003000001209D4208D09C4201D0A5420BD01CBCCC
:1003100090469946A246F0BD63463343F7D1AC42BE
:10032000F5D13A43F3D10120BE42F0D1C845EED118
:10033000514507D0002DEAD163461E433000461ECA
:10034000B041E4E70020E2E7FF070000F0B54546D2
:10035000DE4657464E46E0B51F033D0B2C4F0E03BD
:100360004C00AB465D008446360B640DC90F9046C9
:100370006D0DDB0FBC422AD0254FBD422DD0002C85
:100380000FD130430700814678427841C0B2002D3A
:1003900017D15F463A4314D14B460020002B0AD0B8
:1003A00006E0002D02D15846024301D0994218D0F0
:1003B0004842012108433CBC90469946A246AB46C0
:1003C000F0BD0028F2D00120013B1843F3E73700CD
:1003D0000743D1D002204042EDE75F461743CED01D
:1003E000F8E7AC42E4DC03DA481E01210843E2E707
:1003F0005E45DDD806D000205E45DCD20123481ED4
:100400001843D8E7C445D3D80020C445F6D3D2E773
:10041000FF070000F0B54E464546DE4657465C00F5
:10042000E0B51F03DB0F99462A4B0E034D00C90FA1
:100430008446360B6D0D8B4690463F0B640D9D42F6
:1004400020D0244B9C4222D0002D12D13043434275
:100450004341DBB2002C1FD0002B0CD04B460120B7
:10046000013B034318003CBC90469946A246AB466C
:10047000F0BD002C16D0CB4517D05B465942012366
:100480000B43EFE7310002230143EBD1D9E73900F9
:1004900002231143E6D1D7E73A43DDD100230028F8
:1004A000E0D0EAE73A43E6D1E7E7A542E5DC05DB41
:1004B000BE42E2D807D00023BE42D3D25946012320
:1004C00001390B43CEE7C445D7D80023C445F5D343
:1004D000C8E7C046FF070000F0B54646D6464F467F
:1004E0000C03C0B5CD0F4E00610A440F0C43C10090
:1004F0005800400D84468A460F001903500F490AE0
:100500000143C648760DA846DB0FD200844500D1D2
:10051000D8E001204340AB4200D1A6E06046351A46
:10052000002D00DC05E1002810D10B00134300D1A1
:10053000D7E06B1E002B00D04BE153469F1ABA4503
:100540008041641A4042241A01261EE0B34B9E42A9
:1005500048D080231B041943382D00DD19E11F2DDD
:1005600000DD4CE120230F005B1B10009A409F40F0
:10057000E840531E9A41E940074317435346DF1BA7
:10058000611ABA45A44164420C1B230200D4C5E0A1
:100590006402650A002D00D1F6E0280000F028FB77
:1005A0000300083B1F2B00DDE9E020223C00D21AAB
:1005B0009D40D4409F4025439E4200DDDBE09E1BD2
:1005C000731C1F2B00DD0AE120223800D21A2900FB
:1005D00097402C009140D8407A1E9741DC4000267D
:1005E00001430F437B0709D00F233B40042B05D069
:1005F0003B1DBB42BF417F42E4191F00230225D5AA
:10060000864B01369E4200D1AFE0854B01251C4050
:1006100043466207FF08640276051743240B760DF4
:100620001D4000212403230B0C0D7E4A24051C438E
:100630001440330523435B00ED075B082B43380070
:1006400019001CBC90469946A246F0BD01254346C0
:100650006207FF081743E4081D40704B9E4236D0E6
:1006600024037605240B760DDBE76346F31A002B93
:1006700000DC94E06046002835D068488642B1D05E
:1006800080273F043943382B00DCFDE00A43170084
:1006900000217A1E97415744574580410919444229
:1006A0000C1923023AD55D4B01369E4200D14BE135
:1006B00001225B4B1C407B0817401F43E207174396
:1006C00064088FE70800104300D024E721E72300E7
:1006D0003B4300D1B9E18022120314432403240BCD
:1006E0009FE72E007EE70800104300D1CAE0581EA5
:1006F0008446002800D0E7E0524452458041641807
:100700004042241817000126230207D50226CFE70E
:1007100064462C4300D1B3E12C0067467B0700D030
:1007200062E76307FF081F4301254346E4081D40B5
:1007300093E7002D78D1751C6D056D0D012D00DC42
:10074000F2E05046801A8245BF41651A7F42ED1B98
:100750008446280200D48CE05046171ABA429241CF
:100760000C1B5542651B984614E70125434600249F
:100770001D40002755E72A4CF61A2C4032E73D0071
:1007800028388540002717E7380000F031FA20307C
:1007900006E70A43170000217A1E9741EEE6002B78
:1007A00000D0E5E0731C9C465B055B0D012B00DC73
:1007B0009FE01A4B9C4500D1C5E052445245804110
:1007C000641840422418E707520817436408664635
:1007D00008E71248854200D185E01D00BCE62900EB
:1007E0001F3EF140202B00D17FE04022D31A9D40D4
:1007F0002F437D1EAF4100240F4300268EE72B00C0
:100800000F00203BDF40202D71D040235D1BA9400D
:100810000A43511E8A4100211743AFE6FF0700003B
:10082000FFFF7FFFFFFF0F80002E3ED0B34EB44589
:1008300045D0802636046D423443382D00DDA8E0D3
:100840001F2D00DD1FE1202627005046761BB740F4
:10085000E84007435046B040461EB041EC403843A4
:10086000171ABA4292410C1B5242A41A6646984685
:100870008BE6644667462C4300D08BE600250026B5
:100880000027EAE61E00ADE61F2B60DC2027F81AE1
:100890000F00844687401000D840074360468240DE
:1008A000501E8241D9401743F5E6260050460643C4
:1008B00005D0ED43002DD3D0904EB445BDD10C00F2
:1008C0001700664698468DE68C4883420BD06346F7
:1008D000D9E6002D00D096E00800104300D1E2E0F8
:1008E0000C0017009846854E7CE6002580E7002125
:1008F0008EE7230050460343002E00D0A8E0002BD3
:1009000000D1DEE00B00134300D16BE652445245A8
:1009100080416418404224181700230200D4FDE6E9
:10092000774B66461C405DE6250050460543002E89
:10093000CFD1002D4FD10C00144300D1A0E00C000A
:10094000170098464EE666460024002785E61F00FD
:100950000800203FF8400700202B00D18EE0402007
:10096000C31A99400A43511E8A410021174392E657
:10097000002E14D126005046064362D0DB43002BE4
:100980005CD187189742924164185242A418664677
:1009900087E650462043441EA041002460E7574E9E
:1009A000B4454ED0802636045B423443382B00DDFC
:1009B0007FE01F2B00DD8BE0202627005046F61A33
:1009C000B740D84007435046B040461EB0410743A9
:1009D000DC40BF18D6E70D00154300D102E65046B3
:1009E000801A8245BF41651A7F42ED1B844628026A
:1009F00000D48DE65046171ABA4292410C1B52425F
:100A0000A41A9846EEE50D00154300D16BE7504659
:100A10006707C00807438020E4080003044207D0AA
:100A2000CD08054204D12C009846D70849070F434A
:100A30007B0FE4001C43FF00304ED3E52F4EB4453E
:100A4000B4D10C0017006646CCE500270024E8E589
:100A5000002B39D00B00134300D144E7C0086707CF
:100A600007438020E40800030442E1D0CB0803429E
:100A7000DED1D70849070F431C00D9E7002171E7F1
:100A800000250027E9E52E002700203EF740202D15
:100A90002FD04026751BAC4050462043441EA04139
:100AA00000243843DCE6802400252403134E00276D
:100AB000D3E5504620430700781E87410024BF1825
:100AC00060E70C0017008DE50C0017000B4E89E560
:100AD0001E002700203EF740202B0CD04026F31AA2
:100AE0009C4050462043441EA04107430024BF18A9
:100AF00048E70024D0E70024F3E7C046FF070000E2
:100B0000FFFF7FFF30B5134D0A034B00120B5B0D47
:100B1000C90F0024AB4210DD0F4CA3420FDC802430
:100B20000E4D64032243ED1A1F2D0BDD0C48C31A32
:100B3000DA405442002900D11400200030BD094B96
:100B4000CC18FAE7084CE840A44663449A400243B4
:100B5000EFE7C046FE0300001D0400003304000060
:100B600013040000FFFFFF7FEDFBFFFF70B50028BF
:100B700030D0C317C4185C40C50F200000F038F80F
:100B8000174B184A1B1AD21A1F2A18DD164AD21AF6
:100B90009440002224035B05240B5B0D0021100010
:100BA00024030A0D240B12052243104C1B0522407E
:100BB00013435B00ED075B082B43190070BD210058
:100BC00091400A000B21081AC4405B052403240B42
:100BD0005B0DE3E70025002300240022DEE7C0468A
:100BE0001E0400003304000013040000FFFF0F8008
:100BF0001C2101231B04984201D3000C10391B0A4D
:100C0000984201D3000A08391B09984201D3000910
:100C1000043902A2105C40187047C0460403020267
:100C200001010101000000000000000080B500AFDC
:100C3000074B074A126810210A431A60002000F08F
:100C400009F802F09FF800231800BD4680BDC04699
:100C50000020024080B582B000AF786000F05AFFFB
:100C60000200FA2399001000FFF74EFA0300180063
:100C700000F00EF9796801235B420022180000F0B1
:100C8000E1F800231800BD4602B080BD80B500AF7A
:100C9000034B1B685A1C024B1A60C046BD4680BD00
:100CA0002800002080B500AF024B1B681800BD462D
:100CB00080BDC0462800002080B584B000AF7860B9
:100CC000FFF7F0FF0300BB607B68FB60FB6801334C
:100CD00002D0FB680133FB60C046FFF7E3FF020070
:100CE000BB68D21AFB689A42F7D3C046BD4604B02F
:100CF00080BD000080B582B000AF0200FB1D1A70FD
:100D0000064BFA1D127811001F220A400121914062
:100D10000A001A60C046BD4602B080BD00E100E096
:100D2000B0B582B000AF02003960FB1D1A70FB1D28
:100D30001B787F2B32D92F4CFB1D1B781A000F23F9
:100D40001340083B99082B4AFB1D1B7818000F2302
:100D50000340083B9B0806339B00D31804331B68F1
:100D6000FA1D1278100003220240D200FF209040AA
:100D70000200D2431A403B689B01FF201840FB1D34
:100D80001B781D0003232B40DB00984003001A430F
:100D90008B1D9B00E31804331A6027E0164CFB1DE3
:100DA0001B785BB29B081449FA1D127852B2920864
:100DB000C03292005258F91D097808000321014001
:100DC000C900FF2088400100C94311403A689201E0
:100DD000FF201040FA1D1278150003222A40D2008D
:100DE000904002000A43C0339B001A51C046BD46E2
:100DF00002B0B0BD00ED00E000E100E080B582B0DF
:100E000000AF78607B68013B0C4A934201D9012313
:100E100010E00B4B7A68013A5A6001235B420321D0
:100E20001800FFF77DFF064B00229A60044B072253
:100E30001A6000231800BD4602B080BDFFFFFF000E
:100E400010E000E080B584B000AFB9607A600F2395
:100E5000FB18021C1A70BA680F23FB181B785BB2D0
:100E600011001800FFF75CFFC046BD4604B080BD0E
:100E700080B582B000AF0200FB1D1A70FB1D1B780D
:100E80005BB21800FFF736FFC046BD4602B080BD1A
:100E900080B582B000AF78607B681800FFF7AEFFC6
:100EA00003001800BD4602B080BD000080B582B0CE
:100EB00000AF78607B68042B06D1084B074A1268A4
:100EC00004210A431A6005E0044B044A1268042115
:100ED0008A431A60C046BD4602B080BD10E000E003
:100EE00080B500AF00F003F8C046BD4680BD80B5B8
:100EF00000AFC046BD4680BD80B586B000AF78600B
:100F0000396000237B610023FB6000233B614FE1DC
:100F10003B681B6801217A6991400A001340FB601D
:100F2000FB68002B00D140E13B685B68022B03D0DB
:100F30003B685B68122B23D17B69DA087B68083237
:100F40009200D3583B617B69072213409B000F221C
:100F50009A401300DA433B6913403B613B681A69CE
:100F60007B6907210B409B009A4013003A691343A9
:100F70003B617B69DA087B68083292003969D1509D
:100F80007B681B683B617B695B0003229A4013000E
:100F9000DA433B6913403B613B685B6803221A40BC
:100FA0007B695B009A4013003A6913433B617B689D
:100FB0003A691A603B685B68012B0BD03B685B6841
:100FC000022B07D03B685B68112B03D03B685B6842
:100FD000122B30D17B689B683B617B695B000322ED
:100FE0009A401300DA433B6913403B613B68DA687F
:100FF0007B695B009A4013003A6913433B617B684D
:101000003A699A607B685B683B6101227B699A4020
:101010001300DA433B6913403B613B685B681B0983
:1010200001221A407B699A4013003A6913433B61DD
:101030007B683A695A607B68DB683B617B695B006F
:1010400003229A401300DA433B6913403B613B683B
:101050009A687B695B009A4013003A6913433B61CD
:101060007B683A69DA603B685A6880235B05134005
:1010700000D19AE0544B544A926901210A439A6183
:10108000514B9B6901221340BB60BB684F4A7B698F
:101090009B0802339B009B583B617B6903221340F2
:1010A0009B000F229A401300DA433B6913403B61D7
:1010B0007A689023DB059A4213D07B68444A9342B6
:1010C0000DD07B68434A934207D07B68424A9342E3
:1010D00001D1032306E0052304E0022302E00123FB
:1010E00000E000237A6903210A40920093403A69A4
:1010F00013433B6135497B699B0802339B003A6986
:101100005A50364B1B683B61FB68DA433B6913401E
:101110003B613B685A6880235B02134003D03A6905
:10112000FB6813433B612D4B3A691A602B4B5B689C
:101130003B61FB68DA433B6913403B613B685A689B
:1011400080239B02134003D03A69FB6813433B6141
:10115000224B3A695A60214B9B683B61FB68DA433A
:101160003B6913403B613B685A6880235B03134033
:1011700003D03A69FB6813433B61184B3A699A60A4
:10118000164BDB683B61FB68DA433B6913403B610C
:101190003B685A6880239B03134003D03A69FB687D
:1011A00013433B610D4B3A69DA607B6901337B6124
:1011B0003B681A687B69DA40131E00D0A8E6C04677
:1011C000BD4606B080BDC046001002400000014090
:1011D0000004004800080048000C004800040140DA
:1011E00080B584B000AF78600A00BB1C1A807B68B1
:1011F0001B69BA1C1288134004D00F23FB1801226C
:101200001A7003E00F23FB1800221A700F23FB183B
:101210001B781800BD4604B080BD80B582B000AF19
:10122000786008001100BB1C021C1A807B1C0A1C81
:101230001A707B1C1B78002B04D0BB1C1A887B689F
:101240009A6103E0BB1C1A887B689A62C046BD465F
:1012500002B080BD80B582B000AF0200BB1D1A8015
:10126000094B5B69BA1D1288134008D0064BBA1DA2
:1012700012885A61BB1D1B88180000F007F8C04691
:10128000BD4602B080BDC0460004014080B582B0BA
:1012900000AF0200BB1D1A80C046BD4602B080BD33
:1012A00080B586B000AF786000233B617B681B6827
:1012B0000122134000D18DE0C34B5B680C22134028
:1012C000042B0ED0C04B5B680C221340082B16D1A8
:1012D000BD4B5A6880235B021A4080235B029A420E
:1012E0000DD1B94B1A6880239B02134000D170E0E6
:1012F0007B685B68002B00D06BE00123B5E27B6864
:101300005B68012B07D1B04BAF4A126880214902BC
:101310000A431A602FE07B685B68002B0CD1AA4B54
:10132000A94A1268A9490A401A60A74BA64A12683E
:10133000A7490A401A601EE07B685B68052B0ED146
:10134000A14BA14A12688021C9020A431A609E4B30
:101350009D4A1268802149020A431A600BE09A4BA9
:10136000994A126899490A401A60974B964A12683E
:1013700097490A401A607B685B68002B14D0FFF71E
:1013800091FC03003B6108E0FFF78CFC02003B6925
:10139000D31A642B01D9032367E28B4B1A6880238D
:1013A0009B021340F0D015E0FFF77CFC03003B618B
:1013B00008E0FFF777FC02003B69D31A642B01D9E0
:1013C000032352E2804B1A6880239B021340F0D122
:1013D00000E0C0467B681B680222134000D169E030
:1013E000794B5B680C2213400BD0774B5B680C2267
:1013F0001340082B1CD1744B5A6880235B021340A6
:1014000016D1714B1B680222134005D07B68DB6844
:10141000012B01D0012328E26B4A6B4B1B68F8219A
:101420008B4319007B681B69DB000B43136041E0B1
:101430007B68DB68002B24D0634B634A1268012170
:101440000A431A60FFF72EFC03003B6108E0FFF738
:1014500029FC02003B69D31A022B01D9032304E2C1
:10146000594B1B6802221340F1D0574A564B1B6858
:10147000F8218B4319007B681B69DB000B43136069
:1014800018E0514B504A126801218A431A60FFF755
:1014900009FC03003B6108E0FFF704FC02003B6924
:1014A000D31A022B01D90323DFE1474B1B68022229
:1014B0001340F1D17B681B680822134036D07B684B
:1014C000DB69002B19D0404B3F4A526A01210A4385
:1014D0005A62FFF7E7FB03003B6108E0FFF7E2FB1E
:1014E00002003B69D31A022B01D90323BDE1364B1D
:1014F0005B6A02221340F1D018E0334B324A526A41
:1015000001218A435A62FFF7CDFB03003B6108E0EB
:10151000FFF7C8FB02003B69D31A022B01D9032352
:10152000A3E1294B5B6A02221340F1D17B681B685F
:101530000422134000D1B5E01723FB1800221A70D3
:10154000214BDA6980235B05134011D11E4B1E4AE3
:10155000D269802149050A43DA611B4BDA6980238D
:101560005B051340FB60FB681723FB1801221A7010
:10157000184B1A6880235B0013401AD1154B154A8B
:101580001268802149000A431A60FFF78BFB0300B1
:101590003B6108E0FFF786FB02003B69D31A642B2E
:1015A00001D9032361E10B4B1A6880235B001340D0
:1015B000F0D07B689B68012B0ED1034B024A126A64
:1015C00001210A431A6235E000100240FFFFFEFFCE
:1015D000FFFFFBFF007000407B689B68002B0CD175
:1015E000A44BA44A126A01218A431A62A14BA14A60
:1015F000126A04218A431A621CE07B689B68052BEF
:101600000CD19C4B9B4A126A04210A431A62994BE3
:10161000984A126A01210A431A620BE0954B954AD7
:10162000126A01218A431A62924B924A126A042179
:101630008A431A627B689B68002B14D0FFF732FB49
:1016400003003B6109E0FFF72DFB02003B69D31A61
:10165000894A934201D9032307E1864B1B6A022280
:101660001340F0D013E0FFF71DFB03003B6109E0DE
:10167000FFF718FB02003B69D31A7F4A934201D956
:101680000323F2E07B4B1B6A02221340F0D11723A5
:10169000FB181B78012B05D1764B764AD269774926
:1016A0000A40DA617B681B681022134063D07B68B4
:1016B0005B69012B2AD16F4B6E4A526B04210A439E
:1016C0005A636C4B6B4A526B01210A435A63FFF712
:1016D000E9FA03003B6108E0FFF7E4FA02003B6926
:1016E000D31A022B01D90323BFE0624B5B6B0222AA
:1016F0001340F1D05F4A5F4B5B6BF8218B431900BD
:101700007B689B69DB000B43536334E07B685B6958
:10171000053311D1574B574A526B04218A435A6300
:10172000544A544B5B6BF8218B4319007B689B69CF
:10173000DB000B4353631EE04E4B4E4A526B0421B9
:101740000A435A634B4B4B4A526B01218A435A63FB
:10175000FFF7A8FA03003B6108E0FFF7A3FA0200D5
:101760003B69D31A022B01D903237EE0414B5B6B0B
:1017700002221340F1D17B681B6A002B00D173E079
:101780003C4B5B680C221340082B00D16AE07B685D
:101790001B6A022B4BD1374B364A126838490A4034
:1017A0001A60FFF77FFA03003B6108E0FFF77AFA5F
:1017B00002003B69D31A022B01D9032355E02D4BBC
:1017C0001A6880239B041340F0D12A4A294BDB6A14
:1017D0000F218B4319007B68DB6A0B43D362254AD8
:1017E000244B5B68274919407B68986A7B685B6A71
:1017F00003430B4353601F4B1E4A12688021490468
:101800000A431A60FFF74EFA03003B6108E0FFF756
:1018100049FA02003B69D31A022B01D9032324E0C1
:10182000144B1A6880239B041340F0D01CE0114B2A
:10183000104A126812490A401A60FFF733FA03008F
:101840003B6108E0FFF72EFA02003B69D31A022B36
:1018500001D9032309E0074B1A6880239B04134036
:10186000F0D101E0012300E000231800BD4606B0DE
:1018700080BDC0460010024088130000FFFFFFEF4C
:10188000FFFFFFFEFFFFC2FF80B584B000AF7860AE
:1018900039600023FB60694B1B6801221A403B68DA
:1018A0009A4211D2654B654A126801218A431100A0
:1018B0003A680A431A60614B1B6801221A403B6870
:1018C0009A4201D00123B5E07B681B6802221340D5
:1018D00009D05B4A5A4B5B68F0218B4319007B6847
:1018E0009B680B4353607B681B680122134000D147
:1018F00067E07B685B68012B07D1514B1A68802336
:101900009B02134014D1012394E07B685B68022B97
:1019100007D14B4B1A6880239B04134008D1012345
:1019200088E0474B1B680222134001D1012381E06C
:10193000434A434B5B6803218B4319007B685B6818
:101940000B435360FFF7AEF90300FB607B685B68F5
:10195000012B11D109E0FFF7A5F90200FB68D31AAA
:10196000384A934201D9032364E0354B5B680C226B
:101970001340042BEFD124E07B685B68022B1BD162
:1019800009E0FFF78FF90200FB68D31A2D4A934252
:1019900001D903234EE02A4B5B680C221340082B2D
:1019A000EFD10EE0FFF77EF90200FB68D31A254A5B
:1019B000934201D903233DE0214B5B680C22134085
:1019C000F0D11E4B1B6801221A403B689A4211D984
:1019D0001A4B1A4A126801218A4311003A680A43D5
:1019E0001A60164B1B6801221A403B689A4201D0CC
:1019F00001231FE07B681B680422134008D0104AB3
:101A00000F4B5B68104919407B68DB680B435360E0
:101A100000F020F801000A4B5B681B090F221340FD
:101A20000A4AD35C0A00DA40094B1A600020FFF72B
:101A300011F900231800BD4604B080BD002002400B
:101A40000010024088130000FFF8FFFFA0340008D8
:101A50000000002090B58FB000AF1423FB18284A77
:101A600013CA13C312681A603B1D264A13CA13C354
:101A700012681A600023FB620023BB6200237B63B1
:101A800000237B6200233B631F4B5B68FB62FB6AA6
:101A90000C221340042B02D0082B03D027E01B4B51
:101AA0003B6327E0FB6A9B0C0F2213401422BA18F9
:101AB000D35C7B62144BDB6A0F2213403A1DD35C6C
:101AC000BB62FA6A80235B02134009D0B96A0F48EF
:101AD000FEF71AFB03001A007B6A53437B6303E0A3
:101AE0007B6A0B4A53437B637B6B3B6302E0074B90
:101AF0003B63C0463B6B1800BD460FB090BDC0466F
:101B00004C3300085C3300080010024000127A00D9
:101B100000093D0080B500AF024B1B681800BD46B0
:101B200080BDC0460000002080B582B000AF786064
:101B30007B68002B01D101231EE07B683D229B5C6A
:101B4000DBB2002B07D17B683C22002199547B68D3
:101B5000180001F043FB7B683D22022199547B6809
:101B60001A687B6804331900100000F0F9F97B68EB
:101B70003D220121995400231800BD4602B080BDCA
:101B800080B582B000AF78607B68002B01D1012363
:101B90001EE07B683D229B5CDBB2002B07D17B689B
:101BA0003C22002199547B68180001F0BDFA7B6843
:101BB0003D22022199547B681A687B68043319001E
:101BC000100000F0CDF97B683D22012199540023DB
:101BD0001800BD4602B080BD80B582B000AF78600D
:101BE00039607B681B6839680122180000F01EFC10
:101BF0007B681B68134A934209D07B681B68124AB2
:101C0000934204D07B681B68104A934201D10123A0
:101C100000E00023002B08D07B681B687A681268FC
:101C2000526C802109020A435A647B681B687A68F7
:101C30001268126801210A431A6000231800BD4689
:101C400002B080BD002C014000440140004801402A
:101C500080B586B000AF7860396000237B610023D7
:101C60003B610023FB607B68002B01D101237CE0FA
:101C70007B683D229B5CDBB2002B07D17B683C225A
:101C8000002199547B68180001F06EFA7B683D22B0
:101C9000022199547B681B687A6812689268072150
:101CA0008A439A607B681A687B68043319001000C5
:101CB00000F056F97B681B689B687B617B681B683A
:101CC0009B693B617B681B681B6AFB603B681B6808
:101CD0007A6913437B613B69264A13403B613B6849
:101CE0009A683B689B691B0213433A6913433B6143
:101CF0003B69214A13403B613B69204A13403B61E9
:101D00003B68DA683B68DB691B0213433A6913439B
:101D10003B613B681B691A013B681B6A1B03134349
:101D20003A6913433B61FB6822229343FB60FB68E3
:101D300088229343FB603B685A683B685B691B01E0
:101D40001343FA681343FB607B681B687A699A60E7
:101D50007B681B683A699A617B681B68FA681A623B
:101D60007B683D220121995400231800BD4606B02E
:101D700080BDC046FCFCFFFFF3F3FFFF0F0FFFFF2A
:101D800080B582B000AF786039603B68002B02D02C
:101D9000042B08D00FE07B681B680122002118008B
:101DA00000F044FB16E07B681B6801220421180048
:101DB00000F03CFB0EE07B681B680122002118004C
:101DC00000F034FB7B681B6801220421180000F03E
:101DD0002DFBC0467B681B687A6812681268012177
:101DE0000A431A6000231800BD4602B080BD0000FF
:101DF00080B584B000AFF860B9607A60FB683C22BF
:101E00009B5C012B01D10223A4E0FB683C22012151
:101E10009954FB683D22022199547B68042B29D0F8
:101E200002D8002B05D08CE0082B46D00C2B65D0B7
:101E300087E0FB681B68BA681100180000F0FEF824
:101E4000FB681B68FA681268926908210A439A6164
:101E5000FB681B68FA681268926904218A439A61D8
:101E6000FB681B68FA6812689169BA6812690A43CC
:101E70009A6166E0FB681B68BA681100180000F000
:101E800061F9FB681B68FA68126892698021090190
:101E90000A439A61FB681B68FA68126892692F49C5
:101EA0000A409A61FB681B68FA6812689169BA680F
:101EB000126912020A439A6143E0FB681B68BA6820
:101EC0001100180000F0C2F9FB681B68FA6812687C
:101ED000D26908210A43DA61FB681B68FA68126854
:101EE000D26904218A43DA61FB681B68FA681268C8
:101EF000D169BA6812690A43DA6122E0FB681B689B
:101F0000BA681100180000F027FAFB681B68FA682D
:101F10001268D269802109010A43DA61FB681B68F3
:101F2000FA681268D2690D490A40DA61FB681B68D9
:101F3000FA681268D169BA68126912020A43DA6152
:101F4000C046FB683D2201219954FB683C220021D8
:101F5000995400231800BD4604B080BDFFFBFFFF6D
:101F600080B584B000AF786039600023FB607B6887
:101F70001B68FB607B682B4A934203D07B682A4A2C
:101F8000934208D1FB6870229343FB603B685B6817
:101F9000FA681343FB607B68224A93420FD07B6848
:101FA000214A93420BD07B68204A934207D07B683A
:101FB0001F4A934203D07B681E4A934208D1FB68B4
:101FC0001D4A1340FB603B68DB68FA681343FB6003
:101FD000FB68802293431A003B685B691343FB60F4
:101FE0007B68FA681A603B689A687B68DA623B68CB
:101FF0001A687B689A627B680A4A934207D07B68BA
:102000000B4A934203D07B680A4A934203D13B6850
:102010001A697B681A637B6801225A61C046BD4613
:1020200004B080BD002C01400004004000200040AE
:102030000044014000480140FFFCFFFF80B586B02E
:1020400000AF786039600023FB6000237B610023D0
:102050003B617B681B6A012293431A007B681A620A
:102060007B681B6A7B617B685B683B617B689B6903
:10207000FB60FB6870229343FB60FB680322934381
:10208000FB603B681B68FA681343FB607B690222B4
:1020900093437B613B689B687A6913437B617B68F0
:1020A000234A934207D07B68224A934203D07B683D
:1020B000214A93420CD17B69082293437B613B68A0
:1020C000DB687A6913437B617B69042293437B61FC
:1020D0007B68174A934207D07B68164A934203D025
:1020E0007B68154A934211D13B69144A13403B6106
:1020F0003B69134A13403B613B685B693A69134390
:102100003B613B689B693A6913433B617B683A6971
:102110005A607B68FA689A613B685A687B685A63C0
:102120007B687A691A62C046BD4606B080BDC0466B
:10213000002C01400044014000480140FFFEFFFF29
:10214000FFFDFFFF80B586B000AF786039600023E7
:10215000FB6000237B6100233B617B681B6A1022CC
:1021600093431A007B681A627B681B6A7B617B68F9
:102170005B683B617B689B69FB60FB682C4A134092
:10218000FB60FB682B4A1340FB603B681B681B022B
:10219000FA681343FB607B69202293437B613B68B1
:1021A0009B681B017A6913437B617B68224A9342D7
:1021B0000DD17B69802293437B613B68DB681B0107
:1021C0007A6913437B617B69402293437B617B681F
:1021D000194A934207D07B68184A934203D07B6820
:1021E000174A934213D13B69164A13403B613B693E
:1021F000154A13403B613B685B699B003A69134396
:102200003B613B689B699B003A6913433B617B6878
:102210003A695A607B68FA689A613B685A687B68D9
:102220009A637B687A691A62C046BD4606B080BD73
:10223000FF8FFFFFFFFCFFFF002C01400044014027
:1022400000480140FFFBFFFFFFF7FFFF80B586B0AE
:1022500000AF786039600023FB6000237B610023BE
:102260003B617B681B6A334A1A407B681A627B6851
:102270001B6A7B617B685B683B617B68DB69FB6039
:10228000FB6870229343FB60FB6803229343FB606F
:102290003B681B68FA681343FB607B69264A13405E
:1022A0007B613B689B681B027A6913437B617B6897
:1022B000224A93420DD17B69214A13407B613B68DE
:1022C000DB681B027A6913437B617B691D4A1340FB
:1022D0007B617B68194A934207D07B681A4A934214
:1022E00003D07B68194A934213D13B69184A1340C3
:1022F0003B613B69174A13403B613B685B691B01CB
:102300003A6913433B613B689B691B013A6913437C
:102310003B617B683A695A607B68FA68DA613B68BE
:102320005A687B68DA637B687A691A62C046BD4680
:1023300006B080BDFFFEFFFFFFFDFFFF002C014048
:10234000FFF7FFFFFFFBFFFF004401400048014093
:10235000FFEFFFFFFFDFFFFF80B586B000AF7860C3
:10236000396000233B610023FB6000237B617B68B5
:102370001B6A264A1A407B681A627B681B6AFB60EC
:102380007B685B687B617B68DB693B613B69204AFA
:1023900013403B613B691F4A13403B613B681B682C
:1023A0001B023A6913433B61FB681B4A1340FB6005
:1023B0003B689B681B03FA681343FB607B68174A02
:1023C000934207D07B68164A934203D07B68154A34
:1023D000934209D17B69144A13407B613B685B6976
:1023E0009B017A6913437B617B687A695A607B68D9
:1023F0003A69DA613B685A687B681A647B68FA68F4
:102400001A62C046BD4606B080BDC046FFEFFFFF62
:10241000FF8FFFFFFFFCFFFFFFDFFFFF002C0140EE
:102420000044014000480140FFBFFFFF80B586B077
:1024300000AFF860B9607A6000237B610122BB685D
:102440009A4013007B61FB681B6A7A69D2431A4089
:10245000FB681A62FB681A6A7968BB6899400B00CE
:102460001A43FB681A62C046BD4606B080BD80B5FF
:1024700082B000AF786039607B683C229B5C012BA6
:1024800001D1022332E07B683C22012199547B6810
:102490003D22022199547B681B687A681268526851
:1024A00070218A435A607B681B687A681268516899
:1024B0003A6812680A435A607B681B687A68126837
:1024C000926880218A439A607B681B687A681268E8
:1024D00091683A6852680A439A607B683D220121FC
:1024E00099547B683C220021995400231800BD4672
:1024F00002B080BD80B584B000AF78603960002341
:10250000FB607B683C229B5C012B01D102234DE0E8
:102510007B683C22012199547B683D220221995419
:10252000FB68FF2293431A003B68DB681343FB60A0
:10253000FB68204A1A403B689B681343FB60FB68BA
:102540001D4A1A403B685B681343FB60FB681B4AEB
:102550001A403B681B681343FB60FB68184A1A402B
:102560003B681B691343FB60FB68164A1A403B68D3
:102570005B691343FB60FB68134A1A403B689B6925
:102580001343FB60FB68114A1A403B689B69134385
:10259000FB607B681B68FA685A647B683D220121F6
:1025A00099547B683C220021995400231800BD46B1
:1025B00004B080BDFFFCFFFFFFFBFFFFFFF7FFFF45
:1025C000FFEFFFFFFFDFFFFFFFBFFFFFFF7FFFFF0B
:1025D00082B080B584B000AFF860B9601100042209
:1025E00018208446BC4462441360BB1D0A1C1A8038
:1025F000FB689422002199543E4B1B683E4A5A6264
:102600003C4B1B685B6A9AB2FB689A80FB689B88AC
:102610001A00FB681A60FB6800229A71FB68BA68AE
:102620009A60FB68BA1D12889A81FB689868FB68FB
:102630009B8900221900FEF7F0FDFB680422182197
:102640008C46BC446244103311004022180000F054
:102650005FFEFB68442218218C46BC446244503320
:1026600011004022180000F053FEFB68842218215C
:102670008C46BC446244902112885A52FB688822DE
:1026800018218C46BC446244922112885A52FB683D
:1026900010331800FB6890229B5A1900FFF79CFA30
:1026A000FB6850331800FB6892229B5A1900FFF711
:1026B00093FAFB681B6934331A00FB6890215B5A5C
:1026C0009B089BB29B00D31800221A60FB681B6D0D
:1026D00034331A00FB6892215B5A9B089BB29B0023
:1026E000D31800221A60C046BD4604B080BC08BCA6
:1026F00002B01847BC010020606D000090B583B0A7
:1027000000AF386079600022002338687968FDF7EF
:102710009DFD031E06D03B683B607B68802212064D
:1027200053407B603B687C6818002100BD4603B0C5
:1027300090BD000090B583B000AF786039607B68D1
:1027400098687B689B8901221900FEF766FD7B680B
:102750003A681A60654B1B685B6A9AB27B689A801C
:102760007B681B687A6892889B1A1800FEF7FEF94E
:1027700003000C0018002100FFF7C0FF03000C004D
:1027800018002100FDF78AFD0300D9B27B6894226E
:1027900099547B6894229B5CAE2B00D97DE07B68CA
:1027A0009422AF21995478E07B689B881A007B685B
:1027B0001B689A4228DD1FE07B681B6934331A00CE
:1027C0007B6890215B5A9B089BB29B00D318FF2229
:1027D0001A607B681B6D34331A007B6892215B5A48
:1027E0009B089BB29B00D31800221A603F4B1B68CA
:1027F0005B6A9AB27B689A807B689B881A007B68C8
:102800001B689A42D8DC2EE07B689B881A007B68A4
:102810001B689A4227DA1FE07B681B6934331A0071
:102820007B6890215B5A9B089BB29B00D3180022C7
:102830001A607B681B6D34331A007B6892215B5AE7
:102840009B089BB29B00D318FF221A60274B1B6882
:102850005B6A9AB27B689A807B689B881A007B6867
:102860001B689A42D8DB7B681B6934331A007B688B
:1028700090215B5A9B089BB29B00D31800221A60E0
:102880007B681B6D34331A007B6892215B5A9B086E
:102890009BB29B00D31800221A607B689B881A00A9
:1028A0007B681B68D31A1800FEF760F903000C0060
:1028B00018002100FFF722FF00220D4BFDF7DAFC84
:1028C000031E00D070E77B6898687B689B890022B4
:1028D0001900FEF7A2FC054B1B685B6A9AB27B6885
:1028E0009A80C046BD4603B090BDC046BC010020E2
:1028F0000000144080B584B000AFF860B9603B6060
:10290000BB1D1A80FB68BA681A60FB68BA1D128882
:102910009A80FB683A689A60FB681822BA18128895
:102920009A81C046BD4604B080BD000090B587B016
:1029300000AF78607B68186B7B682F229B5C9BB232
:102940001622BC181900FEF74BFC03002370FEF79B
:10295000A9F903003B61334B1B683A69D31AFA2B80
:1029600005D9314B00221A70304B00221A702D4BC2
:102970003A691A602C4B1A780F23FB18013A1A7027
:102980000F23FB181B78072B10D81623FB181A7877
:102990000F23FB181B789A4013005AB2234B1B7865
:1029A0005BB213435BB2DAB2204B1A701E4B1B783A
:1029B0000133DAB21C4B1A701B4B1B780B2B2CD13A
:1029C0007B682D229B5CDAB21723FB1801321A7048
:1029D0001723FB181B782C2B03D91723FB18002275
:1029E0001A707B682E229B5CDBB21722BA18127811
:1029F0009A420CD01723FB181B780C4A11787A687E
:102A0000D1547B681722BA182D2112785A54064BDC
:102A100000221A70054B00221A70C046BD4607B04E
:102A200090BDC0462000002024000020250000208A
:102A300080B584B000AFF860B9603B60FB1D1A70D0
:102A4000FB68BA681A63FB68FA1D2F2112785A5482
:102A5000FB683A689A63FB681822BA183421127826
:102A60005A54FB680A4A1A64FB682D2200219954C3
:102A7000FB682E2200219954FB683C2200219954C6
:102A8000FB683D2200219954C046BD4604B080BD7C
:102A90008C33000880B588B000AF464B454A526978
:102AA0008021C9030A435A61424B5A698023DB03E0
:102AB0001340BB60BB683F4B3E4A5269802189028C
:102AC0000A435A613B4B5A6980239B0213407B6047
:102AD0007B68394B002203211800FEF79EFB9023F0
:102AE000DB05002208211800FEF797FB0C23FB18DA
:102AF00003221A600C23FB1801225A600C23FB18D6
:102B000000229A600C23FB180022DA600C23FB18C9
:102B1000294A19001000FEF7EFF90C23FB180122D7
:102B20001A600C23FB18254A5A600C23FB1800225C
:102B30009A600C23FA189023DB0511001800FEF7A9
:102B4000DBF90C23FB1806221A600C23FB18002269
:102B50005A600C23FB1800229A600C23FA18902369
:102B6000DB0511001800FEF7C7F90C23FB1808223B
:102B70001A600C23FB1801225A600C23FB18002258
:102B80009A600C23FB180022DA600C23FA189023B9
:102B9000DB0511001800FEF7AFF900220021052027
:102BA000FEF750F90520FEF763F9C046BD4608B0B0
:102BB00080BDC04600100240001400480000111003
:102BC00080B500AF034B1800FFF7B0FEC046BD460E
:102BD00080BDC0462C000020F0B5A3B022AFFEF7A8
:102BE00025F800F071F8FFF755FF00F00FFA00F03C
:102BF0006BF900F071FA2D4B18211800FFF7C0F89F
:102C00002B4C2C4E2C4D0823209304231F93284A31
:102C10003C236B441800110040231A0000F078FB9D
:102C20006B461800231D3C22190000F071FB23683D
:102C3000012231002800FFF7CBFC9023DA05902316
:102C4000D9051E480823009313000422FFF752FE03
:102C50009023DA059023D905194801230093130026
:102C60000222FFF7E5FE174B04220021180000F0B6
:102C700058FB114B1B6878331A000F4B11001800DA
:102C8000FFF758FDFA239B001800FEF715F80A4BD2
:102C90001B68783B1A00084B11001800FFF74AFD2B
:102CA000FA239B001800FEF707F8E2E7BC010020BA
:102CB000FC0100200014004888000020780000205B
:102CC0002C0000202001002080B590B000AF102320
:102CD000FB1802221A601023FB180122DA6010236D
:102CE000FB1810221A611023FB1800221A6210230D
:102CF000FB181800FEF7D4FA031E06D082235A00F0
:102D00001C4B1100180000F037F83B0007221A6036
:102D10003B0000225A603B0000229A603B000022E8
:102D2000DA603B0000211800FEF7AEFD031E07D05D
:102D30001223FF331A000F4B1100180000F01CF88B
:102D4000FEF7E8FE0200FA2399001000FDF7DCF917
:102D500003001800FEF79CF80420FEF7A7F80123F3
:102D60005B42002200211800FEF76CF8C046BD4609
:102D700010B080BD6C33000880B582B000AF7860C1
:102D80003960FEE780B582B000AF194B184A9269EE
:102D900001210A439A61164B9B69012213407B6013
:102DA0007B68134B124AD269802149050A43DA61D4
:102DB0000F4BDA6980235B0513403B603B680523BA
:102DC0005B42002200211800FEF73CF802235B4220
:102DD000002200211800FEF735F801235B42002293
:102DE00000211800FEF72EF8C046BD4602B080BD97
:102DF0000010024080B500AFC046BD4680BD80B522
:102E000000AFFEE780B500AFC046BD4680BD80B5CF
:102E100000AFC046BD4680BD80B500AFFDF736FFB0
:102E2000FEF75EF8C046BD4680BD80B500AFFFF737
:102E3000C7FE0120FEF70EFAC046BD4680BD000069
:102E400080B500AF1A4B1A4A126801210A431A6072
:102E5000174B174A526817490A405A60144B144AD4
:102E6000126815490A401A60114B114A1268134939
:102E70000A401A600E4B0E4A526811490A405A60C5
:102E80000B4B0B4AD26A0F218A43DA62084B084A7D
:102E9000126B0C490A401A63054B054A526B01211B
:102EA0008A435A63024B00229A60C046BD4680BDE9
:102EB000001002400CB8FF08FFFFF6FEFFFFFBFF0B
:102EC000FFFFC0FFECFEFFFF80B590B000AF4C4BA2
:102ED0004C4A1A604A4B04225A60494B00229A60BD
:102EE000474BFF22DA60464B00221A61444B002216
:102EF0005A61434B00229A61414B1800FEF740FE95
:102F0000031E04D0404B45211800FFF735FF38233E
:102F1000FB1800221A603823FB1800225A6038235D
:102F2000FA18374B11001800FFF7A1FA031E04D05E
:102F3000354B4C211800FFF71FFF1C23FB186022A4
:102F40001A601C23FB1800225A601C23FB18002265
:102F50009A601C23FB180022DA601C23FB18002255
:102F60001A611C23FB1800225A611C23FB18002243
:102F70009A611C23F918224B04221800FEF738FF2F
:102F8000031E04D0204B58211800FFF7F5FE1C2328
:102F9000F9181B4B08221800FEF72AFF031E04D065
:102FA000194B5D211800FFF7E7FE3B0000221A6075
:102FB0003B0000225A603B0000229A603B00002246
:102FC000DA603B0000221A613B00802292015A61C4
:102FD0003B0000229A613A00094B11001800FFF7EC
:102FE00089FA031E04D0084B69211800FFF7C4FEBC
:102FF000034B180000F012F9C046BD4610B080BD6A
:10300000FC010020002C01407C33000880B58CB00E
:1030100000AF2D4B2D4A1A602B4B00225A602A4BD1
:1030200000229A60284B2A4ADA60274B00221A6154
:10303000254B00229A610C23FB1802221A600C23F4
:10304000FB1802225A600C23FB1801229A600C2301
:10305000FB180022DA600C23FB180A221A610C23E9
:10306000FB1802225A610C23FB1801229A610C23DF
:10307000FB180022DA610C23FB180A221A620C23C7
:10308000FA18114B11001800FEF7E2FD031E04D0E0
:10309000104B86211800FFF76FFE3B1D00221A60BF
:1030A0003B1D00225A603A1D074B11001800FFF724
:1030B000DEF9031E04D0074B8D211800FFF75CFEDC
:1030C000C046BD460CB080BDBC01002000040040DD
:1030D000FFFF00007C33000880B500AF0F4B104AA3
:1030E0001A600E4B04225A600C4B00229A600B4B64
:1030F000FF22DA60094B00221A61084B00229A6114
:10310000064B1800FEF710FD031E04D0054B9D2151
:103110001800FFF731FEC046BD4680BD3C020020CE
:10312000002000407C33000880B584B000AF786098
:103130007B681B680A4A93420DD10A4B094A92697F
:10314000802109010A439A61064B9A6980231B0179
:103150001340FB60FB68C046BD4604B080BDC0465E
:10316000002C01400010024080B588B000AF7860AC
:103170007B681B68174A934227D1174B164AD269BE
:1031800002210A43DA61144BDB6902221340BB605F
:10319000BB680C23FB18C0221A600C23FB18022208
:1031A0005A600C23FB1800229A600C23FB180022A3
:1031B000DA600C23FB1801221A610C23FA18902301
:1031C000DB0511001800FDF797FEC046BD4608B0AC
:1031D00080BDC046000400400010024080B584B0AD
:1031E00000AF78607B681B680A4A93420DD10A4B96
:1031F000094AD269802149000A43DA61064BDA693B
:1032000080235B001340FB60FB68C046BD4604B0F2
:1032100080BDC046002000400010024080B588B04C
:1032200000AF78607B681B68114A93421CD10C2365
:10323000FB18C022D2001A600C23FB1802225A602D
:103240000C23FB1800229A600C23FB180022DA6082
:103250000C23FB1802221A610C23FA189023DB05B9
:1032600011001800FDF748FEC046BD4608B080BDFD
:10327000002C01400D4885460D480E490E4A00239A
:1032800002E0D458C4500433C4188C42F9D30B4A1A
:103290000B4C002301E013600432A242FBD3FFF782
:1032A000CFFD00F011F8FFF797FCFEE700100020BB
:1032B0000000002004000020B834000804000020B2
:1032C0007C020020FEE7000070B500260C4D0D4C7E
:1032D000641BA410A64209D1002600F02BF80A4D69
:1032E0000A4C641BA410A64205D170BDB300EB5874
:1032F00098470136EEE7B300EB5898470136F2E7FE
:10330000B0340008B0340008B0340008B434000809
:10331000002310B59A4200D110BDCC5CC4540133D7
:10332000F8E703008218934200D170471970013307
:10333000F9E70000F8B5C046F8BC08BC9E467047E7
:0C334000F8B5C046F8BC08BC9E467047BB
:10334C0002030405060708090A0B0C0D0E0F1010DA
:10335C000102030405060708090A0B0C0D0E0F10D9
:10336C002E2E2F5372632F6D61696E2E6300000039
:10337C002E2E2F5372632F74696D2E630000000084
:10338C0000000000000000000000000000096000C8
:10339C00000000000071310000007A736177320088
:1033AC0000637864653433000020766674723500EF
:1033BC00006E62686779360000006D6A75373800F8
:1033CC00002C6B696F303900002E2F6C3B702D0078
:1033DC00000027005B3D000000000D5D005C00005C
:1033EC000000000000007F000031003437000000B6
:1033FC00302E323536381B00002B332D2A39000085
:10340C0000000000000000000000000000000000B0
:10341C0000000000000000000000000000000000A0
:10342C000000000000000000000000000000000090
:10343C000000000000000000000000000000000080
:10344C000000000000000000000000000000000070
:10345C000000000000000000000000000000000060
:10346C000000000000000000000000000000000050
:10347C000000000000000000000000000000000040
:10348C000000000000000000000000000000000030
:10349C000000000000000000000000000102030416
:0434AC0006070809FE
:0434B000E900000827
:0434B400C10000084B
:0434B80000127A0084
:040000050800327548
:00000001FF
