:020000040800F2
:1000000000100020893B0008E1350008EB350008AE
:1000100000000000000000000000000000000000E0
:10002000000000000000000000000000F1350008A2
:100030000000000000000000FB3500080536000845
:10004000D93B000800000000D93B0008D93B00085C
:10005000D93B000817360008D93B0008D93B0008F7
:1000600000000000D93B0008D93B0008D93B00083C
:10007000D93B0008D93B0008D93B0008000000002C
:10008000D93B00080000000000000000D93B000838
:1000900000000000D93B0008D93B0008D93B00080C
:1000A00000000000D93B000800000000D93B000818
:1000B0000000000000000000000000000000000040
:1000C00010B5064C2378002B07D1054B002B02D02E
:1000D000044800E000BF0123237010BD2801002068
:1000E00000000000483C0008044B10B5002B03D072
:1000F0000349044800E000BF10BDC04600000000F6
:100100002C010020483C00080023C25C0133002A77
:10011000FBD1581E70470000002243088B4274D365
:1001200003098B425FD3030A8B4244D3030B8B42F8
:1001300028D3030C8B420DD3FF22090212BA030C01
:100140008B4202D31212090265D0030B8B4219D3E2
:1001500000E0090AC30B8B4201D3CB03C01A524102
:10016000830B8B4201D38B03C01A5241430B8B424A
:1001700001D34B03C01A5241030B8B4201D30B0333
:10018000C01A5241C30A8B4201D3CB02C01A52415A
:10019000830A8B4201D38B02C01A5241430A8B421D
:1001A00001D34B02C01A5241030A8B4201D30B0206
:1001B000C01A5241CDD2C3098B4201D3CB01C01A20
:1001C000524183098B4201D38B01C01A524143092A
:1001D0008B4201D34B01C01A524103098B4201D318
:1001E0000B01C01A5241C3088B4201D3CB00C01A85
:1001F000524183088B4201D38B00C01A52414308FD
:100200008B4201D34B00C01A5241411A00D2014621
:10021000524110467047FFE701B5002000F006F894
:1002200002BDC0460029F7D076E770477047C04648
:100230008446101C62468C46191C634600E0C0468A
:100240001FB500F0EFF8002801D40021C8421FBDFF
:1002500010B500F049F84042013010BD10B500F073
:10026000E1F8002801DB002010BD012010BDC046D0
:1002700010B500F0D7F8002801DD002010BD0120E6
:1002800010BDC04610B500F069F8002801DC002060
:1002900010BD012010BDC04610B500F05FF8002869
:1002A00001DA002010BD012010BDC04670B500224B
:1002B0000C4B04000D00FFF7EFFF002804D12000D5
:1002C000290000F027FC70BD064B00222000290009
:1002D00000F00AF900F01EFC80231B069C466044D7
:1002E000F1E7C0460000E041F0B54F464646D6462D
:1002F0005C00C0B51F03DB0F9A46174B0E034D0081
:1003000084468046360B6D0DC90F91463F0B640D38
:1003100001209D4208D09C4201D0A5420BD01CBCBC
:1003200090469946A246F0BD63463343F7D1AC42AE
:10033000F5D13A43F3D10120BE42F0D1C845EED108
:10034000514507D0002DEAD163461E433000461EBA
:10035000B041E4E70020E2E7FF070000F0B54546C2
:10036000DE4657464E46E0B51F033D0B2C4F0E03AD
:100370004C00AB465D008446360B640DC90F9046B9
:100380006D0DDB0FBC422AD0254FBD422DD0002C75
:100390000FD130430700814678427841C0B2002D2A
:1003A00017D15F463A4314D14B460020002B0AD0A8
:1003B00006E0002D02D15846024301D0994218D0E0
:1003C0004842012108433CBC90469946A246AB46B0
:1003D000F0BD0028F2D00120013B1843F3E73700BD
:1003E0000743D1D002204042EDE75F461743CED00D
:1003F000F8E7AC42E4DC03DA481E01210843E2E7F7
:100400005E45DDD806D000205E45DCD20123481EC3
:100410001843D8E7C445D3D80020C445F6D3D2E763
:10042000FF070000F0B54E464546DE4657465C00E5
:10043000E0B51F03DB0F99462A4B0E034D00C90F91
:100440008446360B6D0D8B4690463F0B640D9D42E6
:1004500020D0244B9C4222D0002D12D13043434265
:100460004341DBB2002C1FD0002B0CD04B460120A7
:10047000013B034318003CBC90469946A246AB465C
:10048000F0BD002C16D0CB4517D05B465942012356
:100490000B43EFE7310002230143EBD1D9E73900E9
:1004A00002231143E6D1D7E73A43DDD100230028E8
:1004B000E0D0EAE73A43E6D1E7E7A542E5DC05DB31
:1004C000BE42E2D807D00023BE42D3D25946012310
:1004D00001390B43CEE7C445D7D80023C445F5D333
:1004E000C8E7C046FF070000F0B54646D6464F466F
:1004F0000C03C0B5CD0F4E00610A440F0C43C10080
:100500005800400D84468A460F001903500F490ACF
:100510000143C648760DA846DB0FD200844500D1C2
:10052000D8E001204340AB4200D1A6E06046351A36
:10053000002D00DC05E1002810D10B00134300D191
:10054000D7E06B1E002B00D04BE153469F1ABA45F3
:100550008041641A4042241A01261EE0B34B9E4299
:1005600048D080231B041943382D00DD19E11F2DCD
:1005700000DD4CE120230F005B1B10009A409F40E0
:10058000E840531E9A41E940074317435346DF1B97
:10059000611ABA45A44164420C1B230200D4C5E091
:1005A0006402650A002D00D1F6E0280000F01EFB71
:1005B0000300083B1F2B00DDE9E020223C00D21A9B
:1005C0009D40D4409F4025439E4200DDDBE09E1BC2
:1005D000731C1F2B00DD0AE120223800D21A2900EB
:1005E00097402C009140D8407A1E9741DC4000266D
:1005F00001430F437B0709D00F233B40042B05D059
:100600003B1DBB42BF417F42E4191F00230225D599
:10061000864B01369E4200D1AFE0854B01251C4040
:1006200043466207FF08640276051743240B760DE4
:100630001D4000212403230B0C0D7E4A24051C437E
:100640001440330523435B00ED075B082B43380060
:1006500019001CBC90469946A246F0BD01254346B0
:100660006207FF081743E4081D40704B9E4236D0D6
:1006700024037605240B760DDBE76346F31A002B83
:1006800000DC94E06046002835D068488642B1D04E
:1006900080273F043943382B00DCFDE00A43170074
:1006A00000217A1E97415744574580410919444219
:1006B0000C1923023AD55D4B01369E4200D14BE125
:1006C00001225B4B1C407B0817401F43E207174386
:1006D00064088FE70800104300D024E721E72300D7
:1006E0003B4300D1B9E18022120314432403240BBD
:1006F0009FE72E007EE70800104300D1CAE0581E95
:100700008446002800D0E7E05244524580416418F6
:100710004042241817000126230207D50226CFE7FE
:1007200064462C4300D1B3E12C0067467B0700D020
:1007300062E76307FF081F4301254346E4081D40A5
:1007400093E7002D78D1751C6D056D0D012D00DC32
:10075000F2E05046801A8245BF41651A7F42ED1B88
:100760008446280200D48CE05046171ABA429241BF
:100770000C1B5542651B984614E70125434600248F
:100780001D40002755E72A4CF61A2C4032E73D0061
:1007900028388540002717E7380000F027FA203076
:1007A00006E70A43170000217A1E9741EEE6002B68
:1007B00000D0E5E0731C9C465B055B0D012B00DC63
:1007C0009FE01A4B9C4500D1C5E052445245804100
:1007D000641840422418E707520817436408664625
:1007E00008E71248854200D185E01D00BCE62900DB
:1007F0001F3EF140202B00D17FE04022D31A9D40C4
:100800002F437D1EAF4100240F4300268EE72B00AF
:100810000F00203BDF40202D71D040235D1BA940FD
:100820000A43511E8A4100211743AFE6FF0700002B
:10083000FFFF7FFFFFFF0F80002E3ED0B34EB44579
:1008400045D0802636046D423443382D00DDA8E0C3
:100850001F2D00DD1FE1202627005046761BB740E4
:10086000E84007435046B040461EB041EC40384394
:10087000171ABA4292410C1B5242A41A6646984675
:100880008BE6644667462C4300D08BE600250026A5
:100890000027EAE61E00ADE61F2B60DC2027F81AD1
:1008A0000F00844687401000D840074360468240CE
:1008B000501E8241D9401743F5E6260050460643B4
:1008C00005D0ED43002DD3D0904EB445BDD10C00E2
:1008D0001700664698468DE68C4883420BD06346E7
:1008E000D9E6002D00D096E00800104300D1E2E0E8
:1008F0000C0017009846854E7CE6002580E7002115
:100900008EE7230050460343002E00D0A8E0002BC2
:1009100000D1DEE00B00134300D16BE65244524598
:1009200080416418404224181700230200D4FDE6D9
:10093000774B66461C405DE6250050460543002E79
:10094000CFD1002D4FD10C00144300D1A0E00C00FA
:10095000170098464EE666460024002785E61F00ED
:100960000800203FF8400700202B00D18EE04020F7
:10097000C31A99400A43511E8A410021174392E647
:10098000002E14D126005046064362D0DB43002BD4
:100990005CD187189742924164185242A418664667
:1009A00087E650462043441EA041002460E7574E8E
:1009B000B4454ED0802636045B423443382B00DDEC
:1009C0007FE01F2B00DD8BE0202627005046F61A23
:1009D000B740D84007435046B040461EB041074399
:1009E000DC40BF18D6E70D00154300D102E65046A3
:1009F000801A8245BF41651A7F42ED1B844628025A
:100A000000D48DE65046171ABA4292410C1B52424E
:100A1000A41A9846EEE50D00154300D16BE7504649
:100A20006707C00807438020E4080003044207D09A
:100A3000CD08054204D12C009846D70849070F433A
:100A40007B0FE4001C43FF00304ED3E52F4EB4452E
:100A5000B4D10C0017006646CCE500270024E8E579
:100A6000002B39D00B00134300D144E7C0086707BF
:100A700007438020E40800030442E1D0CB0803428E
:100A8000DED1D70849070F431C00D9E7002171E7E1
:100A900000250027E9E52E002700203EF740202D05
:100AA0002FD04026751BAC4050462043441EA04129
:100AB00000243843DCE6802400252403134E00275D
:100AC000D3E5504620430700781E87410024BF1815
:100AD00060E70C0017008DE50C0017000B4E89E550
:100AE0001E002700203EF740202B0CD04026F31A92
:100AF0009C4050462043441EA04107430024BF1899
:100B000048E70024D0E70024F3E7C046FF070000D1
:100B1000FFFF7FFF30B5134D0A034B00120B5B0D37
:100B2000C90F0024AB4210DD0F4CA3420FDC802420
:100B30000E4D64032243ED1A1F2D0BDD0C48C31A22
:100B4000DA405442002900D11400200030BD094B86
:100B5000CC18FAE7084CE840A44663449A400243A4
:100B6000EFE7C046FE0300001D0400003304000050
:100B700013040000FFFFFF7FEDFBFFFF10B5041E15
:100B800028D000F033F8154B154A1B1AD21A1F2A29
:100B900015DD144AD21A9440002224035B05240B6D
:100BA0005B0D0021100024030A0D240B12052243C3
:100BB0000D4C1B05224013435B00590810BD21005A
:100BC00091400A000B21081AC4405B052403240B42
:100BD0005B0DE6E7002300240022E2E71E0400008C
:100BE0003304000013040000FFFF0F801C210123C9
:100BF0001B04984201D3000C10391B0A984201D300
:100C0000000A08391B09984201D30009043902A2DD
:100C1000105C40187047C046040302020101010144
:100C2000000000000000000080B500AF074B074A3D
:100C3000126810210A431A60002000F009F802F03F
:100C400097FC00231800BD4680BDC046002002402E
:100C500080B582B000AF786000F05AFF0200FA233E
:100C600099001000FFF758FA0300180000F00EF981
:100C7000796801235B420022180000F0E1F80023AC
:100C80001800BD4602B080BD80B500AF034B1B68A5
:100C90005A1C024B1A60C046BD4680BD4C01002064
:100CA00080B500AF024B1B681800BD4680BDC04632
:100CB0004C01002080B584B000AF7860FFF7F0FFF2
:100CC0000300BB607B68FB60FB68013302D0FB68FC
:100CD0000133FB60C046FFF7E3FF0200BB68D21A96
:100CE000FB689A42F7D3C046BD4604B080BD000001
:100CF00080B582B000AF0200FB1D1A70064BFA1DD2
:100D0000127811001F220A40012191400A001A6046
:100D1000C046BD4602B080BD00E100E0B0B582B083
:100D200000AF02003960FB1D1A70FB1D1B787F2B82
:100D300032D92F4CFB1D1B781A000F231340083BA0
:100D400099082B4AFB1D1B7818000F230340083B12
:100D50009B0806339B00D31804331B68FA1D1278D6
:100D6000100003220240D200FF2090400200D24334
:100D70001A403B689B01FF201840FB1D1B781D009B
:100D800003232B40DB00984003001A438B1D9B007C
:100D9000E31804331A6027E0164CFB1D1B785BB286
:100DA0009B081449FA1D127852B29208C032920080
:100DB0005258F91D0978080003210140C900FF209D
:100DC00088400100C94311403A689201FF20104059
:100DD000FA1D1278150003222A40D200904002002A
:100DE0000A43C0339B001A51C046BD4602B0B0BD95
:100DF00000ED00E000E100E080B582B000AF786077
:100E00007B68013B0C4A934201D9012310E00B4B54
:100E10007A68013A5A6001235B4203211800FFF708
:100E20007DFF064B00229A60044B07221A600023C4
:100E30001800BD4602B080BDFFFFFF0010E000E0DB
:100E400080B584B000AFB9607A600F23FB18021C34
:100E50001A70BA680F23FB181B785BB211001800D8
:100E6000FFF75CFFC046BD4604B080BD80B582B0D0
:100E700000AF0200FB1D1A70FB1D1B785BB218004F
:100E8000FFF736FFC046BD4602B080BD80B582B0D8
:100E900000AF78607B681800FFF7AEFF0300180012
:100EA000BD4602B080BD000080B582B000AF786062
:100EB0007B68042B06D1084B074A126804210A43B9
:100EC0001A6005E0044B044A126804218A431A6040
:100ED000C046BD4602B080BD10E000E080B500AF66
:100EE00000F003F8C046BD4680BD80B500AFC046E7
:100EF000BD4680BD80B586B000AF78603960002304
:100F00007B610023FB6000233B614FE13B681B6872
:100F100001217A6991400A001340FB60FB68002BB5
:100F200000D140E13B685B68022B03D03B685B6803
:100F3000122B23D17B69DA087B6808329200D358E0
:100F40003B617B69072213409B000F229A401300EC
:100F5000DA433B6913403B613B681A697B690721AF
:100F60000B409B009A4013003A6913433B617B6935
:100F7000DA087B68083292003969D1507B681B68B7
:100F80003B617B695B0003229A401300DA433B69B3
:100F900013403B613B685B6803221A407B695B003E
:100FA0009A4013003A6913433B617B683A691A60BF
:100FB0003B685B68012B0BD03B685B68022B07D05A
:100FC0003B685B68112B03D03B685B68122B30D108
:100FD0007B689B683B617B695B0003229A4013003E
:100FE000DA433B6913403B613B68DA687B695B002D
:100FF0009A4013003A6913433B617B683A699A60EF
:101000007B685B683B6101227B699A401300DA438D
:101010003B6913403B613B685B681B0901221A4036
:101020007B699A4013003A6913433B617B683A69D4
:101030005A607B68DB683B617B695B0003229A40F6
:101040001300DA433B6913403B613B689A687B6954
:101050005B009A4013003A6913433B617B683A692D
:10106000DA603B685A6880235B05134000D19AE040
:10107000544B544A926901210A439A61514B9B692E
:1010800001221340BB60BB684F4A7B699B08023357
:101090009B009B583B617B69032213409B000F22FE
:1010A0009A401300DA433B6913403B617A6890230E
:1010B000DB059A4213D07B68444A93420DD07B688B
:1010C000434A934207D07B68424A934201D10323AB
:1010D00006E0052304E0022302E0012300E00023F0
:1010E0007A6903210A40920093403A6913433B61B5
:1010F00035497B699B0802339B003A695A50364B4D
:101100001B683B61FB68DA433B6913403B613B680A
:101110005A6880235B02134003D03A69FB6813438B
:101120003B612D4B3A691A602B4B5B683B61FB6856
:10113000DA433B6913403B613B685A6880239B025A
:10114000134003D03A69FB6813433B61224B3A6971
:101150005A60214B9B683B61FB68DA433B69134053
:101160003B613B685A6880235B03134003D03A69B4
:10117000FB6813433B61184B3A699A60164BDB6876
:101180003B61FB68DA433B6913403B613B685A684B
:1011900080239B03134003D03A69FB6813433B61F0
:1011A0000D4B3A69DA607B6901337B613B681A68F1
:1011B0007B69DA40131E00D0A8E6C046BD4606B0E3
:1011C00080BDC046001002400000014000040048FD
:1011D00000080048000C00480004014080B584B0BD
:1011E00000AF78600A00BB1C1A807B681B69BA1CC0
:1011F0001288134004D00F23FB1801221A7003E059
:101200000F23FB1800221A700F23FB181B781800FD
:10121000BD4604B080BD80B582B000AF78600800E4
:101220001100BB1C021C1A807B1C0A1C1A707B1C40
:101230001B78002B04D0BB1C1A887B689A6103E0E2
:10124000BB1C1A887B689A62C046BD4602B080BD4E
:1012500080B582B000AF0200BB1D1A80094B5B69EC
:10126000BA1D1288134008D0064BBA1D12885A6165
:10127000BB1D1B88180000F007F8C046BD4602B031
:1012800080BDC0460004014080B582B000AF0200BE
:10129000BB1D1A80C046BD4602B080BD80B586B079
:1012A00000AF786000233B617B681B68012213401C
:1012B00000D18DE0C34B5B680C221340042B0ED091
:1012C000C04B5B680C221340082B16D1BD4B5A68EB
:1012D00080235B021A4080235B029A420DD1B94BF6
:1012E0001A6880239B02134000D170E07B685B6822
:1012F000002B00D06BE00123B5E27B685B68012B1B
:1013000007D1B04BAF4A1268802149020A431A60E4
:101310002FE07B685B68002B0CD1AA4BA94A1268AE
:10132000A9490A401A60A74BA64A1268A7490A4071
:101330001A601EE07B685B68052B0ED1A14BA14AA9
:1013400012688021C9020A431A609E4B9D4A1268A6
:10135000802149020A431A600BE09A4B994A1268AD
:1013600099490A401A60974B964A126897490A4071
:101370001A607B685B68002B14D0FFF791FC0300B8
:101380003B6108E0FFF78CFC02003B69D31A642B39
:1013900001D9032367E28B4B1A6880239B02134019
:1013A000F0D015E0FFF77CFC03003B6108E0FFF79D
:1013B00077FC02003B69D31A642B01D9032352E264
:1013C000804B1A6880239B021340F0D100E0C04696
:1013D0007B681B680222134000D169E0794B5B688F
:1013E0000C2213400BD0774B5B680C221340082B68
:1013F0001CD1744B5A6880235B02134016D1714B89
:101400001B680222134005D07B68DB68012B01D0EA
:10141000012328E26B4A6B4B1B68F8218B431900B0
:101420007B681B69DB000B43136041E07B68DB6872
:10143000002B24D0634B634A126801210A431A60CF
:10144000FFF72EFC03003B6108E0FFF729FC0200D8
:101450003B69D31A022B01D9032304E2594B1B68C1
:1014600002221340F1D0574A564B1B68F8218B4398
:1014700019007B681B69DB000B43136018E0514BBC
:10148000504A126801218A431A60FFF709FC0300E1
:101490003B6108E0FFF704FC02003B69D31A022B12
:1014A00001D90323DFE1474B1B6802221340F1D12E
:1014B0007B681B680822134036D07B68DB69002BF1
:1014C00019D0404B3F4A526A01210A435A62FFF742
:1014D000E7FB03003B6108E0FFF7E2FB02003B692A
:1014E000D31A022B01D90323BDE1364B5B6A0222DA
:1014F0001340F1D018E0334B324A526A01218A433B
:101500005A62FFF7CDFB03003B6108E0FFF7C8FB21
:1015100002003B69D31A022B01D90323A3E1294B13
:101520005B6A02221340F1D17B681B6804221340DE
:1015300000D1B5E01723FB1800221A70214BDA699D
:1015400080235B05134011D11E4B1E4AD2698021B6
:1015500049050A43DA611B4BDA6980235B051340B6
:10156000FB60FB681723FB1801221A70184B1A68DE
:1015700080235B0013401AD1154B154A1268802155
:1015800049000A431A60FFF78BFB03003B6108E048
:10159000FFF786FB02003B69D31A642B01D90323B2
:1015A00061E10B4B1A6880235B001340F0D07B682D
:1015B0009B68012B0ED1034B024A126A01210A4398
:1015C0001A6235E000100240FFFFFEFFFFFFFBFF45
:1015D000007000407B689B68002B0CD1A44BA44A90
:1015E000126A01218A431A62A14BA14A126A04219C
:1015F0008A431A621CE07B689B68052B0CD19C4BCC
:101600009B4A126A04210A431A62994B984A126A49
:1016100001210A431A620BE0954B954A126A012197
:101620008A431A62924B924A126A04218A431A62CE
:101630007B689B68002B14D0FFF732FB03003B61F3
:1016400009E0FFF72DFB02003B69D31A894A934258
:1016500001D9032307E1864B1B6A02221340F0D015
:1016600013E0FFF71DFB03003B6109E0FFF718FBE8
:1016700002003B69D31A7F4A934201D90323F2E067
:101680007B4B1B6A02221340F0D11723FB181B78F7
:10169000012B05D1764B764AD26977490A40DA6147
:1016A0007B681B681022134063D07B685B69012B49
:1016B0002AD16F4B6E4A526B04210A435A636C4B1A
:1016C0006B4A526B01210A435A63FFF7E9FA0300A0
:1016D0003B6108E0FFF7E4FA02003B69D31A022BF2
:1016E00001D90323BFE0624B5B6B02221340F1D0B0
:1016F0005F4A5F4B5B6BF8218B4319007B689B69EA
:10170000DB000B43536334E07B685B69053311D125
:10171000574B574A526B04218A435A63544A544BDD
:101720005B6BF8218B4319007B689B69DB000B43E3
:1017300053631EE04E4B4E4A526B04210A435A63D8
:101740004B4B4B4A526B01218A435A63FFF7A8FA6D
:1017500003003B6108E0FFF7A3FA02003B69D31ADC
:10176000022B01D903237EE0414B5B6B0222134025
:10177000F1D17B681B6A002B00D173E03C4B5B68A6
:101780000C221340082B00D16AE07B681B6A022BF5
:101790004BD1374B364A126838490A401A60FFF776
:1017A0007FFA03003B6108E0FFF77AFA02003B6929
:1017B000D31A022B01D9032355E02D4B1A6880233D
:1017C0009B041340F0D12A4A294BDB6A0F218B433B
:1017D00019007B68DB6A0B43D362254A244B5B68A4
:1017E000274919407B68986A7B685B6A03430B430F
:1017F00053601F4B1E4A1268802149040A431A6035
:10180000FFF74EFA03003B6108E0FFF749FA0200D8
:101810003B69D31A022B01D9032324E0144B1A6825
:1018200080239B041340F0D01CE0114B104A126837
:1018300012490A401A60FFF733FA03003B6108E0DF
:10184000FFF72EFA02003B69D31A022B01D90323BA
:1018500009E0074B1A6880239B041340F0D101E094
:10186000012300E000231800BD4606B080BDC0463D
:101870000010024088130000FFFFFFEFFFFFFFFE94
:10188000FFFFC2FF80B584B000AF786039600023ED
:10189000FB60694B1B6801221A403B689A4211D2D7
:1018A000654B654A126801218A4311003A680A4370
:1018B0001A60614B1B6801221A403B689A4201D0B2
:1018C0000123B5E07B681B680222134009D05B4A04
:1018D0005A4B5B68F0218B4319007B689B680B4374
:1018E00053607B681B680122134000D167E07B686E
:1018F0005B68012B07D1514B1A6880239B02134070
:1019000014D1012394E07B685B68022B07D14B4B19
:101910001A6880239B04134008D1012388E0474BB9
:101920001B680222134001D1012381E0434A434B4B
:101930005B6803218B4319007B685B680B43536032
:10194000FFF7AEF90300FB607B685B68012B11D1E8
:1019500009E0FFF7A5F90200FB68D31A384A934261
:1019600001D9032364E0354B5B680C221340042B40
:10197000EFD124E07B685B68022B1BD109E0FFF705
:101980008FF90200FB68D31A2D4A934201D9032331
:101990004EE02A4B5B680C221340082BEFD10EE07F
:1019A000FFF77EF90200FB68D31A254A934201D95A
:1019B00003233DE0214B5B680C221340F0D11E4B0A
:1019C0001B6801221A403B689A4211D91A4B1A4AE5
:1019D000126801218A4311003A680A431A60164BC3
:1019E0001B6801221A403B689A4201D001231FE084
:1019F0007B681B680422134008D0104A0F4B5B68B9
:101A0000104919407B68DB680B43536000F020F8F5
:101A100001000A4B5B681B090F2213400A4AD35C82
:101A20000A00DA40094B1A600020FFF711F9002381
:101A30001800BD4604B080BD0020024000100240E6
:101A400088130000FFF8FFFF843E000824010020F7
:101A500090B58FB000AF1423FB18284A13CA13C3E4
:101A600012681A603B1D264A13CA13C312681A6013
:101A70000023FB620023BB6200237B6300237B62A5
:101A800000233B631F4B5B68FB62FB6A0C22134025
:101A9000042B02D0082B03D027E01B4B3B6327E02D
:101AA000FB6A9B0C0F2213401422BA18D35C7B6292
:101AB000144BDB6A0F2213403A1DD35CBB62FA6AF7
:101AC00080235B02134009D0B96A0F48FEF724FB5C
:101AD00003001A007B6A53437B6303E07B6A0B4A73
:101AE00053437B637B6B3B6302E0074B3B63C04626
:101AF0003B6B1800BD460FB090BDC046603C00086F
:101B0000703C00080010024000127A0000093D00FD
:101B100080B500AF024B1B681800BD4680BDC046B3
:101B20002401002080B582B000AF78607B68002B74
:101B300001D101231EE07B683D229B5CDBB2002BC0
:101B400007D17B683C22002199547B68180001F082
:101B500085FF7B683D22022199547B681A687B6867
:101B600004331900100000F001FA7B683D220121C6
:101B7000995400231800BD4602B080BD80B582B0E4
:101B800000AF78607B68002B01D101231EE07B68E9
:101B90003D229B5CDBB2002B07D17B683C220021FD
:101BA00099547B68180001F009FF7B683D220221EF
:101BB00099547B681A687B6804331900100000F0A0
:101BC000D5F97B683D220121995400231800BD46B8
:101BD00002B080BD80B582B000AF786039607B68AC
:101BE0001B6839680122180000F026FC7B681B681E
:101BF000134A934209D07B681B68124A934204D06F
:101C00007B681B68104A934201D1012300E0002346
:101C1000002B08D07B681B687A681268526C8021A0
:101C200009020A435A647B681B687A681268126862
:101C300001210A431A6000231800BD4602B080BD8E
:101C4000002C0140004401400048014080B586B0AE
:101C500000AF7860396000237B6100233B61002383
:101C6000FB607B68002B01D101237CE07B683D2277
:101C70009B5CDBB2002B07D17B683C22002199548E
:101C80007B68180000F07AF87B683D2202219954A5
:101C90007B681B687A681268926807218A439A6099
:101CA0007B681A687B6804331900100000F05EF945
:101CB0007B681B689B687B617B681B689B693B61D9
:101CC0007B681B681B6AFB603B681B687A6913436F
:101CD0007B613B69264A13403B613B689A683B68DD
:101CE0009B691B0213433A6913433B613B69214AD9
:101CF00013403B613B69204A13403B613B68DA6813
:101D00003B68DB691B0213433A6913433B613B6841
:101D10001B691A013B681B6A1B0313433A6913438F
:101D20003B61FB6822229343FB60FB68882293435C
:101D3000FB603B685A683B685B691B011343FA68A8
:101D40001343FB607B681B687A699A607B681B6839
:101D50003A699A617B681B68FA681A627B683D225F
:101D60000121995400231800BD4606B080BDC0462D
:101D7000FCFCFFFFF3F3FFFF0F0FFFFF80B582B006
:101D800000AF7860C046BD4602B080BD80B582B06D
:101D900000AF786039603B68002B02D0042B08D07C
:101DA0000FE07B681B6801220021180000F044FB53
:101DB00016E07B681B6801220421180000F03CFB40
:101DC0000EE07B681B6801220021180000F034FB44
:101DD0007B681B6801220421180000F02DFBC0461F
:101DE0007B681B687A681268126801210A431A60CE
:101DF00000231800BD4602B080BD000080B584B04D
:101E000000AFF860B9607A60FB683C229B5C012BF4
:101E100001D10223A4E0FB683C2201219954FB6814
:101E20003D22022199547B68042B29D002D8002B33
:101E300005D08CE0082B46D00C2B65D087E0FB68E2
:101E40001B68BA681100180000F0FEF8FB681B68F8
:101E5000FA681268926908210A439A61FB681B6854
:101E6000FA681268926904218A439A61FB681B68C8
:101E7000FA6812689169BA6812690A439A6166E061
:101E8000FB681B68BA681100180000F061F9FB6874
:101E90001B68FA6812689269802109010A439A61F5
:101EA000FB681B68FA68126892692F490A409A61B8
:101EB000FB681B68FA6812689169BA6812691202B5
:101EC0000A439A6143E0FB681B68BA681100180076
:101ED00000F0C2F9FB681B68FA681268D269082131
:101EE0000A43DA61FB681B68FA681268D269042148
:101EF0008A43DA61FB681B68FA681268D169BA68BC
:101F000012690A43DA6122E0FB681B68BA681100B3
:101F1000180000F027FAFB681B68FA681268D2699B
:101F2000802109010A43DA61FB681B68FA681268BC
:101F3000D2690D490A40DA61FB681B68FA681268C9
:101F4000D169BA68126912020A43DA61C046FB68B5
:101F50003D2201219954FB683C2200219954002321
:101F60001800BD4604B080BDFFFBFFFF80B584B004
:101F700000AF786039600023FB607B681B68FB6002
:101F80007B682B4A934203D07B682A4A934208D14C
:101F9000FB6870229343FB603B685B68FA681343FD
:101FA000FB607B68224A93420FD07B68214A9342B0
:101FB0000BD07B68204A934207D07B681F4A93422C
:101FC00003D07B681E4A934208D1FB681D4A134028
:101FD000FB603B68DB68FA681343FB60FB688022A8
:101FE00093431A003B685B691343FB607B68FA68A4
:101FF0001A603B689A687B68DA623B681A687B689B
:102000009A627B680A4A934207D07B680B4A9342E4
:1020100003D07B680A4A934203D13B681A697B6804
:102020001A637B6801225A61C046BD4604B080BD78
:10203000002C01400004004000200040004401400A
:1020400000480140FFFCFFFF80B586B000AF78601C
:1020500039600023FB6000237B6100233B617B68C8
:102060001B6A012293431A007B681A627B681B6A11
:102070007B617B685B683B617B689B69FB60FB689D
:1020800070229343FB60FB6803229343FB603B6831
:102090001B68FA681343FB607B69022293437B61F0
:1020A0003B689B687A6913437B617B68234A934250
:1020B00007D07B68224A934203D07B68214A93422F
:1020C0000CD17B69082293437B613B68DB687A69AA
:1020D00013437B617B69042293437B617B68174ACE
:1020E000934207D07B68164A934203D07B68154A17
:1020F000934211D13B69144A13403B613B69134A37
:1021000013403B613B685B693A6913433B613B6841
:102110009B693A6913433B617B683A695A607B6803
:10212000FA689A613B685A687B685A637B687A6987
:102130001A62C046BD4606B080BDC046002C0140B4
:102140000044014000480140FFFEFFFFFFFDFFFF8C
:1021500080B586B000AF786039600023FB60002353
:102160007B6100233B617B681B6A102293431A004A
:102170007B681A627B681B6A7B617B685B683B617A
:102180007B689B69FB60FB682C4A1340FB60FB6823
:102190002B4A1340FB603B681B681B02FA68134321
:1021A000FB607B69202293437B613B689B681B013A
:1021B0007A6913437B617B68224A93420DD17B6924
:1021C000802293437B613B68DB681B017A69134380
:1021D0007B617B69402293437B617B68194A934210
:1021E00007D07B68184A934203D07B68174A934212
:1021F00013D13B69164A13403B613B69154A1340B2
:102200003B613B685B699B003A6913433B613B68F8
:102210009B699B003A6913433B617B683A695A604A
:102220007B68FA689A613B685A687B689A637B6846
:102230007A691A62C046BD4606B080BDFF8FFFFFB7
:10224000FFFCFFFF002C014000440140004801401A
:10225000FFFBFFFFFFF7FFFF80B586B000AF7860A0
:1022600039600023FB6000237B6100233B617B68B6
:102270001B6A334A1A407B681A627B681B6A7B615F
:102280007B685B683B617B68DB69FB60FB68702295
:102290009343FB60FB6803229343FB603B681B682E
:1022A000FA681343FB607B69264A13407B613B68F5
:1022B0009B681B027A6913437B617B68224A9342C5
:1022C0000DD17B69214A13407B613B68DB681B02AF
:1022D0007A6913437B617B691D4A13407B617B688C
:1022E000194A934207D07B681A4A934203D07B680D
:1022F000194A934213D13B69184A13403B613B6929
:10230000174A13403B613B685B691B013A69134301
:102310003B613B689B691B013A6913433B617B68E6
:102320003A695A607B68FA68DA613B685A687B6888
:10233000DA637B687A691A62C046BD4606B080BD22
:10234000FFFEFFFFFFFDFFFF002C0140FFF7FFFF37
:10235000FFFBFFFF0044014000480140FFEFFFFF8B
:10236000FFDFFFFF80B586B000AF786039600023E3
:102370003B610023FB6000237B617B681B6A264A6C
:102380001A407B681A627B681B6AFB607B685B682B
:102390007B617B68DB693B613B69204A13403B61A1
:1023A0003B691F4A13403B613B681B681B023A694B
:1023B00013433B61FB681B4A1340FB603B689B680F
:1023C0001B03FA681343FB607B68174A934207D0EC
:1023D0007B68164A934203D07B68154A934209D121
:1023E0007B69144A13407B613B685B699B017A6996
:1023F00013437B617B687A695A607B683A69DA616A
:102400003B685A687B681A647B68FA681A62C0463F
:10241000BD4606B080BDC046FFEFFFFFFF8FFFFF48
:10242000FFFCFFFFFFDFFFFF002C014000440140E5
:1024300000480140FFBFFFFF80B586B000AFF860E5
:10244000B9607A6000237B610122BB689A40130067
:102450007B61FB681B6A7A69D2431A40FB681A6287
:10246000FB681A6A7968BB6899400B001A43FB68DD
:102470001A62C046BD4606B080BD80B582B000AFCE
:10248000786039607B683C229B5C012B01D1022380
:1024900032E07B683C22012199547B683D22022175
:1024A00099547B681B687A681268526870218A4365
:1024B0005A607B681B687A68126851683A681268CB
:1024C0000A435A607B681B687A68126892688021A8
:1024D0008A439A607B681B687A68126891683A68D8
:1024E00052680A439A607B683D22012199547B68B7
:1024F0003C220021995400231800BD4602B080BD43
:1025000080B584B000AF786039600023FB607B68E1
:102510003C229B5C012B01D102234DE07B683C22D5
:10252000012199547B683D2202219954FB68FF22C6
:1025300093431A003B68DB681343FB60FB68204A47
:102540001A403B689B681343FB60FB681D4A1A40B6
:102550003B685B681343FB60FB681B4A1A403B689F
:102560001B681343FB60FB68184A1A403B681B69F1
:102570001343FB60FB68164A1A403B685B691343D0
:10258000FB60FB68134A1A403B689B691343FB607E
:10259000FB68114A1A403B689B691343FB607B68E8
:1025A0001B68FA685A647B683D22012199547B6854
:1025B0003C220021995400231800BD4604B080BD80
:1025C000FFFCFFFFFFFBFFFFFFF7FFFFFFEFFFFF3A
:1025D000FFDFFFFFFFBFFFFFFF7FFFFF82B080B580
:1025E00084B000AFF860B96011000422182084465E
:1025F000BC4462441360BB1D0A1C1A80FB6898220D
:1026000000219954FB6800221A603A4B1B685A6AF1
:10261000FB685A60FB6800221A72FB68BA68DA60CD
:10262000FB68BA1D12881A82FB68D868FB681B8A8F
:1026300000221900FEF7EFFDFB68042218218C46EA
:10264000BC446244143311004022180001F0EAFA3D
:10265000FB68442218218C46BC4462445433110068
:102660004022180001F0DEFAFB68842218218C4613
:10267000BC446244942112885A52FB688822182173
:102680008C46BC446244962112885A52FB6814332B
:102690001800FB6894229B5A1900FFF79BFAFB680D
:1026A00054331800FB6896229B5A1900FFF792FAE0
:1026B000FB685B6934331A00FB6894215B5A9B0802
:1026C0009BB29B00D31800221A60FB685B6D343309
:1026D0001A00FB6896215B5A9B089BB29B00D3189B
:1026E00000221A60C046BD4604B080BC08BC02B0DF
:1026F0001847C046E802002090B583B000AF3860AC
:1027000079600022002338687968FDF7A7FD031E71
:1027100006D03B683B607B688022120653407B609A
:102720003B687C6818002100BD4603B090BD0000E6
:1027300090B583B000AF786039607B68D8687B68FB
:102740001B8A01221900FEF766FD7B683A681A6051
:10275000574B1B685A6A7B685A607B681B681A0073
:102760007B685B68D31A1800FEF708FA03000C00B8
:1027700018002100FFF7C0FF03000C001800210023
:10278000FDF794FD0300D9B27B68982299547B68C9
:1027900098229B5CAE2B03D87B689822AF2199547A
:1027A0007B685A687B681B689A4228D920E07B685E
:1027B0005B6934331A007B6894215B5A9B089BB297
:1027C0009B00D3187A689821525C1A607B685B6D15
:1027D00034331A007B6896215B5A9B089BB29B009E
:1027E000D31800221A60324B1B685A6A7B685A6001
:1027F0007B685A687B681B689A42D8D82DE07B6852
:102800005A687B681B689A4227D220E07B685B6924
:1028100034331A007B6894215B5A9B089BB29B005F
:10282000D31800221A607B685B6D34331A007B6812
:1028300096215B5A9B089BB29B00D3187A6898211B
:10284000525C1A601A4B1B685A6A7B685A607B6834
:102850005A687B681B689A42D8D37B685B693433BB
:102860001A007B6894215B5A9B089BB29B00D3188B
:1028700000221A607B685B6D34331A007B689621F6
:102880005B5A9B089BB29B00D31800221A607B689E
:10289000D8687B681B8A00221900FEF7BCFC044B39
:1028A0001B685A6A7B685A60C046BD4603B090BD3B
:1028B000E802002080B584B000AFF860B9603B60EA
:1028C000BB1D1A80FB68BA681A60FB68BA1D1288C3
:1028D0009A80FB683A689A60FB681822BA181288D6
:1028E0009A81C046BD4604B080BD80B582B000AFBD
:1028F000786039607B6818687B689B8801221900C2
:10290000FEF789FC7B6898687B689B890022190028
:10291000FEF781FC3B681800FEF7CCF97B6818686D
:102920007B689B8800221900FEF775FC7B6898681D
:102930007B689B8900221900FEF76DFCC046BD46EE
:1029400002B080BD80B582B000AF786039607B682E
:1029500018687B689B8800221900FEF75CFC7B6886
:1029600098687B689B8901221900FEF754FC3B683C
:102970001800FEF79FF97B6818687B689B88002227
:102980001900FEF748FC7B6898687B689B890022E9
:102990001900FEF740FCC046BD4602B080BD0000F5
:1029A00090B587B000AF78607B68186B7B682F228A
:1029B0009B5C9BB21622BC181900FEF70FFC0300AB
:1029C0002370FEF76DF903003B61334B1B683A69D6
:1029D000D31AFA2B05D9314B00221A70304B002242
:1029E0001A702D4B3A691A602C4B1A780F23FB187A
:1029F000013A1A700F23FB181B78072B10D81623E7
:102A0000FB181A780F23FB181B789A4013005AB250
:102A1000234B1B785BB213435BB2DAB2204B1A70C4
:102A20001E4B1B780133DAB21C4B1A701B4B1B7800
:102A30000B2B2CD17B682D229B5CDAB21723FB1861
:102A400001321A701723FB181B782C2B03D917237C
:102A5000FB1800221A707B682E229B5CDBB21722C7
:102A6000BA1812789A420CD01723FB181B780C4A1C
:102A700011787A68D1547B681722BA182D21127800
:102A80005A54064B00221A70054B00221A70C04699
:102A9000BD4607B090BDC04644010020480100205B
:102AA0004901002080B584B000AF78600F23FB1887
:102AB0007A682E21525C1A707B682D229B5CDBB2F7
:102AC0000F22BA1812789A4201D1002320E00F2376
:102AD000FB181A780F23FB1801321A700F23FB180A
:102AE0001B782C2B03D90F23FB1800221A700F23FD
:102AF000FB181A780E23FB1879688A5C1A707B68B9
:102B00000F22BA182E2112785A540E23FB181B7864
:102B10001800BD4604B080BD90B585B000AF7860A8
:102B20000E23FC187B681800FFF7BCFF030023701E
:102B30000E23FB181B78002B01D1002319E10E2373
:102B4000FB181B78F02B07D18C4B1B780122134309
:102B5000DAB28A4B1A70E3E70E23FB181B78E02BDE
:102B600007D1864B1B7802221343DAB2834B1A70CB
:102B7000D6E7824B1B781A000123134033D00E2373
:102B8000FB181B78122B07D17C4B1B780422934334
:102B9000DAB27A4B1A701EE00E23FB181B78592B01
:102BA00007D1764B1B7808229343DAB2734B1A7025
:102BB00011E00E23FB181B78112B0CD16F4B1B78E7
:102BC0001A000223134006D06C4B1B78102293434B
:102BD000DAB26A4B1A70694B1B7803229343DAB25C
:102BE000664B1A70C4E00E23FB181B78122B07D11A
:102BF000624B1B7804221343DAB2604B1A70B7E0C1
:102C00000E23FB181B78592B07D15C4B1B7808222D
:102C10001343DAB2594B1A70AAE00E23FB181B7843
:102C2000112B0CD1554B1B781A000223134006D0F0
:102C3000524B1B7810221343DAB2504B1A700F23F9
:102C4000FB1800221A704D4B1B781A000223134008
:102C500047D00E23FB181B784A3B332B00D975E075
:102C60009A00474BD3181B689F460F23FB1800227E
:102C70001A706CE00F23FB1800221A7067E00F2314
:102C8000FB1819221A7062E00F23FB187F221A70BA
:102C90005DE00F23FB1800221A7058E00F23FB1889
:102CA0001A221A7053E00F23FB180B221A704EE001
:102CB0000F23FB1808221A7049E00F23FB180A2281
:102CC0001A7044E00F23FB1815221A703FE00F23FF
:102CD000FB182F221A703AE00F23FB180D221A70EE
:102CE00035E0264B1B781A001023134017D07B6861
:102CF0001B6C88229B58002B11D00E23FB181B78CD
:102D0000872B24D87B681B6C8C331A000E23FB188E
:102D10001B78D2180F23FB1812781A7017E0174B84
:102D20001B781A000C23134011D10E23FB181B78BB
:102D3000872B0CD87B681B6C1A000E23FB181B78A2
:102D4000D2180F23FB1812781A7000E0C0460B4B04
:102D50001B7803229343DAB2084B1A700F23FB1837
:102D60001B78002B00D1DBE60F23FB181B7800E05B
:102D7000D6E61800BD4605B090BDC0464A01002009
:102D8000B43D000880B582B000AF78607B683C221B
:102D90009B5C002B04D17B683D229B5C002B01D007
:102DA000012310E07B681800FFF7B6FE030019004E
:102DB0007B683C2299547B683C229B5C002B01D0B1
:102DC000012300E000231800BD4602B080BD90B58D
:102DD00085B000AF78600F23FB187A683D21525C04
:102DE0001A700F23FB181B78002B04D07B683D2240
:102DF0000021995439E00F23FB187A683C21525C7A
:102E00001A700F23FB181B78002B04D07B683C2220
:102E10000021995407E00F23FC187B681800FFF786
:102E20007BFE030023700F23FB181B785BB2002B83
:102E30001BDA0F23FB181B785BB23F2213405BB2F7
:102E40008022524213435BB2D9B27B683D2299542F
:102E50000F23FB181B789B09DBB25BB24022524266
:102E600013435AB20F23FB181A700F23FB181B7859
:102E7000002B01D1FF2302E00F23FB181B78180061
:102E8000BD4605B090BD000080B584B000AFF860CD
:102E9000B9603B60FB1D1A70FB68BA681A63FB6877
:102EA000FA1D2F2112785A54FB683A689A63FB681E
:102EB0001822BA18342112785A54FB680A4A1A6444
:102EC000FB682D2200219954FB682E220021995481
:102ED000FB683C2200219954FB683D220021995453
:102EE000C046BD4604B080BDA03C000890B585B08A
:102EF00000AF786008001100FB1C021C1A70BB1C9C
:102F00000A1C1A70BB1C1B782F2B21D9BB1C1B78E9
:102F1000392B1DD80023FB6016E0FB687A68D118B6
:102F2000BB1C1B78303B1A00FB1C1C782C48130080
:102F30005B009B181B199B00C218FB68D3181B78F9
:102F40000B70FB680133FB60FB68032BE5DD42E09F
:102F5000BB1C1B78402B08D9BB1C1B785A2B04D8F0
:102F6000BB1CBA1C127820321A700023BB6027E009
:102F7000BB1C1B78602B17D9BB1C1B787A2B13D872
:102F8000BB687A68D118BB1C1B78613B1A00FB1C1C
:102F90001C78144813005B009B181B195B00C218B7
:102FA000BB68D3181B780B70BB1C1B78202B04D17B
:102FB000BB687A68D31800221A70BB680133BB6003
:102FC000BB68012BD4DD7B68023300221A707B685A
:102FD000033300221A70C046BD4605B090BDC046FE
:102FE000A80000200000002080B584B000AF786009
:102FF00008001100BB1C021C1A807B1C0A1C1A70E2
:103000007B681800FDF780F802000E23FB181A8079
:103010000E23FB181A88BB1C00215B5E013B9A4201
:103020000FD00E23FB181B887A68D3187A1C1278ED
:103030001A700E23FB181B8801337A68D3180022FC
:103040001A70C046BD4604B080BD80B582B000AFE6
:1030500078607B6800221A70C046BD4602B080BD11
:1030600080B588B000AF4D4B4C4A52698021C903EE
:103070000A435A61494B5A698023DB031340BB6002
:10308000BB68464B454A5269802189020A435A610E
:10309000424B5A6980239B0213407B607B683F4B05
:1030A0003E4A52698021C9020A435A613B4B5A6920
:1030B0008023DB0213403B603B68394B0022032135
:1030C0001800FEF7A8F89023DB050022082118005D
:1030D000FEF7A1F80C23FB1803221A600C23FB183F
:1030E00001225A600C23FB1800229A600C23FB1863
:1030F0000022DA600C23FB18294A19001000FDF7A2
:10310000F9FE0C23FB1801221A600C23FB18254A38
:103110005A600C23FB1800229A600C23FA189023A3
:10312000DB0511001800FDF7E5FE0C23FB18062255
:103130001A600C23FB1800225A600C23FB18002293
:103140009A600C23FA189023DB0511001800FDF794
:10315000D1FE0C23FB1808221A600C23FB18012255
:103160005A600C23FB1800229A600C23FB180022E3
:10317000DA600C23FA189023DB0511001800FDF724
:10318000B9FE002200210520FDF75AFE0520FDF7BB
:103190006DFEC046BD4608B080BDC046001002406E
:1031A000001400480000111080B500AF034B180058
:1031B000FFF7F6FBC046BD4680BDC046500100206B
:1031C000F0B5A9B022AFFDF72FFD00F073F9FFF7BE
:1031D00047FF00F011FB00F06DFA00F09DFBA74BDC
:1031E00018211800FEF7D2FDA54CA64EA64D0C23C3
:1031F000209300231F93A14A3C236B441800110025
:1032000040231A0000F00EFD6B461800231D3C22DF
:10321000190000F007FD2368012231002800FFF7A4
:10322000DDF99A4C974E9A4D0823209304231F935F
:10323000964A3C236B441800110040231A0000F00A
:10324000F1FC6B461800231D3C22190000F0EAFC3B
:103250002368022231002800FFF7C0F99023DA0525
:103260009023D9058B480823009313000422FFF70D
:1032700021FB9023DA059023D90587480123009389
:1032800013000222FFF700FE844B042200211800E5
:1032900000F0D1FC804B1800FFF774FD031EF9D03D
:1032A0009023DB05012220211800FDF7B4FF322016
:1032B000FDF700FD9023DB05002220211800FDF71B
:1032C000AAFFFC1C744B1800FFF781FD030023705C
:1032D000FB1C1B780D2B09D1714B01221A70C046C3
:1032E0006F4B1B78002B00D1C3E007E0FB1C1A7862
:1032F0006C4B05211800FFF777FECBE700237B61BD
:10330000A3E07B69012B3FD1664B1800FCF7FCFE64
:1033100003009AB21223FB18013A1A807B69D9B2D2
:103320001223FB181B885F4AD25C5C4B1800FFF726
:10333000DDFD0323FB6013E0584AFB68D3181B78BC
:10334000002B09D0504B1B68574A9A184E4B11005E
:103350001800FFF7EDF900E0C046FB680133FB60A1
:10336000FB68002BE8DA484B1B68504A9A18464B1A
:1033700011001800FFF7DCF91223FB181222BA180B
:103380001288013A1A80C9E70A23FB1800221A8022
:1033900045E07B69D9B20A23FB181B88414AD25CFD
:1033A0003E4B1800FFF7A2FD00237B6021E03B4A63
:1033B0007B68D3181B78002B1FD0384A7B68D31842
:1033C0001B78012B09D1334B64211800FFF78DFACC
:1033D000304B64211800FFF7B5FA2B4B1B68344AB9
:1033E0009A18294B11001800FFF7A2F97B680133E6
:1033F0007B607B68032BDADD00E0C046224B1B6854
:10340000FE2292009A18204B11001800FFF790F945
:103410000A23FB181A880A23FB1801321A800A2390
:10342000FB181C881F4B1800FCF76EFE03009C4223
:10343000AFD3174B1B681E4A9A18154B1100180082
:10344000FFF776F97B6901337B617B69022B00DC36
:1034500057E70F4B1B689A1D0D4B11001800FFF723
:1034600067F9094B00211800FFF762F90C4B0022A5
:103470001A700C4B1800FFF7E8FD0BE7E80200207C
:103480006803002000140048AC010020280300203D
:103490004C0200209C010020500100204802002026
:1034A000200100209401002003FCFFFF08FCFFFF27
:1034B000FD03000080B590B000AF1023FB1802227E
:1034C0001A601023FB180122DA601023FB18102267
:1034D0001A611023FB1800221A621023FB1818002F
:1034E000FDF7DCFE031E06D080235A001C4B1100A2
:1034F000180000F037F83B0007221A603B0000225A
:103500005A603B0000229A603B000022DA603B00D8
:1035100000211800FEF7B6F9031E07D00E23FF3373
:103520001A000F4B1100180000F01CF8FEF7F0FA1B
:103530000200FA2399001000FCF7EEFD03001800CA
:10354000FDF7A4FC0420FDF7AFFC01235B42002241
:1035500000211800FDF774FCC046BD4610B080BDC8
:10356000803C000880B582B000AF78603960FEE72B
:1035700080B582B000AF194B184A926901210A4305
:103580009A61164B9B69012213407B607B68134B49
:10359000124AD269802149050A43DA610F4BDA6980
:1035A00080235B0513403B603B6805235B420022A0
:1035B00000211800FDF744FC02235B420022002199
:1035C0001800FDF73DFC01235B420022002118009A
:1035D000FDF736FCC046BD4602B080BD001002407B
:1035E00080B500AFC046BD4680BD80B500AFFEE7E8
:1035F00080B500AFC046BD4680BD80B500AFC046B7
:10360000BD4680BD80B500AFFDF73EFBFDF766FC13
:10361000C046BD4680BD80B500AFFFF7C5FD0120A7
:10362000FDF716FEC046BD4680BD000080B500AF68
:103630001A4B1A4A126801210A431A60174B174A9B
:10364000526817490A405A60144B144A12681549C7
:103650000A401A60114B114A126813490A401A6055
:103660000E4B0E4A526811490A405A600B4B0B4AE6
:10367000D26A0F218A43DA62084B084A126B0C495E
:103680000A401A63054B054A526B01218A435A636B
:10369000024B00229A60C046BD4680BD0010024029
:1036A0000CB8FF08FFFFF6FEFFFFFBFFFFFFC0FFA8
:1036B000ECFEFFFF80B590B000AF4C4B4C4A1A6057
:1036C0004A4B04225A60494B00229A60474BFF2222
:1036D000DA60464B00221A61444B00225A61434B88
:1036E00000229A61414B1800FEF748FA031E04D0ED
:1036F000404B45211800FFF735FF3823FB18002207
:103700001A603823FB1800225A603823FA18374B06
:1037100011001800FEF7B1FE031E04D0354B4C21FA
:103720001800FFF71FFF1C23FB1860221A601C23E0
:10373000FB1800225A601C23FB1800229A601C23ED
:10374000FB180022DA601C23FB1800221A611C23DC
:10375000FB1800225A611C23FB1800229A611C23CB
:10376000F918224B04221800FEF748FB031E04D070
:10377000204B58211800FFF7F5FE1C23F9181B4BAE
:1037800008221800FEF73AFB031E04D0194B5D21F6
:103790001800FFF7E7FE3B0000221A603B00002202
:1037A0005A603B0000229A603B000022DA603B0036
:1037B00000221A613B00802292015A613B000022E4
:1037C0009A613A00094B11001800FEF799FE031E9A
:1037D00004D0084B69211800FFF7C4FE034B180002
:1037E00000F05CF9C046BD4610B080BD2803002043
:1037F000002C0140903C000880B592B000AF434BD4
:10380000434A1A60414B04225A60404B00229A609E
:103810003E4BFF22DA603D4B00221A613B4B0022F7
:103820009A613A4B1800FEF7A9F9031E04D0394BF0
:103830007E211800FFF796FE2423FB1802221A604F
:103840002423FB1802225A602423FB1801229A60C9
:103850002423FB180022DA602423FB1800221A61BB
:103860002423FB1802225A612423FB1801229A61A7
:103870002423FB180022DA612423FB1800221A6299
:103880002423FA18214B11001800FEF7DFF9031E5C
:1038900004D0204B8C211800FFF764FE1C23FB187A
:1038A00000221A601C23FB1800225A601C23FA18FD
:1038B000164B11001800FEF7E0FD031E04D0154B57
:1038C00093211800FFF74EFE3B0060221A603B0078
:1038D00000225A603B0000229A603B0000221A61DD
:1038E00039000A4B0C221800FEF788FA031E04D098
:1038F000084B9C211800FFF735FE044B180000F020
:10390000CDF8C046BD4612B080BDC046E8020020DA
:1039100000040040903C000880B588B000AF244B04
:10392000244A1A60224B04225A60214B00229A60DA
:103930001F4BFF22DA601E4B00221A611C4B002233
:103940009A611B4B1800FEF7EDF8031E04D01A4BCA
:10395000AF211800FFF706FE154B1800FEF70EF911
:10396000031E04D0144BB4211800FFF7FBFD3B1DD0
:1039700060221A603B1D00225A603B1D00229A60A3
:103980003B1D00221A61391D094B00221800FEF769
:1039900035FA031E04D0084BBD211800FFF7E2FDE5
:1039A000034B180000F07AF8C046BD4608B080BD51
:1039B0006803002000200040903C000880B58AB0D9
:1039C00000AF78607B681B68214A93420ED1214B7F
:1039D000204A9269802109010A439A611D4B9A6924
:1039E00080231B0113403B613B692CE07B681B6813
:1039F000194A934227D1174B164AD26902210A432A
:103A0000DA61144BDB6902221340FB60FB6814236C
:103A1000FB18C0221A601423FB1802225A601423D8
:103A2000FB1800229A601423FB180022DA6014238A
:103A3000FB1801221A611423FA189023DB051100E8
:103A40001800FDF757FAC046BD460AB080BDC04613
:103A5000002C0140001002400004004080B584B0FA
:103A600000AF78607B681B680A4A93420DD10A4B0D
:103A7000094AD269802149000A43DA61064BDA69B2
:103A800080235B001340FB60FB68C046BD4604B06A
:103A900080BDC046002000400010024080B588B0C4
:103AA00000AF78607B681B68334A93421DD10C23BA
:103AB000FB18C022D2001A600C23FB1802225A60A5
:103AC0000C23FB1800229A600C23FB180022DA60FA
:103AD0000C23FB1802221A610C23FA189023DB0531
:103AE00011001800FDF706FA41E07B681B68234AC5
:103AF00093421BD10C23FB1802221A600C23FB18E3
:103B000002225A600C23FB1800229A600C23FB1837
:103B10000022DA600C23FB1801221A610C23FB1827
:103B2000174A19001000FDF7E5F920E07B681B68D3
:103B3000144A93421BD10C23FB1810221A600C2349
:103B4000FB1802225A600C23FB1800229A600C23F7
:103B5000FB180022DA600C23FB1804221A610C23E4
:103B6000FA189023DB0511001800FDF7C3F9C046D1
:103B7000BD4608B080BDC046002C01400004004096
:103B800000040048002000400D4885460D480E49BD
:103B90000E4A002302E0D458C4500433C4188C42A7
:103BA000F9D30B4A0B4C002301E013600432A2420C
:103BB000FBD3FFF73BFD00F011F8FFF701FBFEE739
:103BC0000010002000000020280100209C3E00087A
:103BD00028010020A8030020FEE7000070B50026A1
:103BE0000C4D0D4C641BA410A64209D1002600F018
:103BF0002BF80A4D0A4C641BA410A64205D170BDD7
:103C0000B300EB5898470136EEE7B300EB589847FE
:103C10000136F2E7943E0008943E0008943E000806
:103C2000983E0008002310B59A4200D110BDCC5C2C
:103C3000C4540133F8E703008218934200D170475F
:103C400019700133F9E70000F8B5C046F8BC08BCAC
:103C50009E467047F8B5C046F8BC08BC9E46704703
:103C600002030405060708090A0B0C0D0E0F1010BD
:103C70000102030405060708090A0B0C0D0E0F10BC
:103C80002E2E2F5372632F6D61696E2E630000001C
:103C90002E2E2F5372632F74696D2E630000000067
:103CA00000000000000000000000000000096000AB
:103CB000000000000071310000007A73617732006B
:103CC00000637864653433000020766674723500D2
:103CD000006E62686779360000006D6A75373800DB
:103CE000002C6B696F303900002E2F6C3B702D005B
:103CF000000027005B3D000000000D5D005C00003F
:103D00000000000000007F00003100343700000098
:103D1000302E323536381B00002B332D2A39000067
:103D20000000000000000000000000000000000093
:103D30000000000000000000000000000000000083
:103D40000000000000000000000000000000000073
:103D50000000000000000000000000000000000063
:103D60000000000000000000000000000000000053
:103D70000000000000000000000000000000000043
:103D80000000000000000000000000000000000033
:103D90000000000000000000000000000000000023
:103DA0000000000000000000000000000000000013
:103DB00000000000CE2C00084C2D00084C2D0008FF
:103DC0004C2D00084C2D00084C2D00084C2D0008EF
:103DD0004C2D00084C2D00084C2D00084C2D0008DF
:103DE0004C2D00084C2D00084C2D00084C2D0008CF
:103DF0004C2D0008D82C00084C2D00084C2D000834
:103E00004C2D00084C2D00084C2D00084C2D0008AE
:103E10004C2D00084C2D00084C2D00084C2D00089E
:103E20004C2D00084C2D00084C2D00084C2D00088E
:103E3000922C00084C2D0008B02C0008742C0008AF
:103E40004C2D00084C2D00084C2D00086A2C000851
:103E5000882C0008BA2C00084C2D0008C42C00083F
:103E6000A62C00084C2D00084C2D00084C2D0008F5
:103E70004C2D00089C2C00084C2D00084C2D0008EF
:103E80007E2C000800000000000000000102030476
:043E90000607080910
:043E9400E900000839
:043E9800C10000085D
:103E9C000100000000000100010000000101000011
:103EAC0000000101000100000100000100000101FF
:103EBC0001000000010101010000010001010000EE
:103ECC0000010100000000010101000001000000E0
:103EDC0001000100010001000101000001000101CD
:103EEC0000010100010000010100010101000100BD
:103EFC0001010101010001000101010000010100AB
:103F0C00010000010101010001000000010101009C
:103F1C00010001010001010100010101000001018A
:103F2C00010100010101010000010101000000007C
:103F3C000000000000000000000100010001010170
:103F4C00010100000001010000010000010100005E
:103F5C00000101000001010001010000000101014C
:103F6C00000100000101000000010101000100013D
:103F7C00010100000001010000010001010100002D
:103F8C00000101010001010001010000000101011B
:103F9C00000101010101000000010100000101010B
:103FAC0001010000000100010001010001010000FD
:083FBC000100000000127A0070
:0400000508003B892B
:00000001FF
