:020000040800F2
:10000000000001206D180008D5170008D717000858
:10001000D9170008DB170008DD17000800000000F2
:10002000000000000000000000000000DF170008D2
:10003000E117000800000000E3170008E5170008BA
:10004000BD180008BD180008BD180008BD1800083C
:10005000BD180008BD180008F3170008BD180008F7
:10006000BD180008BD180008BD180008BD1800081C
:10007000BD180008BD180008BD180008BD1800080C
:10008000BD180008BD180008BD180008BD180008FC
:10009000BD180008BD180008BD180008BD180008EC
:1000A000BD180008BD180008BD180008BD180008DC
:1000B000BD180008BD180008BD180008BD180008CC
:1000C000BD180008BD180008BD180008BD180008BC
:1000D000BD180008BD180008BD180008BD180008AC
:1000E000BD180008BD180008BD180008BD1800089C
:1000F000BD180008BD180008BD180008BD1800088C
:10010000BD1800080000000000000000BD18000835
:10011000BD180008BD180008BD180008BD1800086B
:10012000BD180008BD180008BD180008BD1800085B
:10013000BD180008BD180008000000000000000005
:10014000BD180008BD180008BD1800080000000018
:10015000000000000000000000000000000000009F
:10016000BD180008BD180008BD180008BD1800081B
:10017000BD180008BD180008BD180008BD1800080B
:10018000BD180008BD1800080000000000000000B5
:04019000BD1800088E
:1001940010B5054C237833B9044B13B10448AFF3BD
:1001A40000800123237010BD0C000020000000001B
:1001B4000819000808B5034B1BB103490348AFF302
:1001C400008008BD0000000010000020081900088D
:1001D40038B50E4A0E4B054618784FF47A73B3FBC4
:1001E400F0F31068B0FBF3F000F08CF8044658B953
:1001F4000F2D09D8024629464FF0FF3000F042F88F
:10020400044B20461D6038BD012038BD0800002085
:100214000000002004000020074A08B5136843F0DA
:1002240010031360032000F01BF80020FFF7D0FF39
:1002340001F064FA002008BD00200240034A044B88
:1002440011681B780B441360704700BF3400002012
:1002540000000020014B1868704700BF34000020E4
:10026400074AD36823F4E0631B041B0C43F0BF6309
:10027400000243F4003300F4E0600343D3607047AA
:1002840000ED00E0174B30B5DC68C4F30224C4F180
:100294000703251D042B28BF0423062D4FF0010559
:1002A40005FA03F303F1FF338CBF033C0024194028
:1002B400A14005FA04F4013C2240002842EA01026C
:1002C4004FEA0212AFBF00F1604000F00F00064B8E
:1002D400D2B2A5BF00F56140D2B21A5480F800230F
:1002E40030BD00BF00ED00E014ED00E04209012341
:1002F40000F01F0003FA00F0014B43F8220070479E
:1003040000E100E00138B0F1807F0AD2064B074AD1
:100314005860F02182F823100020072298601A60A8
:1003240070470120704700BF10E000E000ED00E0DE
:10033400044B1A6804280CBF42F0040222F00402A1
:100344001A60704710E000E0704708B5FFF7FCFF43
:1003540008BD00002DE9F74FD1F80080DFF8909137
:10036400614A002338FA03F402D103B0BDE8F08FE8
:100374004FF0010E0EFA03FE18EA0E0600F0A680F6
:100384004C6824F01007022F16D14FEAD30A00EB71
:100394008A0A03F0070BDAF820504FEA8B0B4FF070
:1003A4000F0C0CFA0BFC25EA0C0C0D6905FA0BF585
:1003B40045EA0C05CAF820504FEA430A0325D0F851
:1003C40000B005FA0AF5ED4304F0030C0BEA050B43
:1003D4000CFA0AFC013F4CEA0B0C012FC0F800C0D8
:1003E40011D8876807EA050BCF6807FA0AFC4CEABC
:1003F4000B078760476827EA0E0EC4F300179F4077
:1004040047EA0E074760C7683D408F6807FA0AF756
:100414003D43C560E50059D5D9F8185045F00105AC
:10042400C9F81850D9F8185023F0030707F180478A
:1004340005F0010507F58037019503F0030C019DD4
:10044400BD684FEA8C0C4FF00F0E0EFA0CFEB0F1A3
:10045400904F25EA0E0E3BD0244DA8423AD005F524
:100464008065A84238D005F58065A84236D005F5E8
:100474008065A84234D005F58065A84232D005F5E0
:100484008065A84214BF0725062505FA0CF545EA40
:100494000E05BD601568F74314F4803F0CBF3D4062
:1004A40035431560556814F4003F0CBF3D40354397
:1004B4005560956814F4801F0CBF3D40354395602A
:1004C400D568A40254BF3D403543D560013349E7A4
:1004D4000025DAE70125D8E70225D6E70325D4E786
:1004E4000425D2E70525D0E70004014000040048B4
:1004F400001002400369194214BF01200020704714
:100504000AB18161704781627047704708B5044B36
:100514005969014202D05861FFF7F7FF08BD00BFD7
:10052400000401402DE9F347054618B9012002B043
:10053400BDE8F0870368DF0711D42B689E0700F13C
:1005440088802B681C0700F1FC802B68580700F199
:100554004581AA69002A40F0DC810020E7E7BD4C10
:10056400636803F00C03042B0AD0636803F00C03E4
:10057400082B19D1636803F4C033B3F5803F13D15A
:100584004FF4003393FAA3F2216893FAA3F3B3FA76
:1005940083F303F01F03012202FA03F30B42CCD0CE
:1005A4006B68002BC9D1C1E76B68B3F5803F1ED1DE
:1005B400236843F480332360FFF74CFE4FF4003686
:1005C4008046012796FAA6F3226896FAA6F3B3FAB0
:1005D40083F303F01F0307FA03F31342ADD1FFF7CC
:1005E40039FEA0EB08006428ECD903209FE70BBB7D
:1005F400236823F480332360236823F48023236057
:10060400FFF728FE4FF400368046012796FAA6F33A
:10061400226896FAA6F3B3FA83F303F01F0307FAEA
:1006240003F3134289D0FFF715FEA0EB08006428FA
:10063400ECD9DAE7B3F5A02F236803D143F4802380
:100644002360B5E723F480332360236823F48023F5
:10065400B1E7804C636813F00C0F0AD0636803F0B1
:100664000C03082B25D1636803F4C033B3F5004FA2
:100674001FD1022393FAA3F2216893FAA3F3B3FAE6
:1006840083F303F01F03012202FA03F30B4203D0A6
:10069400EB6893427FF44AAF2168F82393FAA3F3FB
:1006A400B3FA83F22B69934021F0F80213432360D9
:1006B40047E7EA6801260AB396FAA6F3B3FA83F386
:1006C40003F1845303F584139B0002271E60FFF794
:1006D400C1FD804697FAA7F3226897FAA7F3B3FA05
:1006E40083F303F01F0306FA03F31342D4D1FFF795
:1006F400B1FDA0EB08000228ECD976E796FAA6F340
:10070400B3FA83F303F1845303F584139B000227A4
:100714001A60FFF79FFD804697FAA7F3226897FABD
:10072400A7F3B3FA83F303F01F0306FA03F31342A8
:100734003FF407AFFFF78EFDA0EB08000228EBD9CA
:1007440053E76A69434E444901241AB394FAA4F363
:10075400B3FA83F30B449B0002271C60FFF77AFD76
:10076400804697FAA7F397FAA7F397FAA7F3726A62
:1007740097FAA7F3B3FA83F303F01F0304FA03F31E
:1007840013427FF4E2AEFFF765FDA0EB08000228F8
:10079400E7D92AE794FAA4F3B3FA83F30B449B0052
:1007A40002271A60FFF756FD804697FAA7F397FAD7
:1007B400A7F397FAA7F3726A97FAA7F3B3FA83F346
:1007C40003F01F0304FA03F313423FF4BEAEFFF732
:1007D40041FDA0EB08000228E7D906E71D4CE369B8
:1007E400D90034D4E36943F08053E361E36903F04F
:1007F40080530193019B0126184F3B68DA052FD5DE
:10080400AB68012B3DD1236A43F001032362FFF758
:1008140021FD02278246B9464FF0010897FAA7F353
:1008240097FAA7F3002B6CD0226A99FAA9F3B3FACA
:1008340083F303F01F0308FA03F3134258D0002E86
:100844003FF487AEE36923F08053E36181E6002639
:10085400D2E700BF001002402081901000700040D9
:100864003B6843F480733B60FFF7F4FC80463B68CD
:10087400DB05C5D4FFF7EEFCA0EB08006428F6D92D
:10088400B3E63BBB236A23F001032362236A23F00C
:1008940004032362FFF7DEFC02278246B9464FF0C9
:1008A400010897FAA7F397FAA7F373B3226A99FAA0
:1008B400A9F3B3FA83F303F01F0308FA03F3134213
:1008C400BDD0FFF7C7FC41F28833A0EB0A00984281
:1008D400E7D98AE6052B236A03D143F00403236294
:1008E40091E723F001032362236A23F004038DE7D5
:1008F400FFF7B0FC41F28833A0EB0A0098428DD98F
:1009040073E697FAA7F3626A8FE797FAA7F3626A26
:10091400CDE7444C636803F00C03082B3FF406AEA8
:10092400022A4FF0807358D193FAA3F3B3FA83F3F6
:1009340003F1845303F584139B0000221A60FFF72C
:1009440089FC4FF000778046012697FAA7F32268C6
:1009540097FAA7F3B3FA83F303F01F0306FA03F33A
:10096400134233D1E36A6A6A23F00F031343E36249
:1009740062682B6AE96922F476120B4313436360BD
:100984004FF0807393FAA3F3B3FA83F303F1845320
:1009940003F584139B004FF000751E60FFF75AFCAB
:1009A4000126074695FAA5F3226895FAA5F3B3FA4A
:1009B40083F303F01F0306FA03F313427FF4CDAD70
:1009C400FFF748FCC01B0228ECD90EE6FFF742FCF7
:1009D400A0EB08000228B8D907E693FAA3F3B3FA08
:1009E40083F303F1845303F584139B0000221A60FC
:1009F400FFF730FC4FF000750746012695FAA5F382
:100A0400226895FAA5F3B3FA83F303F01F0306FAF9
:100A140003F313423FF4A1ADFFF71CFCC01B0228F3
:100A2400ECD9E2E50010024011494B6803F00C02D6
:100A3400082A1AD14FF4701292FAA2F20F20B2FAD5
:100A440082F2C96A90FAA0F0B0FA80F001F00F01C6
:100A540003F47013D340C140064A0748415C074879
:100A6400B0FBF1F1D05C484370470448704700BFC5
:100A740000100240201900083019000800127A0002
:100A84002DE9F0410D46044610B90120BDE8F0817E
:100A94004C4A136803F007038B422ED32268910754
:100AA40036D4D2073CD4474A136803F007039D4267
:100AB40075D32268444D12F0040F7CD1130706D578
:100AC4006B68226923F4605343EAC2036B60FFF747
:100AD400ABFF6B68F02292FAA2F2B2FA82F203F050
:100AE400F003D340394AD35CD840394B1860002016
:100AF400FFF76EFB0020BDE8F081136823F00703C5
:100B04000B431360136803F007039942BDD1C5E793
:100B14002D49A0684B6823F0F00303434B60C0E702
:100B24006268294E012A27D14FF4003393FAA3F1C6
:100B3400316893FAA3F3B3FA83F303F01F0302FAC1
:100B440003F30B42A1D0736823F003031A437260CA
:100B5400FFF780FB41F2883807467368626803F048
:100B64000C03B3EB820F9ED0FFF774FBC01B404510
:100B7400F3D90320BDE8F081022A0CBF4FF00073C3
:100B8400022393FAA3F1306893FAA3F3B3FA83F33D
:100B940003F01F03012101FA03F30342D2E71368B0
:100BA40023F007032B431360136803F007039D42EC
:100BB4007FF46BAF7DE76B68E16823F4E0630B437C
:100BC4006B607BE70020024000100240171B000806
:100BD40008000020014B1868704700BF080000207F
:100BE400084B4FF4E0625B6892FAA2F2B2FA82F226
:100BF40003F4E063D340044AD35C044A1068D84049
:100C0400704700BF00100240271B000808000020A6
:100C1400084B4FF460525B6892FAA2F2B2FA82F285
:100C240003F46053D340044AD35C044A1068D840A8
:100C3400704700BF00100240271B00080800002076
:100C440003682DE9F347DF03044623D59B4DEB6985
:100C5400DE0000F1D780EB6943F08053EB61EB6970
:100C640003F080530193019B0126954F3B68D805FF
:100C740040F1CA802B6A13F4407340F0DA802B6A87
:100C8400626823F4407313432B621EB1EB6923F0B3
:100C94008053EB612068C30706D5884AA168136BAB
:100CA40023F003030B431363870706D5834AE168E4
:100CB400136B23F440330B431363460706D57F4A73
:100CC4002169136B23F440230B431363850606D574
:100CD4007A4AE169136B23F010030B431363810316
:100CE40006D5764A616D536823F480030B43536041
:100CF400420606D5714A216A136B23F020030B4385
:100D04001363430306D56D4A616A136B23F04003F2
:100D14000B431363070706D5684A6169136B23F411
:100D240040130B431363C60606D5644AA169136BCB
:100D340023F440030B431363850506D55F4A216BF7
:100D4400536823F400030B435360010606D55B4A42
:100D5400A16AD36A23F4F8730B43D362C20506D5A0
:100D6400564AE16AD36A23F478530B43D362C3042B
:100D740006D5524A616B136B23F480730B431363E0
:100D8400870406D54D4A216C136B23F400730B437F
:100D94001363C60206D5494AA16B136B23F0807313
:100DA4000B431363850206D5444AE16B136B23F0AE
:100DB40000730B431363410206D5404A616C136B05
:100DC40023F480630B431363020206D53B4AA16CF0
:100DD400136B23F400630B431363C30106D5374A33
:100DE400E16C136B23F400530B43136310F0007096
:100DF4001CD0324A216D136B23F400430B4313635D
:100E0400002013E0002630E73B6843F480733B6026
:100E1400FFF720FA80463B68D9053FF52BAFFFF773
:100E240019FAA0EB08006428F5D9032002B0BDE844
:100E3400F087626802F4407293423FF420AF296A5B
:100E44004FF4803321F4407093FAA3F2DFF874E096
:100E5400B2FA82F2724492000127176093FAA3F364
:100E6400B3FA83F373449B0000221A60CA07286212
:100E74007FF505AFFFF7EEF94FF002088246C14651
:100E840098FAA8F398FAA8F3A3B12A6A99FAA9F3ED
:100E9400B3FA83F303F01F0307FA03F313427FF457
:100EA400EEAEFFF7D7F941F28833A0EB0A0098427F
:100EB400E6D9BAE798FAA8F36A6AE7E700100240AD
:100EC400007000400081901038B50446056821691F
:100ED400A268C36928680A4361690A4377491A43C7
:100EE40001400A432A606A68E168206A22F4405299
:100EF4000A436A60A968A26921F4306102430A4383
:100F0400AA606F4A954212D102F558426D49126B9C
:100F140002F00302B3F5004F8A5C66D0082A19D8A0
:100F2400DFE802F0C2929E18A9181818AC00664AAD
:100F3400954224D102F5E632126B02F44032B2F546
:100F4400803F00F0A08007D8002A00F0AA80B3F503
:100F5400004F76D0012038BDB2F5003F00F09980F3
:100F6400B2F5403FF3D1B3F5004F79D1606843083F
:100F740003F5740303F51053B3FBF0F354E0534A41
:100F840095420ED102F5E432126B02F44022B2F51E
:100F9400802F78D0D8D9B2F5002F7AD0B2F5402F6F
:100FA400E0E74B4A95420ED102F5E232126B02F4AD
:100FB4004012B2F5801F66D0C6D9B2F5001F68D0C2
:100FC400B2F5401FCEE7434A9542C0D102F5E03264
:100FD400126B02F44002B2F5800F54D0B4D9B2F5CA
:100FE400000F56D0B2F5400FBCE7082A29D801A358
:100FF40053F822F01D10000841100008710F00087A
:101004004710000891100008471000084710000816
:10101400471000089D100008FFF7E2FD61684A08C8
:1010240002EB4003B3FBF1F39BB2002023F00F0269
:101034002168C3F342031343CB6038BDFFF7E8FDD7
:10104400ECE701200023F1E7FFF7E2FD636800EB22
:101054005300B0FBF3F01A4B80B2D860002038BDC7
:101064006268530803F5F40303F59053B3FBF2F3FA
:101074009BB2EB60F2E7FFF7D7FC17E06268530816
:1010840003F50043F2E7B3F5004FF4D1FFF7CCFCCE
:10109400C4E7B3F5004FF1D16068430803F580332A
:1010A4006AE7B3F5004FB7D0FFF79AFD636800EB2A
:1010B4005300B0FBF3F080B2E860CFE7F369FFEFD1
:1010C4000038014040190008004400400048004036
:1010D400004C004000500040436ADA0710B506D5C2
:1010E4000168846A4A6822F4003222434A609C07F9
:1010F40006D50168C46A4A6822F4803222434A60F1
:10110400590706D50168046B4A6822F480222243F9
:101114004A601A0706D50168446B4A6822F4004203
:1011240022434A60DC0606D50168846B8A6822F48F
:10113400805222438A60990606D50168C46B8A6886
:1011440022F4005222438A605A060FD50168046CC7
:101154004A6822F480122243B4F5801F4A6005D104
:101164004A68446C22F4C00222434A601B0606D536
:101174000268816C536823F400230B43536010BD51
:101184002DE9F041069D04460F461646984621680F
:10119400CA6937EA02030CBF01220022B24202D01C
:1011A4000020BDE8F0816B1CF2D09DB923681A6859
:1011B40022F4D0721A609A6822F001029A60202305
:1011C40084F8693084F86A30002384F86830032096
:1011D400BDE8F081FFF73EF8A0EB08008542D6D2C7
:1011E400E4E72DE9F3411F4690F86930202B0446CB
:1011F4000D4690464CD1002948D0002A46D090F89C
:101204006830012B44D0012380F868300023C36682
:10121400212380F86930FFF71DF8A4F850800646B2
:10122400A4F85280B4F8522092B262B900973346BF
:1012340040212046FFF7A4FF98B9202384F86930A1
:1012440084F868000EE0B4F852300097013B9BB27A
:10125400A4F852300022334680212046FFF790FF45
:1012640018B1032002B0BDE8F081A3682268B3F589
:10127400805F07D123692BB935F8023BC3F3080318
:101284001385CFE72B7813850135CBE70120E9E7F8
:101294000220E7E773B504460026C666FEF7DAFFC8
:1012A40023681B681A07054617D423681B685B0765
:1012B4000AD56FF07E43009300222B464FF4800141
:1012C4002046FFF75DFFA0B92023002084F8693091
:1012D40084F8680084F86A300CE06FF07E43009371
:1012E400324603464FF400112046FFF749FF002819
:1012F400DBD0032002B070BD10B5044660B390F893
:10130400693003F0FF021BB980F8682000F03CFA52
:101314002268242384F86930136823F001031360DE
:101324002046FFF7D1FD012816D0636A13B1204689
:10133400FFF7D2FE23685A6822F490425A609A68F2
:1013440022F02A029A601A6842F0010220461A60CA
:10135400BDE81040FFF79EBF012010BDF0B53C4D25
:101364003C4E2B780446002194F82E2094F82D004E
:10137400D2B2824203D101B12B700020F0BD013200
:10138400D2B22D2A28BF0022A05C84F82E2000F0BF
:10139400FF020028EFD0F02A03D143F0010301211A
:1013A400E2E7E02A02D143F00203F8E7D90712D5B5
:1013B400122A04D103F0FB0303F0FC03EFE7592ADC
:1013C40002D103F0F703F7E7112AF5D19A0748BFD2
:1013D40003F0EF03F0E7122A02D143F00403DEE73F
:1013E400592A02D143F00803D9E7112A03D19F07F0
:1013F40048BF43F0100313F002010AD04A3AD2B2B4
:10140400332A21D8B05C03F0FC030028C7D02B702A
:10141400F0BDD80609D5206CD0F810712FB1872AF9
:1014240014D8024492F81401EDE713F00C0106D02D
:10143400872A09D8216C0A4492F88800E3E7872AAE
:1014440004D8216C885CDEE70020DCE70846DAE794
:10145400300000204419000870B5044690F82F109D
:10146400006BFFF747F80546FEF7F4FE1D4B1A68BC
:101474001860821AFA2A1C4A82BF1C4E002111707D
:10148400137888BF3170591EC9B2072904D8174888
:101494008D4001780D4305700133DBB20B2B1370C3
:1014A40012D194F82D3094F82E100133DBB22D2B89
:1014B40028BF00238B420D491EBF0878E05484F8EE
:1014C4002D30002313700B70012220214FF0904027
:1014D400FFF716F8002220214FF09040BDE870403D
:1014E400FFF70EB82C00002028000020290000205F
:1014F40010B5838F04463BB9FFF730FF84F83C00F6
:10150400003018BF012010BD012010BD10B590F8A7
:101514003D30044623B1002280F83D20184610BD1A
:1015240090F83C3083B1002280F83C205AB2002A63
:101534000EDA02F03F0262F07F02C3F3851384F8EF
:101544003D2043F0C003E9E7FFF708FF0346EDE75A
:10155400002B08BFFF23E1E783639DF8003080F888
:101564003430074B0364002380F82D30016380F886
:101574002F2080F82E3080F83C3080F83D307047C2
:10158400781900080148FFF767BF00BF3800002042
:1015940010B5A6B00123099310230A930224002353
:1015A40006A806940C93FEF7BDFF014600B1FEE7C2
:1015B4000F23029003900490059001A80193FFF774
:1015C4005FFA00B1FEE7139010A81094FFF738FB00
:1015D400044600B1FEE7FFF7FDFA4FF47A73B0FB5F
:1015E400F3F0FEF78FFE0420FEF7A2FE224621460A
:1015F4004FF0FF30FEF746FE26B010BD80B588B030
:10160400FEF70AFEFFF7C4FF364B374C5A6942F423
:1016140000325A615B6903F40033002202936021B3
:101624004FF090400126029BFEF76AFF2F4B049374
:1016340003A94FF090400025039605960227FEF774
:1016440089FE03A94FF09040039704950596FEF791
:1016540081FE602303A94FF09040039304960595FF
:101664000695FEF777FE2A4629460620FEF70AFE6F
:101674000620FEF73BFE1E4AA5604FF4164384E89D
:101684000C0020460C23E56025616361A561E561DA
:1016940025626562FFF730FE00B1FEE74FF090432C
:1016A40000963A4619461348124DFFF755FF28464F
:1016B400FFF71EFF0028FAD02846FFF727FF0D2862
:1016C4008DF80C0006D14FF47A7302220A492046A1
:1016D400FFF787FD4FF47A73012203A92046FFF731
:1016E40080FDE4E7001002407C000020000021108F
:1016F4000044004038000020141B0008214B07B5AB
:101704009A6942F001029A619A6902F00102009218
:10171400009ADA6942F08052DA61DB6903F080539F
:1017240001930320019BFEF79BFD002211466FF0FD
:101734000B00FEF7A7FD002211466FF00A00FEF72A
:10174400A1FD002211466FF00900FEF79BFD002267
:1017540011466FF00400FEF795FD002211466FF06C
:101764000300FEF78FFD002211466FF00100FEF723
:1017740089FD002211464FF0FF30FEF783FD03B0D0
:101784005DF804FB001002407FB502680F4B9A42DB
:1017940019D103F5E63301A9DA6942F40032DA61BA
:1017A400DB6903F400330093009B0C2301930223B1
:1017B400029300230393032304934FF090400723E1
:1017C4000593FEF7C7FD07B05DF804FB0044004035
:1017D4007047FEE7FEE7FEE7FEE770477047704795
:1017E40008B5FEF72BFDBDE80840FEF7AEBD08B511
:1017F400FFF7C8FE0120BDE80840FEF787BE0000E1
:101804001549D1F8883043F47003C1F88830134B7C
:101814001A6842F001021A605868114A02405A607C
:101824001A6822F0847222F480321A601A6822F450
:1018340080221A605A6822F4FE025A60DA6A22F0A0
:101844000F02DA62186B074A02401A6300229A6098
:101854004FF000638B60704700ED00E00010024021
:101864000CC07FF8CCFC00FFDFF834D0002103E08B
:101874000C4B5B58435004310B480C4B42189A42B2
:10188400F6D30B4A02E0002342F8043B094B9A4288
:10189400F9D3FFF7B5FF00F011F8FFF7AFFEFEE74D
:1018A40000000120381B0008000000200C0000206C
:1018B4000C000020EC000020FEE7000070B50D4E87
:1018C4000D4CA41BA4100025A54209D10B4E0C4CB1
:1018D40000F018F8A41BA4100025A54205D170BD82
:1018E40056F8253098470135EEE756F825309847E5
:1018F4000135F2E7301B0008301B0008301B0008DC
:10190400341B0008F8B500BFF8BC08BC9E467047FD
:0C191400F8B500BFF8BC08BC9E46704748
:1019200002030405060708090A0B0C0D0E0F101020
:101930000102030405060708090A0B0C0D0E0F101F
:10194000010408022F000000000000000000000059
:10195000000000000D00000000000000000000007A
:1019600000000000000800000000007F0A00150BC6
:10197000000000001A000019000000000000000034
:10198000000000000009600000000000007131004C
:1019900000007A7361773200006378646534330045
:1019A0000020766674723500006E626867793600D2
:1019B00000006D6A75373800002C6B696F30390094
:1019C000002E2F6C3B702D00000027005B3D0000B7
:1019D00000000D5D005C00000000000000007F00C2
:1019E0000031003437000000302E323536381B000D
:1019F000002B332D2A3900000000000000000000F9
:101A000000000000000000000000000000097E004F
:101A1000000000000051210000005A5341574000CF
:101A200000435844452423000020564654522500C4
:101A3000004E424847595E0000004D4A55262A0094
:101A4000003C4B494F292800003E3F4C3A505F0074
:101A5000000022007B2B000000000D7D007C0000B8
:101A60000000000000007F0000310034370000005B
:101A7000302E323536381B00002B332D2A3900002A
:101A80000000000000000000000000000000000056
:101A90000000000000000000000000000000000046
:101AA0000000000000000000000000000000000036
:101AB0000000000000000000000000000000000026
:101AC0000000000000000000000000000000000016
:101AD0000000000000000000000000000000000006
:101AE00000000000000000000000000000000000F6
:101AF00000000000000000000000000000000000E6
:101B000000000000000000000000000000000000D5
:101B1000000000000D0A00000000000000000001AD
:101B20000203040607080900000000010203040084
:041B3000B9010008EF
:041B3400950100080F
:0C1B3800010000001000000000127A0004
:040000050800186D6A
:00000001FF
